:020000024000BC
:10E000006FE0B1310000000000180118002801285D
:10E0100002280328002901290229032904290529A6
:10E02000062907290829002A012A022A032A042A84
:10E03000052AA62A60D2060060010500DC03002044
:10E0400020040020980300208603002052030020B3
:10E05000D801050000020500CE020500C604050037
:10E0600070050500EAFF04007CFF040002020020A6
:10E07000A8FF0400EE0905001A050020AE01050006
:10E08000040705002C8C06000A8E0600748E06001C
:10E090000C4E0600204E06007E0E0600A002060072
:10E0A0008A86060034070500CC5406000CB0050033
:10E0B0009CB00500F6B005003E1205007C1205007C
:10E0C000FC100500AA720500D06D05004007002075
:10E0D000FA7E050060820500F46005009660050088
:10E0E000586405004061050074600500EC6005009F
:10E0F0002A600500BA61050012620500C2610500D0
:10E10000C66105005C6205001A6205004A620500EE
:10E110000C67050010670500B6610500BE610500CB
:10E120005A6205000E670500086305006A6805006D
:10E13000AC8F0500209005005A900500F67405008C
:10E140000C75050044750500D25A0500B05B05004A
:10E15000145C0500462E05008A290500D8510500EB
:10E16000082A0500204D050086B00600AAAD06006D
:10E170009EB70600A0C6060076C5060086C9060042
:10E1800042C906007EC90600C4C90600D29E060028
:10E19000C0C9060000BE060026BE060046BE060038
:10E1A00034CA060074C3060012C30600A4CA0600DF
:10E1B0008E9F060022A0060042A00600F49F0600E3
:10E1C000AA6C0600E6590600185D0600AE5A060065
:10E1D000FE6206001E87060018860600069F0600DF
:10E1E0009A0B0500304E0600AC540600A4550600FC
:10E1F0004C800600D4800600B4810600CC7805006F
:10E200005E6C06007263060036690600EE65060065
:10E2100096590600E0060020D64E0600ACC906005E
:10E2200046C906007AC9060076C906006C040500D6
:10E2300036760500B4C90600A06E0600F46F06002D
:10E2400062700600DCB70600B0C90600B8C9060057
:10E250002C020600BCC90600CE140020281900209C
:10E2600000000000000000000000000000000000AE
:10E27000000000000000000000000000000000009E
:10E280006373B60082801C419105110523AEF5FE33
:10E29000C5BFB727002037270020938707DB130768
:10E2A00007306373F700828023A007009107D5BF72
:10E2B0005DC5AA870145D5C58D07C207C183F19BFE
:10E2C000C207C18313074003636CF702372700209E
:10E2D000032587DB37270020832607DB6397A60209
:10E2E00037270020032787F8014525CF4111C207B2
:10E2F00006C60545DD8D0297B24001454101828089
:10E3000037270020032547DBF1B77A2139E75A2167
:10E310006365F704B72600203306F740214893864B
:10E3200046F96375C8028328050003D86600138682
:10E3300087001D8F2A9661175AA2232016012313E6
:10E34000060010C15EA1130788FFFAA26EA1EE229B
:10E350002105B387F540FEA28280084141B70145FF
:10E360008280828009CDB727002003A387DBB727EF
:10E37000002083A807DB81469A8763E31701828028
:10E3800003A80700636BF5086369A8081387870073
:10E39000E367E5FEF223216705076319E6003726E8
:10E3A0000020034786E70507230CE6E63726002012
:10E3B000130546F9CE237A2123930700130646F965
:10E3C0002E97420741837AA1638367023725002095
:10E3D000032545DB630DF500EA2211E9DE2223A0C7
:10E3E00006012107BE95A105CEA27AA2B687984361
:10E3F000E30717F9B726002083A646DBE301D7F829
:10E400007623B5FED6234E231843A106AE96D6A397
:10E4100098C37E22A1077EA28280BE86C287B1BF3A
:10E42000B7270020B726002083A787DB03A606DBDB
:10E430002A87B305B5406314F6003A8529A8938668
:10E4400087009C43E369D7FEE377F7FE2E85E3E47C
:10E45000D5FEE3F2F5FE828023AC05FE1C4181E788
:10E460000CC18280BA8703A787FF6DFF23ACB7FE7C
:10E470008280411126C2B724002022C44AC083A74B
:10E48000C4DB06C6014401499384C4DB81EBA1656A
:10E49000970005E0E780602A1DC419A803C7E7FFBD
:10E4A000631AA7020DCCA165970005E0E78000FA8A
:10E4B0009840832784FF6316E4029CC0FD57232CF9
:10E4C00004FE230FF4FE2285B24022449244024906
:10E4D0004101828011E03E8983A787FF45BF3E84CA
:10E4E000E5BF232CF9FED9BFB727002083A707DD9E
:10E4F00099E33E858280BA236315B7009823E30A27
:10E50000A7FEDC47F5B70111680006CE22CC9710B4
:10E5100006E0E78020ADFD576307F508324741C3A9
:10E5200037240020130444F91848630DF700B72777
:10E53000002083A787DD829732471C486373F7006A
:10E54000BA873E9537240020930784249C4F1304F8
:10E55000842499CBB727002083A647EC3707CDFF4B
:10E560007D179C46F98F9CC6B727002083A7C7F765
:10E57000829719E91C4C85C7975006E0E780803BDD
:10E58000975006E0E78020B31C4C91CBB7270020C2
:10E5900003A747ECB70633001C47D58F1CC7F240D2
:10E5A00062440561828037240020130444F91C482A
:10E5B000E387A7FEB727002083A787DD82971C4843
:10E5C00049B709CD81CD19CA81473387F500142396
:10E5D0003307F500850714A3E319F6FE828019C9F5
:10E5E00091C909CA910583A7C5FF11057D16232E80
:10E5F000F5FEC5BF828001C919C62A960505A30F7D
:10E60000B5FEE31DA6FE828081473307F5000307B0
:10E61000070019E33E8582808507C5BF01112E865C
:10E6200026CAAA84131506019305F004418122CC61
:10E6300006CE32C6B5392A8401C53246A685513781
:10E640002285F2406244D24405618280854705C13B
:10E6500099CD11CE8147B306F5003387F50094229A
:10E6600018236398E6008507E317F6FE85473E8585
:10E6700082808147EDBF9307F6FFBE952A9663130C
:10E68000C5008280FD159C310505A30FF5FEC5BFB1
:10E69000AA87014581CF09CE3E96850703C7F7FFBC
:10E6A0006317B700E39BC7FE054582808280014562
:10E6B000828079714AD03729002022D4032409DDD1
:10E6C00006D626D24ECE52CC56CA5AC85EC649C0CD
:10E6D00037CAC901B72A0020B7290020130909DD6C
:10E6E0008144372B0020130AFA37938A4AF593891D
:10E6F00049F93E2099EB5C44BDE42320F900832BCB
:10E70000C400228585315E840DA883278BDD829726
:10E710001C443307F540636AEA0423A809002E204D
:10E720000820970005E0E78060D254405C44E9D6B9
:10E730001844A284369718C43E8445FCB7270020AD
:10E74000938747F9984B894663FEE602791798CB81
:10E75000B250225492540259F249624AD24A424B70
:10E76000B24B45618280DCC459BF03A78A0201CB4A
:10E7700003A70901898F63F4E70023A8F900A284A5
:10E78000404465BF23A80700E1B701114AC83729F3
:10E7900000208327C9FB06CE22CC26CA4EC652C40F
:10E7A00056C21309C9FB81C782972320090083271A
:10E7B000490091C382978327090063920714B72405
:10E7C000002093878424DC3393848424858B99CF21
:10E7D000F830A3820400914763FAE700EF10E002EB
:10E7E000FC30F9178A07CA979C438297372A002082
:10E7F00093074A28DC27130A4A28918B99C3EF1004
:10E8000040648327890091C38297372400209307AF
:10E8100044F99033B729002003A709DC130444F915
:10E82000938909DC1C2093961700BA969622B5C6E8
:10E830001C2063EBC7068327090023000400E1E3E3
:10E840009C3489CBFC3099E7A3840400975006E000
:10E85000E78020C1B727002083A787DDCDC3FD5700
:10E860001CC8813DB727002083A7C7F7C9CBF83064
:10E87000914763E6E7088347CA00918BC9E31430E8
:10E8800003A6090063E6D7086244F240D244424935
:10E89000B249224A924A0561BDB1850793F7F70F45
:10E8A0001CA0E3E1C7F869B786073E970E23231043
:10E8B00007000820B727002083A747DD131725008E
:10E8C000B72A0020BA979C43938A8ADC23900A00D7
:10E8D000829783D70A00182093C7F7FF7D8D93177F
:10E8E000170003A709003E971E235D8D0AA31C2075
:10E8F00099C385071CA018201C30E37EF7F2F24074
:10E900006244D2444249B249224A924A0561828015
:10E910001397170032971A237DF38507A5B7AD67C4
:10E9200037470240BD072326F72001000100B72723
:10E930000020938747F9C84F83278726BD66BD0609
:10E9400093C7F7FF99836A052326D7205D8D8280C0
:10E950008280B727002003C60713B727002003A72C
:10E9600087E481476315F600814636858280BA8642
:10E9700013078702835587FDE389A5FE850793F773
:10E98000F70FCDB7B727002003C61713B72700200E
:10E9900083A747E601476365C700814636858280C5
:10E9A000BE86990783D5A7FFE38AA5FE0507E5B7CD
:10E9B000B727002003A7C7E519E3014615A81C47A0
:10E9C00003D8A700636B050183584700B38608018D
:10E9D0006355D5008146639416011843F1BF3E8606
:10E9E000C10703D3A7FF6317A30099C123900501B3
:10E9F000328582808506C206C182F1BFB72700201A
:10EA000003C60713B727002003A787E881476315CC
:10EA1000F600814636858280BA861307C703835580
:10EA200067FCE389A5FE850793F7F70FCDB70327AA
:10EA300085117DC7411122C406C65C258345C504E6
:10EA40002A8493F7C70F5CA51437522713958601C4
:10EA5000618563F6C50663500506082793F6F60739
:10EA600014B7054693E627006314C50093E6170024
:10EA700054A45C4389075CC34CB8032504112E865B
:10EA80004C4309053D3E832784115038D443DA278F
:10EA9000B296118FD4C3DAA789473CBCB7270020B0
:10EAA0000347440383C767F66371F7045C2493E765
:10EAB00007015CA41DA893E717005CA475BF9376BB
:10EAC000F60F635905020827854513E627006314EE
:10EAD000B50013E6170050A454B8A30407008547F7
:10EAE0003CBC832784119C43D5FBB24022440145A2
:10EAF0004101828093E717005CA454B8A304070087
:10EB0000032504114C4309056D3C832784115038BB
:10EB1000D443DA27B296118FD4C3DAA78D47C9B789
:10EB200005458280B727002083A787EA411122C4C8
:10EB300006C6858B2A84D5E34165130525F5971014
:10EB400006E0E780800051C93C253EA583270412DA
:10EB5000ADE32320A4122322A41285472310F4043A
:10EB6000232005007C2854415EA5583418A505478C
:10EB700018B53727002003270726138517021581AC
:10EB80001C437D151375F50F9CC25C43DCC21C470A
:10EB90009CC65C47DCC61C4B9CCA5C4BDCCA1C4F49
:10EBA0009CCE5C4FDCCE19CD93860602130707027C
:10EBB000C1BF8327441288C3835704042322A412AD
:10EBC000850769BFB7270020938787139A27050712
:10EBD0009AA7B2402244410182805C2423090400A8
:10EBE000054593C747005CA4EDB71C2D93F7E70FCD
:10EBF000CDE31C3DD9EF3029542509CA3727002021
:10EC000083454503034777F663E7E50013F70601FD
:10EC100051C3014709C6C18A0357851881C6835667
:10EC2000C518369725CBB7260020938646F5F22ED9
:10EC3000B7470F0093870724B3C7C7021307C7124C
:10EC4000411122C426C206C67D543357F702FC3A4E
:10EC5000B384E700B727002083A6071C83A7060913
:10EC600063F387003E849442F5FAB727002083A718
:10EC700087DD829781476364A400B307A440B24054
:10EC80002244B3B7970093C7170092443E854101D1
:10EC9000828081473E858280B72600209387861335
:10ECA00083A78708638E073E797126D293868613E1
:10ECB000B7240020138744F503A506090353E70191
:10ECC00037470F0006D622D44AD04ECE52CC56CA71
:10ECD0005AC85EC662C40148FD58938444F5130EB9
:10ECE000F7231306072403D7470883A5070933072B
:10ECF000670272973357C7023387E5406375170180
:10ED00003E85BA8805489C43F9FF6304080023A8A0
:10ED1000A60803A40609B7490F00938BF9233729E6
:10ED20000020930A0032130B204E054A93890924D0
:10ED3000832789DD032C0409829763748529F62CC7
:10ED400003574408FC38330CAC403307D7025E97B6
:10ED5000335737033E976364871F7E3CA30F04003D
:10ED6000228585077EBC83470414C5C7F12E228502
:10ED7000970006E0E780204E49E1EE2C0357440857
:10ED800037460F009307F6233307B702130606240E
:10ED900083260409230A04023E973357C7028327B8
:10EDA000C4083387E640BE963C342324E408232875
:10EDB000D40805476391E7060357E407323C636CC8
:10EDC000E60410286319F60483278411A9E7832732
:10EDD000440AB1E370349D47631FF6021E3CB387BB
:10EDE000E7021307204EB387E70203274409B3D78E
:10EDF000E702F828BA972312F408B250225492542A
:10EE00000259F249624AD24A424BB24B224C456106
:10EE10008280412CA9BF1E3095CB7A3C52305AB02B
:10EE20003306C74037470F00130707243347B7029D
:10EE3000B387C7023230B297C207C1833EB063E7DF
:10EE4000E700B3D7E702B6972328F408832789DDC4
:10EE50008297AA89832789DD8297E30D35FF83276F
:10EE600089DD8329840882973385A94051CD832782
:10EE7000C408637BF508FE2C37470F0013070724EF
:10EE8000B347F702372600208325C6EBB566BD06DB
:10EE9000B387A7022A30D4C5AA97010001008326B0
:10EEA000C6EB0966930500F890C6372600201306C6
:10EEB00086244CA28607FCD2BD67BD07DCC6FE2CAB
:10EEC0003630B347F70263E8F60033D7F602B307EC
:10EED000F7029D8E36B0974006E0E7804056974097
:10EEE00006E0E780405D38348547E318F7F03745A2
:10EEF0000600814513050528970005E0E780809509
:10EF0000930700FD7CA4D5BD3834854703A3440393
:10EF10006317F7009545E30203EE154529A0E30EBC
:10EF200003EC954519452254B25092540259F249C6
:10EF3000624AD24A424BB24B224C4561028363582B
:10EF40000C047E3C85077EBC8347041499E322852C
:10EF5000892A2285970006E0E780E02F83270409AD
:10EF60000327C408BA972328F4083C346397470161
:10EF70002285973006E0E780000E7C3C85458507BA
:10EF80007CBCDC58E38607DA1545829755B35E3CB6
:10EF9000130700328E07B387D70293870719B3D7B9
:10EFA000E702E3FC87E5A1452285970006E0E780BC
:10EFB00060222305A40203A344038945E31F03F44D
:10EFC0002DBD5E3CFA2C330C85418E07B387E702DA
:10EFD00093870719B3D757036374FC0A832789DD26
:10EFE00082977E3C2A8C85077EBC8347041499E374
:10EFF000228545282285970006E0E780C025E31E8C
:10F0000005DE832704090327C408BA972328F408D8
:10F010007C3C13F7070F21CF2285970006E0E7809D
:10F02000A0E0A30F040083270409E379FCFA8356C8
:10F03000E4071E3C03274409B387D702B38767035D
:10F04000B3D7E702F8280607BA972312F4083C342E
:10F05000639247033E3CE3FDD7CC2285973006E020
:10F06000E78060FFDC58E38507CC8D4531BF85071D
:10F070007CBC55BFDC58E38D07CA8D45194531B7B7
:10F08000E34D0CD6A1452285970006E0E780801469
:10F090002305A40203A34403E30103D69145B5BDB0
:10F0A0008280797126D206D622D44AD04ECE52CC56
:10F0B00056CA5AC85EC68347350303447513AA84EB
:10F0C0003E941374F40F9307400263F68700130411
:10F0D000B4FD1374F40F03AA841383AAC413A38B7F
:10F0E000841222865285D68597C006E0E78060CEDE
:10F0F000058915E503CBD41201498149337B6403AB
:10F10000930B50024A865285D68597C006E0E78069
:10F1100040CC058915C5639169031374F90F238BDE
:10F120008412B250225492540259F249624AD24A8D
:10F13000424BB24B456182808509E20993D98941EE
:10F140000509E31179FDE1BF83278509723D7971D6
:10F1500093D60701BD8EC206C182358E1357764005
:10F1600093575640898B058B5D8F93573640918B13
:10F170005D8F93571640A18B5D8F93171600C18B3F
:10F180005D8F9317360093F707025D8F9317560034
:10F190009355860093F707041E065D8F1376F60FCE
:10F1A000518F93D7554013D63540118A898BD18F13
:10F1B00013D67540D18F13D61540218AD18F13965F
:10F1C0001500418AD18F1396350013760602D18F30
:10F1D00013965500137606049E05D18F93F5F50F0F
:10F1E000CD8FA20745465D8F3307C70222D42A84FC
:10F1F00026D252CC56CA032A8413832AC4135AC86F
:10F2000006D63697420741839357774013555740A8
:10F210000989858BC98F135537401189C98F1355BB
:10F2200017402189C98F131517004189C98F1315FC
:10F23000370013750502C98F1315570093558700C2
:10F24000137505041E07C98F1377F70FD98F13D5D0
:10F25000354013D755401189098B498F13D5754017
:10F26000498F13D515402189498F13951500418980
:10F27000498F1395350013750502498F1395550075
:10F28000137505049E05498F93F5F50F4D8F2207E1
:10F29000D98FB387C7024AD04ECE5EC662C4B69736
:10F2A000C207C18313D7774013D557400989058B0F
:10F2B000498F13D537401189498F13D517402189BC
:10F2C000498F139517004189498F1395370013759E
:10F2D0000502498F1395570093D5870013750504D0
:10F2E0009E07498F93F7F70FD98F13D5354013D762
:10F2F00055401189098B498F13D57540498F13D516
:10F3000015402189498F139515004189498F13951F
:10F31000350013750502498F1395550013750504C3
:10F320009E05498F93F5F50F4D8F2207D98FB3872F
:10F33000C702130650025285D685B697BD8E9394A8
:10F340000601C18033F6C402137BF60F97C006E0B6
:10F35000E78020A805890DED8347D4120149814932
:10F36000B3849702130C5002C1804A865285D68519
:10F3700097C006E0E780E0A50589937BF90F11C5EA
:10F3800063863403850993F9F90F0509E31F89FDA5
:10F39000230B6413B250225492540259F249624A28
:10F3A000D24A424BB24B224C456182805E8BCDB734
:10F3B0000111B727002022CC03A4C71E26CA4AC8C1
:10F3C0004EC606CEAA8413092500854905C09C3087
:10F3D0003830858B6304F700405CCDBF1946930538
:10F3E00044004A85EFF08FA6E31835FF2285F240EE
:10F3F0006244D2444249B249056182804111B72733
:10F40000002022C403A4C71E26C24AC006C6930415
:10F410002500054901E82285B24022449244024970
:10F4200041018280A6851305A402972006E0E780AB
:10F43000A075E30225FF405CF1BF4111B727002012
:10F4400022C403A4C71E26C24AC006C693042500D0
:10F45000054901E82285B240224492440249410113
:10F460008280A6851305A401972006E0E780C0717D
:10F47000E30225FF405CF1BF0111B727002022CC39
:10F4800003A4471E26CA06CE2AC42EC6854419E404
:10F490000145F2406244D244056182809C84183068
:10F4A000858B6304F7000044DDB719469305A1007E
:10F4B00013052400EFF08F99E31795FE0545D1BFA2
:10F4C000B727002003A7C7EB01112AC62EC432C2FA
:10F4D00006CE3C4B93E707083CCB974006E0E7801D
:10F4E00000F6B726002083A706EB3245A24523A0ED
:10F4F0000700183103482500938606EB22074208CF
:10F500004297034805004297034835006208429736
:10F5100098D75831034865002207420842970348AC
:10F52000450042970348750062084297D8D71835BE
:10F530000348A500220742084297034885004297E6
:10F540000348B5006208429798DB58350348E50048
:10F550002207420842970348C50068354297620572
:10F560002A97D8DB9831A821220742052A978821BB
:10F570002A97A83162052A9798CFD831E821220727
:10F5800042052A97C8212A97E83162052A97D8CFE1
:10F590009835A825220742052A9788252A97A83555
:10F5A00062052A9798D3D835E825220742052A977D
:10F5B000C825EC352A97E2052E97D8D3D843759BFA
:10F5C000D8C3D84313671700D8C3984313671700ED
:10F5D00098C3124698425C43858BADE71C4F0145AA
:10F5E0001CA29C429C4FA1831CB29C429C4FC18395
:10F5F0003CA29C429C4FE1833CB29C42D84F58A213
:10F60000D84F218358B2D84F418378A2D84F618315
:10F6100078B2985318A69853218318B6985341830B
:10F6200038A69853618338B6D85358A6D853218347
:10F6300058B6D853418378A6DC53E1837CB6F240B8
:10F6400005618280010079B7B727002003A7C7EBC7
:10F650001605136505083C4B93E707083CCBB72715
:10F66000002083A707EB03A7450E88C398CB03A709
:10F67000850E0145D8CB03A7C50B98CF03A7050C72
:10F68000D8CF03A7450C98D303A7850CD8D303A7DD
:10F69000C50C98D703A7050DD8D703A7450D98DB50
:10F6A00003A7850DD8DB03A7C50D98C703A7050ED3
:10F6B000D8C798431367070498C38280B7270020F0
:10F6C00003A7C7EB1605136505083C4B93E707082E
:10F6D0003CCBB727002083A707EB03A7C50E88C341
:10F6E00098CB03A7050F0145D8CB03A7C50B98CF2F
:10F6F00003A7050CD8CF03A7450C98D303A7850C07
:10F70000D8D303A7C50C98D703A7050DD8D703A74F
:10F71000450D98DB03A7850DD8DB03A7C50D98C75A
:10F7200003A7050ED8C798431367070498C3B727E4
:10F73000002093878724130700F8F8A382803727D7
:10F740000020832647EB411126C29C5E06C622C4D8
:10F7500099834AC0858B930447EBB1CB930700068E
:10F76000372900209CDE834789241304892493F7DA
:10F77000070489CFB727002083A787DD829708C8B1
:10F780008347892493F7F70B2304F9245C2093F72C
:10F79000070491EF85475CB0B727002083A7C7EB2C
:10F7A000096798C7130700FC58A05844F8D398403D
:10F7B0001C5F9183858B89CBC1471CDFB727002055
:10F7C000938787248546D4A31C5F9D83858B91CB2B
:10F7D000930700081CDFB72700209387872405477D
:10F7E000D8A3B727002083A707EBD8430583058B51
:10F7F00019C7D843759BD8C3D843799BD8C3B240A7
:10F8000022449244024941018280B727002083A606
:10F81000C7EBB7270020938787249823058B11C750
:10F8200023820700A382070082809833058B6DFB3B
:10F83000F85265F7D833FDB737280020032748EB87
:10F840001C5F9583858BBDE701C61C5BBD831CA235
:10F850009DC6832748EB985B46079357670163561D
:10F86000070093E707C0C207C18303970600C207DA
:10F87000C18709C7BA970947B3C7E7029EA285C1E6
:10F880001C3191CF3E951C350547194593F6F70677
:10F890006393E602E207E187394563CE07008327D9
:10F8A00048EB3727002001459C5FED838D8BA30932
:10F8B000F724828005458280411122C406C6372480
:10F8C000002026C20327C4EB3DE5AE877453FDFE3E
:10F8D000B7240020938484243E85B28523810400CC
:10F8E000974006E0E780E094B727002083A747EB26
:10F8F000B70680009843558F98C3D857719BD8D7C7
:10F900008327C4EBA3820400A3800400094798C3A3
:10F910008326C4EBB727002093878724B823058B61
:10F9200011E7B833058B51C723820700B240224448
:10F930009244410182808D47631FF500B727002064
:10F9400083A747EBB70680009843558F98C3D857D5
:10F95000719BD8D775BF8547E31CF5FAB567BD071E
:10F960005CC7010001008327C4EB0967930600F818
:10F9700098C7372700201307872454A33727002070
:10F98000832647EB0946984231830D8B6319C700E4
:10F990001307E043F8D33D673D07D8C795BF9842AA
:10F9A00031830D8B01E713076019EDB71307E01BD7
:10F9B000D5B7F85225F79DBF5D7152DC372A00207C
:10F9C00003274AEB86C6A2C4A6C2CAC04EDE1C43A9
:10F9D000B72900203729002093F7F7E793E70708B6
:10F9E0001CC383A649EC3707CEFF7D179C46130640
:10F9F00080022A84F98F9CC68327C9EB2800AE8435
:10FA000023A8070493051008EFE0FFBE974006E027
:10FA1000E780E0A2974006E0E780E0A983274AEB71
:10FA20009376F41F3706330023A40700984B370F53
:10FA3000FCFF4E881367F70398CBF84FCA8813056D
:10FA400010F8137707E0558FF8CF9843F576FD1639
:10FA5000758F98C3372700208326C9EB13078724A7
:10FA6000A3020700A3000700054798C29843D28568
:10FA7000B70204001377F7E798C398439303401F36
:10FA800011491377F7E71367071098C303A749ECE9
:10FA90007D1F85491C47930F8002D18F1CC7930798
:10FAA0009005BCCA0147340013533700269383479F
:10FAB000030013767700B3D7C740858BE1C383A7D4
:10FAC00045EB832E48EC239C07042390070603AEE6
:10FAD000CE02137EDEFF23A6CE0383AE0700137E85
:10FAE000F70793FE0EF833EECE0123A0C70103AE55
:10FAF0004702336E5E0023A2C70383AEC8EB014EFC
:10FB000023A27E0603DA070663074E0303AE07034C
:10FB1000038A0600135EFE00620E135E8E41635878
:10FB2000CA0103AE0703135EFE002380C60103DE95
:10FB30000706137EFE0F03AA4E0663060A0003DAC9
:10FB40008705E37F49FB03AE4702337EEE0123A224
:10FB5000C70383870600635CF400034E03003396FB
:10FB6000C9001346F6FF3376C6012300C3003E8664
:10FB700063D3A7002A8613158601618505071377CD
:10FB8000F70F8506E312F7F3B6402644964406497C
:10FB9000F259625A61618280372600208327C6EBC2
:10FBA0001306C6EBD8479316170163D2060298478F
:10FBB0009316170163DD06007D57B8D7372700205D
:10FBC000130747F9544F850654CF116798C79847D4
:10FBD0000D83058B11CF372700201307872434238B
:10FBE00093E6160034A3930600F854A3214798C760
:10FBF0009847058B19CB3727002013078724143328
:10FC000093E6160014B3054798C798470983058BF8
:10FC100009E798470583058B31CB944737270020A8
:10FC2000372500208982858AFDCA832645EB9442C8
:10FC3000B1828D8AF5E2AC4B93068724944E93F5FE
:10FC400005029432C5C5F1E69306D005D4CF8346AC
:10FC5000872493E616002304D724114798C7032767
:10FC600045EB5C57F19B93E717005CD718421C47A4
:10FC70009396370163D40602B72700209386871333
:10FC800003C6C60693878713418A55C283C7C60633
:10FC900093E707022386F60685671CC71C479396E1
:10FCA000270163DF0600B727002093878724D4232A
:10FCB000E206E18663D406008546D4A389671CC7A3
:10FCC0001C479396070163D20602B727002093874B
:10FCD000871383C6D706858ABDCA83C6D70693E62F
:10FCE0002600A386D706A1671CC78280B1DE8545A2
:10FCF0006395B6009306100691BF89456395B600DB
:10FD000093065006A1B78D456395B60093069006FD
:10FD100035BF9306B0061DBF9306C00605BF130787
:10FD20008724343393E6160034B3094705BF83C6EE
:10FD3000C7060946BD8A6388C60083C6C7060D4646
:10FD4000BD8AE39BC6F491462386D706B1B783C626
:10FD5000D706918AC9DA83C6D70693E6860051B7DB
:10FD6000B72600203727002093874628130647260A
:10FD7000303EDC379386462813074726B29793F721
:10FD8000F70F7D46636DF6021CB31C33484B0546E6
:10FD90003316F600DCB6698E1DEA903A13080002AD
:10FDA000814633F6C7028147B355F500858993F83C
:10FDB000F70F99C96317D600A30017018280811736
:10FDC000E1B7850693F6F60F8507E39F07FD82806E
:10FDD000B727002083A787DD011122CC26CA4EC693
:10FDE00006CE4AC88297B7240020938744288047CC
:10FDF00081496300A4043727002093074726BC2FBE
:10FE0000018D13545500938444289379F501130907
:10FE10004726636DF400A9370347A901944493175B
:10FE20005700BE96198C94C4E377E4FE1604B369B8
:10FE30003401F24062444E85D2444249B2490561E0
:10FE40008280B727002083A787DD411122C44AC0E2
:10FE500006C626C282973729002093074928804783
:10FE60006307A404B724002093874426BC2F018D88
:10FE70001354550013094928938444266369F402F6
:10FE8000C535BC2C032789009396570036971D8CE7
:10FE90002324E900E376F4FE22448830B240924401
:10FEA000024981454101174306E0670063ACB24057
:10FEB00022449244024941018280B727002003A7CF
:10FEC00047ECB75702009387079F832607091396CD
:10FED000560063580600832607091396660063449C
:08FEE0000600FD17FDF382800E
:10FEE800B72700203727002083A787DB032707DBF6
:10FEF80001456313F7008280F62399E2D6233695ED
:10FF08009C43C5BFB727002083A547F537270020A6
:10FF1800938747F513860522232CC7DADA239387BC
:10FF280085FFB72600204111BA97056523A8F6DAA0
:10FF380006C61D05935637006374E5009306002036
:10FF48003307D60037250020232AE5DA23A0E52247
:10FF5800E11656A2231306001CC3998FE1175EA36E
:10FF680023130700B53FB240B7270020239DA7F809
:10FF7800410182801DC18346E5FF1307F00F9147B9
:10FF8800639EE600411106C69700FB1FE7804016F6
:10FF9800B24081473E854101828095473E858280F7
:10FFA80001E9014582800145B24022444101828035
:10FFB80095654111938505D022C4C98D2A842105F0
:10FFC800C2054205C181418106C69700FB1FE78033
:10FFD800E00671D9FD572320050042A17CA1210527
:10FFE800E1B7ADC1B727002083C757F9411122C433
:08FFF80006C62A842E856375FC
:020000025000AC
:10000000F400894763E88700953F0D45B2402244DC
:100010004101828083A785FF99E703C7E5FF930726
:10002000F00F6305F700993F1545CDB73725002040
:10003000238F85FE1305C5DB9700FB1FE780001BA0
:1000400022852244B240A165410179A215458280F2
:10005000B727002023AE07DA8280C1C1797122D48C
:1000600006D626D24AD04ECE01444147B3D785406A
:10007000858BB9CF1205314722953305E502B727A5
:10008000002003A947DC8544B3948400C204C180E6
:10009000938947DC2A990327090011C703254900E2
:1000A0002EC60297B24531473304E40283A7090004
:1000B0003E941C4489E72320090023220900B25002
:1000C0002254A58D02599254F2492E8545618280B1
:1000D0000504E31DE4F88144DDB72E8582804111DB
:1000E0001397050122C406C626C24AC041872E8442
:1000F000635107029700FB1FE780E01011C1BD3D6F
:10010000A1673D8C2285B2402244924402494101BC
:100110008280EDD9AA8701474146B356E440858ADB
:100120009DCA9207BA97B146B387D702B726002077
:1001300003A946DC8544B394E400C204C1803E991F
:1001400083270900032549008297232009002322E1
:100150000900258C45BF0507E311C7FC8144D5BFC5
:10016000B727002083A787F7411122C406C637248A
:100170000020130484D791C782971C403E9508C085
:1001800031A0B727002083A787DDFDF70840B747D8
:1001900003009387D73F3305F502B7A7260093875F
:1001A00037ECB2403E9508C0224441018280B72717
:1001B000002083A7C7DC411122C406C637240020D3
:1001C000130444F989C782975C483E9548C848485B
:1001D000B240224441018280B727002083C757F9EB
:1001E000637EF5003727002093171500032507DCF1
:1001F0003E951E21DD8D0EA1014582800D45828038
:10020000B727002083C757F96370F502372700200E
:1002100093171500032507DC93C5F5FF3E951E21B6
:10022000FD8D0EA1014582800D45828001114AC8D5
:1002300006CE22CC26CA4EC652C49307F002094904
:1002400063EEA706B146B306D502B727002003A781
:1002500047DC094936971C43B5C3135A450005448A
:100260003D893315A400131405014180AE845285E5
:10027000A2859700FB1FE7806000AA8901491DCD78
:10028000A2855285B53FB727002083A787DD8297D7
:10029000B727002083D727F72A8413060064338703
:1002A00097028146B3B7970213050732B335E500CD
:1002B000BE95EFC0910D229523A4A900F24062449F
:1002C0004A85D2444249B249224A05618280B72711
:1002D000002083C757F96364F5000145828001114E
:1002E000B727002052C403AA87DD06CE22CC26CA37
:1002F0004AC84EC6630D0A0837290020130949F57C
:10030000AE898355E9012A84B284B387C502814648
:10031000B3B5C50213850732B337F5001306006481
:10032000BE95EFC09106B74736FE9387F7C763E0E7
:10033000A706029A8355E9012A8A13060064B38747
:1003400095028146B3B5950213850732B337F500A0
:10035000BE95EFC091032A9ACE8522859700FB1F98
:10036000E780C0F109C523244501054515A0936523
:1003700004F0C205C18141459700FB1FE78080CC96
:1003800005E18327490381C7A2851145829701456D
:10039000F2406244D2444249B249224A0561828015
:1003A00037270020130707DD1C4399EF08C3854753
:1003B00023260500232445012311350100A11CB18A
:1003C000232205005DB7BA87D84775FFC8C7C5B7F0
:1003D00041CD797122D426D24AD04ECE52CC56CAC3
:1003E0005EC662C466C206D65AC8B689B28A2E8A6A
:1003F0002A899304000C4144372C0020854C930B30
:100400000003130B4CDC83270B00A6979C43A9E742
:100410009375F400B395BC00C2055686C18113558F
:100420004400753515C983270B000145BE9423A0F0
:10043000240123A244016384090023808900B2506F
:10044000225492540259F249624AD24A424BB24B68
:10045000224C924C4561828005041374F40FB10460
:10046000E31174FB2145E1BF09458280411122C49B
:1004700026C24AC006C62A842E89B284893DCA850E
:1004800022859700FB1FE78060DF05CDB72700209E
:1004900083D527F72A8413060064B3879502814623
:1004A000B3B5950213850732B337F500BE95EFC09B
:1004B000C16D48C00145B240224492440249410105
:1004C00082802145CDBF411122C426C24AC006C642
:1004D0002A892E849700FB1FE78040DAAA8419C17D
:1004E00023110500A2854A85213BB727002083C739
:1004F00047F963992701B7270020938787DC9A2360
:10050000598C82A3014591E01945B240224492449E
:100510000249410182809307F00263E8A704411178
:10052000B14722C43304F50226C2B72400209384C5
:1005300044DC9C4006C6A297984389470DC3937735
:10054000F5008545B395F500C205C1811181A53F30
:100550009C40A29723A0070023A207008147B24036
:10056000224492443E854101828089473E858280B3
:10057000411106C622C49700FB1FE78020D011E579
:100580000145B240224441018280B727002083A761
:1005900087DD00458297B74736FE3305A440938731
:1005A000E7C7E3EFA7FC93070064B335F5023727ED
:1005B0000020035627F781463305F502EFC0E15CC2
:1005C000C9B74111B727002006C623A6A7DC0295AC
:1005D000B240B727002023A6A7FA01454101828037
:1005E000994763EAB70093972500B72500209385C4
:1005F000C5FBBE9588C18280B727002023A807DCF1
:1006000037250020B7270020411123A607DC7146BB
:10061000B727002081451305C5FB06C623AC07DCC0
:1006200022C426C29700FB1FE78020D63725002072
:10063000130680028145130445F9130545F9970017
:10064000FB1FE78080D4D930B727002083C797F6F7
:100650008545B724002013D527008D8B3E958D4707
:100660003305F5029947938444DC39051375F50F7A
:1006700028A03305F502130505249700FB1FE7802A
:10068000609C88C03DC93020994781453306F602F9
:10069000130606249700FB1FE78020CF9C403820DC
:1006A000B724002093870724938444DD0A079CC065
:1006B000BA97372700202320F7DC593A7D261C30D3
:1006C0009440370605001397270036971306A605B2
:1006D00010C3138717001377F70F0A0737060500B3
:1006E00036971306E60D10C313873700890793F773
:1006F000F70F8A0718B0B69790C3B24022449244CD
:100700004101828037270020130747F91C33342327
:1007100063FFD700B726002083A646DD13861700A7
:1007200010B313972700369708C33E85828093073E
:10073000F00FE5BF1C41F5C341777D8FB706002060
:100740008947631DD70C5A2171CB411126C2194626
:10075000AA849305F00F610506C622C44AC097001B
:10076000FB1FE78020CC05478D476301E50A9C44C9
:1007700091C7985C994759CBD85C49CB3724002066
:10078000130600048145130544F59700FB1FE7801D
:10079000C0BF13060004A685130544F59700FB1F90
:1007A000E78060BB130944F50357C900930744F57C
:1007B00001E713070010DAA7F82719E30547F8A7A0
:1007C0009A2B19E36D479AABF83719E31547F8B739
:1007D000B82B19E30547B8ABB83B19E3F837B8BBFA
:1007E000D82B19E32547D8ABF83B19E35147F8BBA1
:1007F000F82801E71307C003F8ABDC5791C78297CD
:10080000B7270020239EA7F8C53B8147B24022446A
:10081000924402493E854101828089473E8582801B
:10082000B727002083A787DD011106CE22CC26CA78
:100830004EC64AC88297B727002083D927F7930767
:100840000064B335F5024E8681463305F502EFC0EC
:10085000C133B7270020138747F9004FAA84014509
:1008600063049402138947F933858440636C9400D0
:100870004E8681461305009C9305F063EFC0E1307E
:10088000018D2695232C9900F2406244D2444249BE
:10089000B24905618280011122CC2E84B7D50600B1
:1008A0000A854146938505FD06CEEFC021671808ED
:1008B00006043A94B7270020035504FF83D747F76F
:1008C000F2406244AA9737450F00130505243355BB
:1008D000F50205618280B727002083D747F751478B
:1008E0001D45637CF702794719456378F7021307C2
:1008F000200315456373F7021307B0041145637EA7
:10090000F700130740060D456379F70013076009E8
:1009100009456374F70013B5B70F8280011122CC2B
:1009200006CE2A842EC6EFF0BF83B245F240818DF9
:1009300033A5A502229562441375F50F05618280E7
:10094000011122CC06CE2A842EC6EFF07F81B2455B
:10095000F240818D33A5A502229562444205418172
:1009600005618280011122CC06CE2A842EC6EFF0CA
:100970002FFFB245F240818D33B5A5022295624426
:1009800005618280B7270020138747F5585739CF74
:10099000411122C426C24AC006C6138947F50297F0
:1009A000B7270020138747F91A272A84938447F929
:1009B00005CBBA876373A700AA87C207C183BA862B
:1009C0006373E400A286C206C182958F51476359C2
:1009D000F7008327090391C38297EF40B13C82A4BB
:1009E000B240224492440249410182808280011136
:1009F00022CC37240020930744F59C5B06CE1304D9
:100A000044F581C72AC6829732450DC57A2C8547A1
:100A100009CF1A3019CBB727002023ACA7DC371534
:100A2000050013050582713E8147F24062443E8510
:100A300005618280B7270020938747F923AE07001E
:100A4000E17793C727A17EAC930720031EB07D57A3
:100A5000B747024023A4E726B70700203727002026
:100A60009387E76A232CF7DC5DBF011122CC372482
:100A70000020930744F5884706CE26CA4AC801E9F4
:100A80000545F2406244D244424905618280130424
:100A900044F51C5CF5D7585C65D770008545829796
:100AA0001844B247E30EF7FC4A249305E004B72448
:100AB000002097F0FA1FE780E058138744F908D325
:100AC000938444F955DD52249305F00F01499700B2
:100AD000FB1FE780808B7C249050634DF9003285AA
:100AE00097F0FA1FE7804061014523A0040223A28A
:100AF000040241BF4E240844585CB3872503898112
:100B000005093E9508C20297F9B7411122C437245E
:100B10000020930744F59C4726C206C6B724002050
:100B20004AC0938444F991EB885039EDB240224495
:100B300092440249014541018280130444F55C5C02
:100B4000E5D79C5089EB4A249305E00497F0FA1FFF
:100B5000E780404F88D0885061D952249305F00F28
:100B600001499700FB1FE78040827C249050E35DA1
:100B7000F9FA4E241C4433852503898105093E95E5
:100B80005C5C08C28297D5B797F0FA1FE780C05621
:100B900023A0040223A2040251BF01114EC6B729AB
:100BA0000020938749F59C4726CA4AC852C406CEFE
:100BB00022CC56C25AC02A8AAE8432896388071E64
:100BC000938949F503A78903630207121307F01FEE
:100BD0006360A71237240020130744F9832A070211
:100BE000130444F963980A0803D5C90095659385F1
:100BF00015E097F0FA1FE780E04408D02A867DC50B
:100C000083D5C90083A7890303A5890089818297B9
:100C100083A78900832A04025CD089476314FA08F9
:100C2000C1476395F40C83D5C9009147938505FCB2
:100C3000B3C5F5028A05D695B8219307A0056313BD
:100C4000F70A9E216390470B4A852686910597F007
:100C5000FA1FE78040701C50568563915713014579
:100C6000F2406244D2444249B249224A924A024B7B
:100C7000056182805850E382E7FA03D5C900956583
:100C8000938525E097F0FA1FE780C03BAA8A39CD0B
:100C900083D5C9002A8683A7890303A58900898192
:100CA0008297A5BF8D47631BFA00C1476390F40488
:100CB00083D5C900938545FDF199B5BF9147631868
:100CC000FA006395440383D5C900A115F5B79307CE
:100CD0000010631DFA00A14763EA970083D5C9009D
:100CE000C115D9BF1C505685639D570B29458DBF33
:100CF0009D6A637A5509930A05E01947B3CAEA0267
:100D000003D7C900372B0020B38AEA02BE9A9307A3
:100D10004BF9DC53130B4BF96395570103240B027A
:100D20001DE003D5C9009305E00497F0FA1FE780A2
:100D300060312A8445DD83D5C90083A789032A86CB
:100D400089815685829791451307A00589819397DC
:100D50002500A297B4236391E6049623639C46037F
:100D600085058A052686A2954A8597F0FA1FE780B1
:100D7000805E83270B02E38487EE228597F0FA1FBB
:100D8000E7808037E9BD21677917E361A7F6B30AE9
:100D90005541BDB7AC335DBF83270B02E38887F4B1
:100DA000228597F0FA1FE780203589B7B727002002
:100DB00083A547FB85DD91479306A005898313979B
:100DC00027002E973023E313D6F21223631C46012B
:100DD00085078A072686BE954A8597F0FA1FE78021
:100DE0008057B5BD3C33D9BFB7270020938747F55F
:100DF000984721C3D85F15CF8546631CD5024111A2
:100E000022C437240020130444F9105006C611CE22
:100E1000CE27485089810297085097F0FA1FE78043
:100E2000A02D2320040223220402B24022444101C7
:100E300082808280011122CC37240020930744F560
:100E400056C283AA870026CA4AC84EC606CE52C4D6
:100E50002A89AE84B289130444F5638D0A1A5C5C56
:100E600099EB2945F2406244D2444249B249224AB0
:100E7000924A056182801C5CEDD79307F01F63E105
:100E8000A70C372A002093074AF99C53130A4AF902
:100E9000A9C7084483274A02639CA70489476313B0
:100EA000F906C147E39FF4FA4A249147130505FC6C
:100EB0003345F5029317250003250A022686CE85C1
:100EC0003E959307A0053CA123102501110597F03D
:100ED000FA1FE7804048014571B74A249305E004B2
:100EE00097F0FA1FE78000162320AA025DF195BF54
:100EF0004E241C5C03260A02898182971C4423220B
:100F0000FA0269BF8D47631BF900C147E39BF4F404
:100F10004A24130545FD9377C5FF79BF91476317B1
:100F2000F900E39024F54A242115F5B79307001042
:100F3000E319F9F2A147E3E697F24A244115E1BF2C
:100F40009D676375F506930705E01947B3C7E70288
:100F50005A24372A0020B387E702BE9A93074AF93A
:100F60009C53130A4AF9B1CB83274A02639257076D
:100F700003250A0291461308A0059305F00F93D7A5
:100F80002600139727002A973023631206078358F9
:100F90000700303363992805B306D64063C496042E
:100FA00085078A072686CE853E9515B7216779176E
:100FB000E369A7EAB307F54061BF4A249305E0045B
:100FC00097F0FA1FE78000082320AA0251FD51BDC7
:100FD0004E241C5C03260A028981568582972322AF
:100FE0005A0379B70EA393160601C18249BF522452
:100FF000B38596009105130606FCE3F4C5E6138657
:101000003400719A1106B2962301070123102701BB
:1010100034B379B7372A002093074AF99C53130A4F
:101020004AF995CF03250A0291461308A0059305B6
:10103000F00F93D72600139727002A9730236310C9
:10104000060583580700303363972801B306D6405E
:10105000E3D896F40EA393160601C182D9BF682483
:101060005E249305E0043305F5024205418197F0C3
:10107000FA1FE78020FD2320AA024DF5DDB352249C
:101080006C24B385C502338696001106E3EBC5DCFC
:10109000BDB7014582809C211CA1BE211CB1BE218F
:1010A000A1833CA1DC213CB111458280B7270020FF
:1010B00023A007DEB727002023AE07DC82800DCDFA
:1010C000411126C206C622C4AA8401458DC12E84C0
:1010D000B7D5060022854146938505FE97F0FA1F95
:1010E000E78060279C2005455CA49C305CB4B2403E
:1010F000224492444101828001458280011122CC28
:1011000026CA06CE0947AA8432846381E504414693
:101110008147639BC500638FE6006397B6000DA807
:1011200041478147638EE600F2406244D2443E85E7
:10113000056182808A852285593741468A8519A8AA
:101140008A85B53F41468A85228531A0E39AB6FC5F
:101150002E86A285268597F0FA1FE7806028AA8749
:10116000E1B7B727002023AEA7DC8280B727002095
:1011700023A0A7DE8280011122CC622106CE26CADE
:101180004AC84EC62DCC83298500AE842A8803C95F
:101190000900814713178901618763550702B14729
:1011A000054563F787045114420403552800418024
:1011B00033878900A2864E868545EFC0605CB337D1
:1011C000A00085077D141355690042040589137931
:1011D000F90341809CA088B023812401C2A001476B
:1011E00019C01387190098C409476383E7000145B4
:1011F000F2406244D2444249B249056182800545C9
:10120000C5BFC167F917630AF502D94763F7B7028B
:10121000011122CC2EC606CE2A84EF80007CB24576
:101220006368B50022856244F24005616F90306AC0
:10123000F240624405450561828005458280C167B0
:10124000F9176314F5006F804079411106C6EF90DD
:10125000905611E15D45B240410182809147639D06
:10126000F5001C211CA23C211831A207D98F3EA2F7
:101270003C3101455CA2828011458280411181454B
:1012800022C426C206C6AA84BD232A8409E9B72738
:10129000002083A7C7DD81C7F9452685829722856F
:1012A000B240224492444101828039714ED656D2D6
:1012B0005AD006DE22DC26DA4AD852D4AA8A2E8BED
:1012C000B28951EB36C6A53F9145EF80A07FAA8435
:1012D0004D493DC5B246054A238034010544630AA1
:1012E0000B00B68513851400029B05051314050138
:1012F0004180E20993D9894163D30902C1455685EA
:10130000EF90D059654915E533868400A28526857E
:10131000EFC000092A8911ED310442044180914750
:101320002C085685FC8426CEE085EF9060712A89D2
:1013300001C963070A00268597F0FA1FE780C0DB22
:10134000F25062544A85D2544259B259225A925AA2
:10135000025B21618280BA84014ABDBF011122CCA7
:1013600026CA4AC84EC606CE2A893284B689353F77
:10137000AA840DE1B727002083A707DE81CF0547A8
:101380006317E40003C4090005041374F40FA28575
:101390004A858297F240624426854249D244B24946
:1013A00005618280AE86B715050001470546938525
:1013B00065096DB79E211CA19E21A1831CB1094521
:1013C00082809E211CA19E21A1831CB1BE213CA133
:1013D000BE21A1833CB1114582809E211CA19E218A
:1013E000A1831CB1BE213CA1BE21A1833CB1DC3153
:1013F0005CA1FC215CB18A251905420541818280EE
:101400009E211CA19E21A1831CB1094582809E21A1
:101410001CA19E21A1831CB1BE213CA1BE21A183A0
:101420003CB111458280CA21060542054181828076
:101430009E211CA19E21A1831CB1AA210905420560
:10144000418182809E211CA19E21A1831CB1BE21CD
:101450003CA1BE21A1833CB1CA21110542054181B5
:1014600082809C211CA1054582809E21411122C4BD
:1014700006C61CA19E212E841105A183A30EF5FE94
:10148000BE219505230FF5FE83D7D5FFA183A30FBA
:10149000F5FE03C6F5FF97F0FA1FE780C0EB482082
:1014A000B240224411054101828089476399F500C9
:1014B0001C3118210145A207D98F1EA28280114537
:1014C00082809A21D94763FDE702011122CC06CE22
:1014D0002EC62A84EF806050B2469E22636DF500CE
:1014E00022856244F240B7150500014709469385FD
:1014F000453B05615DBBF240624409450561828060
:1015000009458280914785C51421FD15C20585478F
:10151000C1816390F60213D725008D89914781E937
:10152000914711C7050534A21AA248C281473E85DA
:10153000828009479147E39CE6FEC94733D7F5020D
:10154000B3F5F502E1BFAE86B715050001471146B8
:101550009385253C99BB93F7350089EB89819147A9
:1015600081C50EA248C281473E8582809147EDBF6A
:10157000D8218947631CF702011122CC2A84C8456F
:1015800006CEAE86014709C92EC69D4597F0FA1FC3
:10159000E78040C2B2462A8722856244F240B715EE
:1015A000050019469385A53D056101B30945828073
:1015B00099E1114582801C2105473EA2E37BF7FE9D
:1015C000FD1593F5F50F33D7F502B387E702E392E4
:1015D000F5FE050548C21AA201458280DC210947B3
:1015E000AE866385E70041476399E700B7150500BC
:1015F000014721469385A5464DB9094582800EA233
:1016000091E1014548C201458280AE86B7150500CB
:10161000014729469385054049B90EA291E101454C
:1016200048C201458280AE86B715050001473146A4
:101630009385E5409DB90EA291E1014548C201455F
:101640008280DA21854763FFE702011122CC2A84D8
:10165000884106CE1DC12EC6854597F0FA1FE7804A
:1016600060B52A8722856244B246F240B71505006C
:1016700039469385654205610DB9F24062440945DA
:101680000561828009458280914785C518218D4674
:10169000914763F0E602FD15C205C181B3C6E502BC
:1016A0003308D70263970501050516A23AA248C27E
:1016B00081473E858280DC210947AE866385E7004D
:1016C00041476399E700B7150500014741469385F7
:1016D000A546E1BE09458280B335B00013952500CB
:1016E0008280011122CC26CA06CE98258547AA847D
:1016F0002E844946631FF70099363E20491513068C
:10170000200963C8A700F2406244D244094505613C
:101710008280183485476314F70013660604484036
:1017200001C98D4532C697F0FA1FE780A0A832465E
:10173000A2866244F2402A872685D244B715050066
:1017400093850543056195B68D4763F8B7021C3153
:101750001821F115A207D98F1EA23C313821C205EC
:10176000A207C181D98F3EA24EA289C5110508C624
:101770000145828023240600E5BF114582800111C6
:1017800022CC2A84884506CEAE8601C92EC6954550
:1017900097F0FA1FE78000A2B2462A8722856244AA
:1017A000F240B71505005946938545440561F5BCDF
:1017B000B335B000139525008280AE86B7150500BD
:1017C0000147614693852546CDB48547114563F0B1
:1017D000D7021C320C22A207CD8F1EA39387E6FFEF
:1017E0003EA389476386F600090650C301458280FF
:1017F00023220700E5BF014781467946814575B43C
:101800009E211CA19E21A1831CB109458280BC217F
:1018100005471CA18A216397E7000A0505054205D3
:1018200041818280C9473305F502CDBF8A210A056F
:10183000420541818280BE211CA18A21BE2133053F
:10184000F50205054205418182808A2182808A2134
:1018500082808A218280BE211CA18A21BE2133057B
:10186000F50205054205418182809E211CA19E2131
:10187000A1831CB1BE213CA1BE21A1833CB1CA21E0
:1018800011054205418182809E211CA19E21A183D8
:101890001CB1AA2109054205418182808947114571
:1018A0006398F6001C3214220145A207D58F1EA3AF
:1018B00082809A21D947AE8663F9E700B7250500F3
:1018C00001470D469385058051BC0945828011452D
:1018D000639DA6001C3214220145A207D58F1EA3CA
:1018E0003C323422A207D58F3EA38280BC2105471B
:1018F000FD1793F7F70F6361F7049E2195CF011150
:1019000022CC2A84C84106CE1DC12EC6894597F037
:10191000FA1FE780208A2A8722856244B246F24075
:10192000B725050015469385E580056105BCF240A5
:1019300062440945056182800945828095471145C9
:1019400063F1D706411122C426C24AC006C61C3222
:10195000BA841822A2073284D98F9EA03C32382242
:1019600093054400A207D98FBEA08947DCA0094691
:1019700013855400368997F0FA1FE780C09D9307BE
:10198000A9FF9EA49947631BF90023A60400B24057
:101990002244924402490145410182801904C0C495
:1019A000FDB782809E2195CF011122CC2A84C841A7
:1019B00006CE1DC12EC6854597E0FA1FE780807FC1
:1019C0002A8722856244B246F240B72505001D46AB
:1019D0009385C582056159B2F240624409450561AB
:1019E0008280094582809947639DF60289474111AB
:1019F00006C65CA31C321422B285A207D58F1EA393
:101A00003C3234225023A207D58F130557003EA342
:101A1000910597F0FA1FE7800094B240014541011B
:101A20008280D14711456394F600C147C9B78280CF
:101A30009E219DCF011122CC2A84C84106CE05C526
:101A40002EC6894597E0FA1FE780C0762A8722854F
:101A50006244B246F240B72505002546938565836A
:101A600005616FF0BF8FF2406244094505618280D5
:101A700009458280894711456398F6001C3214227B
:101A80000145A207D58F1EA38280011122CC2A8492
:101A9000C84106CEAE86014709C92EC6854597E0E6
:101AA000FA1FE7802071B2462A8722856244F240FD
:101AB000B72505002D469385A58405616FF01F8A23
:101AC0001145639DA6001C3214220145A207D58F43
:101AD0001EA33C323422A207D58F3EA3828001117F
:101AE00022CC2A84C84106CEAE8601C92EC68545C1
:101AF00097E0FA1FE780006CB2462A87228562448D
:101B0000F240B725050035469385E58405616FF001
:101B1000FF8493F71600114581EB89476386F60031
:101B2000858256A310C301458280011122CC2A84EC
:101B3000C84106CE05C52EC6854597E0FA1FE78049
:101B400060672A8722856244B246F240B7250500C5
:101B50003D469385258505616FF05F80F2406244C4
:101B60000945056182809E219DCF011122CC2A84E6
:101B7000C84106CE05C52EC6894597E0FA1FE78005
:101B800060632A8722856244B246F240B725050089
:101B900045469385658505616FF04FFCF2406244D0
:101BA00009450561828009458280854763F6D70231
:101BB00008A70CB71C320C22A207CD8F1EA3938757
:101BC000E6FF3EA389476386F600090650C3014538
:101BD000828023220700E5BF1145828001478146AC
:101BE0004D4681456FF08FF78D47114563F4D7025D
:101BF0001C320C22A207CD8F1EA33C322C22A2073E
:101C0000CD8F3EA39387C6FF5EA36386A600110611
:101C100010C70145828023240700E5BF011122CCB3
:101C20002A84884506CEAE8601C92EC6954597E022
:101C3000FA1FE7802058B2462A8722856244F24084
:101C4000B72505005D469385A58605616FF00FF108
:101C5000854711456395F6001C2201451CA382802F
:101C600001478146654681456FF04FEF011122CC57
:101C70002A84C84106CEAE86014709C92EC68D45C5
:101C800097E0FA1FE7800053B2462A872285624414
:101C9000F240B72505006D469385858805616FF094
:101CA000CFE0011122CC2A84C84106CEAE8601477E
:101CB00009C92EC68D4597E0FA1FE780A04FB246AE
:101CC0002A8722856244F240B72505007546938530
:101CD000858805616FF06FDD011106CE2EC6EF908D
:101CE000A02919C5B245F2402A2105616FC0E05410
:101CF000F240494505618280B7270020A38607E0AE
:101D0000B7270020238607E0B727002023AA07DE95
:101D1000B727002023AC07DEB727002023AE07DE5D
:101D2000B727002023A007E0B727002023A807DE5D
:101D3000B727002023A607DEB7270020938787FD5B
:101D4000370684033707B40090D337C6070098C31B
:101D5000130606B83747A000D8C3D0D33707100002
:101D600041669306070AB70550009308060194C719
:101D700023A4170393860501930816F8D4C723A656
:101D80001703B706D007B7087F00130807051385A8
:101D90000601410723A81703B0C3930816009386D2
:101DA000060513861500D8CBF8C323A8070188CFF2
:101DB00023AE070023AA170323AC070223AE0702B2
:101DC00023A40704F0C7B4CB23AA0704ACCF23AEE7
:101DD0000705B8D33707A000F8D71307000AB8DB08
:101DE0001307C01CF8DB7D57E8D323A40706239C08
:101DF000E7068280011126CAAA84214522CC06CE9C
:101E00002E8432C636C43AC2EFE00F9A0DC5A24600
:101E100012473246930700FD1CA1994704B13CA12B
:101E200074A178B152A1AA8522856244F240D244BD
:101E300005616FE08F9BF2406244D244056182806D
:101E4000B727002023AAA7DE8280B727002023AC73
:101E5000A7DE8280B727002023AEA7DE8280B727C7
:101E6000002023A0A7E08280011122CC4AC806CE20
:101E700026CA2A890144B30489006368B400F24089
:101E80006244D2444249056182802EC6EFE04FADE4
:101E900093170501C183A183B2459CA09307140049
:101EA00093F7F70F850463F8B700CA97090488A36E
:101EB0001374F40FC9B73E84C9B7411122C4372443
:101EC0000020130444056A20C16706C6FD17630E8F
:101ED000F500B727002003C68712B7250020938599
:101EE00045E0EF80906BFD577EA0B2402244410157
:101EF000828009C925151375F50F1335850E134515
:101F0000150082800145828023900500C1C6797149
:101F100022D426D24ECE52CC5AC806D64AD056CA61
:101F20005EC63684328AAE892A8B814463F24407C6
:101F3000B30794009C23138914004209939A070164
:101F400093DA0A011359090163840A04CA976341A9
:101F5000FA04B307240183CB07005E85593F0DC9FE
:101F60009387FAFF2390F90063906B031305190020
:101F70002295B250225492540259F249624AD24AEE
:101F8000424BB24B45618280D694C204C18079BF76
:101F90000145C5B701458280011122CC37240020BC
:101FA00026CA4AC84EC69307440506CE2E89D0CB12
:101FB0008CCBC8C7AA8441469305F00F4A8597E0A9
:101FC000FA1FE78020468549130444056319350349
:101FD0000848C145513D41469305F00F268597E0DD
:101FE000FA1FE780204405496315250348446244ED
:101FF000F240D2444249B249C1450561B5B54146B6
:1020000081454A8597E0FA1FE780C041E31535FD19
:10201000C1B741468145268597E0FA1FE780804099
:10202000E30625FDF2406244D2444249B2490561CB
:102030008280011122CC3724002026CA4EC6AE84ED
:10204000AA891306000213054405814506CE4AC835
:1020500097E0FA1FE7806033B72700201309440593
:1020600023869712A3013901EFC0601F13044405B2
:10207000854719C1814749451CA0F2406244D244BA
:102080004249B24905618280814791C909C98547A2
:102090006319F500DC3193E707FCDCB185473E8529
:1020A000828089476316F500DC3193F7F703F5B7B3
:1020B0000D478547E315E5FED8311377F70313671E
:1020C0000704D8B1E9BF814785C119CDD83193063E
:1020D000000C85471377070C6308D70093060004AC
:1020E0008D476303D70089473E858280411122C412
:1020F000005D06C626C21DC8AA84085009C597E01F
:10210000FA1FE78060FF485009C597E0FA1FE78093
:10211000A0FE085409C597E0FA1FE780E0FD22857C
:1021200097E0FA1FE78040FD23AC0402B24022444E
:10213000924441018280B72700209387470511E927
:10214000B8231385870101CB37250020130545DE11
:102150008280138587018280B727002003C5670529
:102160008280B727002003A507068280B7270020BA
:1021700003A547068280B727002083A787068843E8
:102180008280B727002093874705D44B98420507E4
:1021900098C2A8339307F00F6305F50091656FE0CF
:1021A000AF838280011122CC06CE2E8432C6EF800E
:1021B000506D9147B2456310F502B727002083A701
:1021C00007E095C303A30700630F03002285624461
:1021D000F24005610283B727002083A787DF81C70C
:1021E00003A34700D5B7F2406244054505618280EC
:1021F000011122CC2A844A2106CE26CA4AC84EC6DC
:1022000097E0FA1FE780C0582DC52A890421834929
:10221000C500E93D4A85EF9090384A20EF80B061D3
:10222000372900201309C9E083470900B9C763961D
:102230009704B727002083C5D7E02685713C19E1B4
:10224000230009004A20EF80D0639147631CF5000A
:10225000B7270020938747055620FA236394E600AA
:102260007D57FAA3F2406244D2444249B249056123
:10227000828081499304F00F65B79307F00FE383E1
:10228000F4FC7420522028204E87A685A5365DBF19
:1022900079715EC6AA8B2E8552CC56CA5AC806D60C
:1022A00022D426D24AD04ECEAE8A328B368A97E0DE
:1022B000FA1FE780E04D6DC1045D2A89F1CC9C5086
:1022C000614599C3130540039C5481C751054205DC
:1022D000418163050A00710542054181DC5081C7D7
:1022E000590542054181EFD03FCC2A8455C561464E
:1022F000814597E0FA1FE7804009B727002083C98E
:1023000087006394090083490900930700FD1CA01E
:10231000A947A30074013CA0230364018C5023123D
:1023200054011305840191C908C47146930A4403FA
:1023300097E0FA1FE780200256858C5491C948C463
:102340005146930A450197E0FA1FE780C000568581
:10235000630C0A0008C87146D285930AC50197E04C
:10236000FA1FE78040FF5685CC5099C548C85946AA
:1023700097E0FA1FE78020FEA2854E85EFD0FFC6CA
:102380002254B2509254F249624AD24A424BB24B62
:102390004A850259456199BBB25022549254025960
:1023A000F249624AD24A424BB24B456182800111E6
:1023B0004EC6AA892E854AC806CE22CC26CA2E89A8
:1023C00097E0FA1FE780C03C29C5B727002083C4E7
:1023D000870091E004211945EFD01FBD2A8415C95B
:1023E0008145194697E0FA1FE78020FA930700FD20
:1023F0001CA0B947A30034013CA023122401A285EC
:102400006244F2404249B2492685D24405616FD008
:10241000DFBDF2406244D2444249B2490561828044
:1024200039715ECEAA8B2E8526DA4ED652D456D27C
:102430005AD006DE22DC4AD8AE84328BB68A3A8A7B
:10244000BE8942C697E0FA1FE780803429C92A89ED
:102450004145EFD07FB52A8439C14146814597E097
:10246000FA1FE78080F2B727002003C5870019E133
:1024700003450900930700FD1CA0BD473CA0B247DF
:10248000A300740146A023046401A304540123059E
:102490004401A30534015CC4A285EFD01FB5F250FE
:1024A0006254D2544259B259225A925A025BF24BA8
:1024B00021618280797126D2AA8439454AD04ECED4
:1024C00006D622D42EC6B2893689EFD0FFAD0DCD07
:1024D000B2459307000D1EA1B1472A844EA13CA12D
:1024E000CE851905194697E0FA1FE780C0E6230656
:1024F0002401A2852254B2500259F24913F5F40F77
:10250000925445616FD07FAEB2502254925402591A
:10251000F24945618280411126C2B724002093848C
:102520004405B83006C622C44AC09307F00F6304BE
:10253000F7042A893945EFD03FA72A840DCD9307A8
:1025400000FD1CA1A3002501230105009385840142
:102550000D05194697E0FA1FE780E0DF9E24A2856B
:10256000A8303EA49C305CA42244B240924402496C
:1025700041016FD09FA7B2402244924402494101D9
:10258000828001115AC02A8B314526CA4EC652C4D8
:1025900056C206CE22CC4AC8AE84B28A368ABA89DE
:1025A000EFD09FA02DCD2A84268597E0FA1FE780E3
:1025B000201E09C55825A1476311F704B72700203D
:1025C00003C97705930700FD1CA09D47A300640184
:1025D0003CA046A0231354012314440123153401C5
:1025E000A2856244F240D244B249224A924A024B46
:1025F0004A85424905616FD05F9FB727002003C914
:10260000D712E3110BFCB727002083A787F29C4762
:10261000D5DBCE865286D6852685829765B7F24071
:102620006244D2444249B249224A924A024B05616D
:102630008280011122CC2A84214506CE2EC6EFD0FD
:10264000BF9615C5B245930700FD1CA1C5473CA127
:10265000BC313CB1DE215EA1FC217CA1FC31AA850C
:102660007CB122856244F24005616FD01F98F24030
:10267000624405618280397162CC2A8C594526DA20
:102680004AD84ED652D456D25AD05ECE06DE22DC7E
:10269000AE8432C636C4BA8B3E8BC28A468A835910
:1026A000010403494104EFD03F902DC53246930702
:1026B00000FDA2461CA1954730B1A30085013CA1B5
:1026C0002A8419461105A9C2B68597E0FA1FE7804A
:1026D00080C823066401230A2401231574012317EB
:1026E00054012318440123193401A2856254F25085
:1026F0004259B259225A925A025BF24B624C2685D9
:10270000D25421616FD07F8E814597E0FA1FE78018
:10271000C0C7C1B7F2506254D2544259B259225A7A
:10272000925A025BF24B624C21618280411122C4B9
:1027300037240020130444053C2006C626C285CB5E
:10274000B7240020AA851946138544DE97E0FA1FB6
:10275000E78060C02820938544DEEFF0FF9222449A
:10276000B240138544DE924441016FB01030B24054
:1027700022449244014541018280411126C2B7247E
:1027800000209387440506C622C44AC0B833930785
:10279000F00F93844405630FF7022A892945EFD08F
:1027A000BF802A8405C9930700FD1CA1A147A3008F
:1027B00025013CA1BC20B7250020938545DE3CB116
:1027C0001946110597E0FA1FE780E0B8A830A28506
:1027D000EFD0BF81B8208D476311F702B7270020E3
:1027E00083A7C7DF99CB03A38700630803002244B4
:1027F000B2409244024941010283B24022449244D1
:10280000024941018280797122D406D626D24AD06B
:102810004ECE52CC56CA09444DCD2A890A21AE89E2
:10282000514497E0FA1FE780A0F6AA845DC13727DC
:10283000002093078712DC238546BA8AFD1793F799
:10284000F70F494463F7F6085825A1476314F700CA
:10285000639109089C5C4544ADEF91659385457192
:102860001305C00297D0FA1FE780C07D88DC2A8A52
:102870004D4425C11306C002814597E0FA1FE78049
:10288000C0B08357090093064A0036852311FA0029
:1028900071469305490036C697E0FA1FE780A0AB62
:1028A00089472300FA00C824B2460356090083C5AD
:1028B0008A12611513351500EFA0905F2A84638694
:1028C0000900CE852685EF90007701C42685EFF0BC
:1028D000FF812285B250225492540259F249624A31
:1028E000D24A45618280B727002083C7C7120547B7
:1028F000FD1793F7F70F6377F708894749C601116A
:1029000022CC26CA4AC84EC652C406CEAA89368AE6
:10291000B2842E8997E0FA1FE78080E72A84D147A6
:1029200031C5485509C597D0FA1FE780E07CF145CD
:10293000268597E0FA1FE780A0A748D4CD471DC59C
:10294000542421478147639DE600630B0A00382D1C
:10295000122993062501AA854E85EF80906BAA87E0
:102960005820630E09001367670058A0F2406244C4
:10297000D2444249B249224A3E85056182801367AA
:102980004700E5B7C9473E8582809307B00363EBF4
:10299000A7009317150037250020130585FD3E95E8
:1029A0000A21828041657D158280011122CC2A8412
:1029B0002E8526CA06CEAE8497E0FA1FE78040DD5A
:1029C0000DCDB7470F009387F723094563E28702D0
:1029D00081450A85414697E0FA1FE780009BA6855E
:1029E00060800A8541804081A3010100EFA0502E44
:1029F000F2406244D244056182804945D5BFB72781
:102A000000202385A71282806FA0F042797152CCFA
:102A10002A8A328522D426D24AD04ECE56CA5AC8E5
:102A20005EC606D662C4AE8BB28A368BBA843E8945
:102A3000C289468497E0FA1FE78080D50DC92A8CA9
:102A400063130A0213774B005C2115CF93E727012C
:102A50002302FC008DEC631C0902639A090205E85D
:102A6000ED9B2302FC00832B8C0363910B08B25077
:102A7000225492540259F249624AD24A424BB24B12
:102A8000224C45618280F59B93E70701D1B793E71C
:102A900047002302FC0001CC1C484146A2852324A8
:102AA000FC0213058C0197E0FA1FE780C08A63934C
:102AB0000B02D5D80325CC0209C597D0FA1FE780B1
:102AC000A063F145268597E0FA1FE780608E2326F4
:102AD000AC0251BFE30909F80325CC0209C597D020
:102AE000FA1FE7806061F1454A85F1BF9DC483A765
:102AF0000B0299EB916593853571714597D0FA1F5B
:102B0000E780405423A0AB0203A50B0219C5714610
:102B1000A68597E0FA1FE78000846388090283A7EF
:102B20004B0299EB916593852571594597D0FA1F12
:102B3000E780405123A2AB0203A54B0219C55946B9
:102B4000CE8597E0FA1FE78000811DC483A78B0222
:102B500099EB916593851571514597D0FA1FE780E0
:102B6000604E23A4AB0203A58B0219C55146A28572
:102B700097D0FA1FE780207E2254B2509254F24937
:102B8000B24B224CCA865A860259424BD685528590
:102B9000D24A624A45616FF0AFEF011126CA52C4B2
:102BA00006CE22CC4AC84EC62A8AAE8497E0FA1FC7
:102BB000E78000BE25C1AA893945EFD0EFBE2A843F
:102BC00031C9B727002003C987006314090003C96E
:102BD00009009307000D1EA0AD473CA09385690036
:102BE00013053400194697D0FA1FE780C07693F793
:102BF0001400858085885CA444B423154401A28513
:102C00006244F240D244B249224A4A8542490561AF
:102C10006FD0AFBDF2406244D2444249B249224A29
:102C200005618280411122C4372400201304C4DED0
:102C3000084006C619C597D0FA1FE780E04B23204D
:102C40000400B240224441018280011106CE22CC10
:102C500026CA4AC82EC697E0FA1FE78060B321CD86
:102C6000B245B727002003C987000CD5AA84631496
:102C70000900034905004145EFD00FB32A8405CD73
:102C80009307000D1EA1A5473CA1DC30938564008D
:102C90001105A30FF5FE194697D0FA1FE780A06B28
:102CA0009C54A285F2405CC46244D2444A854249A5
:102CB00005616FD08FB3F2406244D244424905614E
:102CC0008280797122D406D62A842EC697E0FA1F14
:102CD000E78000AC1DC954251147AA874945639276
:102CE000E6029C5FB24591C3EC2B0808EF90A03D33
:102CF000B7D6050093864697100889452285EF8050
:102D00009036B2502254456182805145DDBFB727CD
:102D1000002083C7C7120547FD1793F7F70F637AA3
:102D2000F704894721CA411122C426C24AC006C6F7
:102D3000B2842E8997E0FA1FE78080A52A84D147C4
:102D400015C1630609005C2193E727005CA1414699
:102D5000A6851305840197D0FA1FE780C05F9C48C1
:102D60001CD48147B2402244924402493E8541012D
:102D70008280C9473E858280797122D406D62A8412
:102D80002EC697E0FA1FE780A0A001CDB2452285AC
:102D9000230EB1006C08EF90A026B250225445617A
:102DA00082805145DDBF6F80A022C1671387E7FF96
:102DB0006395E502B727002083A787DF91EB49459C
:102DC00082804945B24022449244024941018280B6
:102DD00003A30700E30503FE0283411122C426C2B8
:102DE0004AC006C6FD172A892E84B284639AF5026A
:102DF000B727002083A787DF91CF9C4381CF82979D
:102E000011E9B7270020238627E1B7270020A386F2
:102E100097E04DBFA6854A85EFE01FEC45F5D5B795
:102E20002E8597E0FA1FE780A09641DD1C210D4515
:102E3000E39A27F922852244B2400249A6859244AA
:102E400041016FB0803F1307B003636FA7044111C6
:102E5000C16722C406C626C2FD172A8409456381BC
:102E6000F502C547AE846312F4022E85EFB06044CC
:102E700037250020130585FD06042A9406A0014588
:102E8000B24022449244410182809307A00363161A
:102E9000F4002E85EFB0203BE1BFE31BE4FC13F50B
:102EA000F50FEFB0803AE9B709458280011106CEEF
:102EB0002AC6EFE07FE4EF206047EF10C07FEF907D
:102EC0002163B727002093874705130700F0BAA3B3
:102ED00023820700B7270020324513878712FD564B
:102EE00034A3F2402384A712954505616F60303802
:102EF0001D7193970501CAC886CEA2CCA6CACEC6BC
:102F0000D2C4D6C2DAC05EDE62DC66DA6AD86ED6B9
:102F1000C1872E8963D4074EB72A002003C58A12C1
:102F2000B7240020372B002097D0FA1FE780A02D70
:102F30002A84372A0020372C0020372D0020938444
:102F400044051DE021653345A900F6406644D6449A
:102F50004649B649264A964A064BF25B625CD25C09
:102F6000425DB25D256182801C201307200A639BAD
:102F7000E70083C934002A20C1652286FD15EFF0E1
:102F80006FA2B1A213878A12834927001307100981
:102F9000639AE7141C3015476390E7022285EFF02F
:102FA0002FA52285EFC09FFD03C58A1297D0FA1F77
:102FB000E78060252A8471B73947639FE7144A2068
:102FC0008567A5076313F5040C4483CB0500639D57
:102FD0000B00850591C9B727002019461385C70640
:102FE00097D0FA1FE780203798208547631CF70E9B
:102FF00063880B00238004005E85EFF0CFD155B7C6
:1030000089479CA0EFB0202669BF896713872700F6
:103010006316E504832B840063860B0C83C70B00C7
:1030200099EB83C72B0003C71B00A207D98F9EA46F
:1030300083C73B009CB0982089476315F70A83C774
:103040000B0091C72380040003C50B007DB78C30B3
:103050008A248D479CA0EF605024FDB79507631725
:10306000F5001C448823EFF04FF125BFF977138753
:10307000A7FF2A9742074183914663F1E6049387AD
:10308000A7FCAA97C207C18371476371F7028967DA
:103090001387B7006310E50483274ADFE38307F053
:1030A0009C43A285E38F07EE829715A0370700188F
:1030B0001307F770B357F700858BA9CB8327CBDFB6
:1030C000E38107EE9C43E38E07EC22858297E31AA7
:1030D00005EC09A81387C700631FE5001C449C2367
:1030E000E38107EC9307F00FE38DF9EAA2854E85A3
:1030F000EFC0BFEF55BDB907631AF500B727002031
:1031000083A787DFE38F07E8DC4361BF8967938785
:103110001704E303F5F8F9B73D476399E7044A203C
:1031200089671387D700E30BE5FC13879701E30753
:10313000E5FCCD07E318F5FAFA20C167FD17631F18
:10314000F700B727002083A787DFE38C07E4DC4381
:10315000E38907E40965A2854D05B9B7B7270020C3
:1031600083A707E0E38F07E29C43DDB71307E00383
:10317000E39AE7F63C2005476398E70C7C20372765
:103180000020930DC7DECDE783A70D00D9CF83CBF9
:103190000700A1496830930C8400E685EFE0BFF298
:1031A0005C2868B0835804010358E4005A202A863A
:1031B00028303EC23E28E686DE853EC0CE87EFF050
:1031C0008FCB3C3095E3DD47835804010358E4007E
:1031D00074304E203EC23E283EC06687CE870546EC
:1031E0005E85EF80E00028B083A70D0081C7114500
:1031F000EFF05FA3930BCCE003C50B00E30305DA0C
:103200008345DDE0EFE05FADE30D05D83430930793
:1032100010036389F600522083C50B004E87368564
:10322000EFE05FBD23060CE0ADBB83CB340095B768
:103230008327CBDF83CB34009149A9DFDC43B9DBA3
:10324000814501458297B9B729476396E7087C20F5
:1032500037270020930DC7DEBDE383A70D00A9CF5C
:1032600083CB0700A1496830930C84009377250035
:103270001376150089E7E685EFE0FFE42A868347A9
:10328000040270B08358C4010358A4015A202830A6
:103290003EC27E2CE686DE853EC0CE87EFF0AFBD17
:1032A0003C30B9F3DD478358C4010358A40174309E
:1032B0004E203EC27E2C0DB783CB340065B78327EA
:1032C000CBDF83CB34009149D9DFDC43C9DF8145B3
:1032D0000145829749BF0947639CE70083274ADF7E
:1032E000E38107CCDC43E38E07CA2285829755B978
:1032F0002D476398E70083274ADFE38407CA9C478A
:10330000DDB70D476396E70022868D454A2085B9D3
:103310001947639AE7049305610113051031EF9093
:1033200081252C0813052031EF90E1247220BC8404
:103330004A2063E6C7001624B88363F7E6009305C6
:103340000002EFA01076B1B96373E6007AA063F3D0
:10335000D7001EA45A24362412246E200148814727
:10336000EFA0F0733DB91D47E38EE7D63147639573
:10337000E7002286B14559BF35476398E7008327A8
:103380004ADFE38007C2DC47B9BF39476396E700ED
:103390002285EF00207931B13D476398E70083270C
:1033A0004ADFE38007C09C4B3DBF41476396E7007F
:1033B0002285EF005000F5B645476396E7000145CA
:1033C000EF00F00EF9BE4947639DE7008327CBDF8E
:1033D000E38A07D0DC43E38707D081450545829720
:1033E00011B34D47E390E7D08327CBDFE38C07CEC3
:1033F000DC43E38907CEA2850945D5B793F71500CD
:1034000089CFB727002083A747DF89C7DC4399C34B
:1034100001458297134519000DBE93F7250091CF02
:10342000B727002083A7C7DF91C7DC4381C7814549
:10343000054582971345290009BE93F745000145CC
:10344000E38507B0B727002083A707DF37240020D4
:103450001304440589CF85475CA0B727002083A7C4
:10346000C7DF91C7DC4381C7814505458297484442
:103470002C08EF90F06D2808EFF04FABB727002035
:1034800083D7A7FF81CF130600643386C702B7270F
:10349000002003C587129145EFC07FE31345490023
:1034A0006DB4011122CC2A84554506CE26CAEFF010
:1034B000CFCDAA8413054002EFF02FCD2AC6130505
:1034C0005002EFF08FCCAA86228562443246F24049
:1034D000B3359000D24405616FA0D062797122D4D7
:1034E00006D68D472E84631AF500BA259625F2215B
:1034F0002830CE21EFF0EF8801A889671387D70025
:10350000631EE502A82119E58547B25022543E8585
:1035100045618280B727002083A6C7DEF5D6B0328A
:103520008C22814802C202C00148814701479106AE
:10353000EFF06F940545EFF0EFEEF9B71387E70072
:10354000E304E5FC138737016319E500A8214DDD8D
:10355000014781460146814571BFE507E306F5FA5B
:10356000B1476319F500B727002003C57705EFF0D1
:103570004F8C59BF41677D178147E318E5F8D83173
:10358000C947E313F7F8F625D2250A24AE25EFA0A4
:10359000B0592DC15D45EFF04FBF3335A000E88431
:1035A0004C202A203008EF70B000BC84B1FF6C08BA
:1035B00013051031EF80317C9305E10113052031B3
:1035C000EF80717BBC861A246373F7001EA4BC874E
:1035D0003A2463F3E7003EA40E243E2463F3B700CD
:1035E0002EA47A24562432242A2001488147EFA0B1
:1035F000104919BF8547FC8465B7B727002013879A
:10360000871274331307F00F638DE6063DC941112D
:1036100022C426C24AC006C6AA8428251389871256
:103620004105EFC07F982A8439C59307000D1EA17C
:10363000D9473CA1DE205EA1FC207CA1FC307CB1FE
:103640009C241CA59C341CB5B02430A515C2CC44C8
:10365000410548C497D0FA1FE780E0CFA2852244F5
:1036600003457900B2409244024941016FC0FF977F
:1036700023260500E5B7B2402244924402494101A5
:1036800082808280C1671387E7FF639DE500B727CB
:10369000002083A7C7DE95C39C230D47639DA70029
:1036A0006FA0303DFD1749476397F500B72700200D
:1036B00083A7C7DEF5F73A8582804947EDBF3971A8
:1036C00022DC06DE26DA4AD84ED652D456D25AD05A
:1036D0005ECE62CC182185472A846309F704102541
:1036E000930695009305E1000545EFE0FF818147D2
:1036F00011C11C21142011476382E60437270020E2
:103700000327C7E18D461833630AD70285CB1DC74F
:103710000DE10145F2506254D2544259B259225A35
:10372000925A025BF24B624C2161828081470145D3
:10373000D1B78546631ED7088D8BE1DF0830130AA9
:103740002400D285EFE03F983729002008B0832776
:1037500009E22A8B130909E28149C1C3B72A002073
:103760009304F00F83C78AE1138C8AE163FAF902AC
:1037700003250900939B49005E951C2163819706F0
:103780001C31639E67051946D285090597D0FA1F3B
:10379000E78000C529C5832409001820DE94B1E420
:1037A00014209147E387F6F683270900BDD303462B
:1037B0000C0001479305F00FE30DE6F4BE84C1074A
:1037C00003C507FF6301B50C05071377F70FEDB7C6
:1037D0008946E310D7F4858B8DB7054525BF85094C
:1037E00093F9F90F41B788C4C9A891476312F70646
:1037F000C8440DC11C241021630EF6041820914703
:103800006318F706C84419C597D0FA1FE780C08E21
:1038100023A60400082491659385E571050597D0DA
:10382000FA1FE78020820DC118209147631BF7041F
:10383000C8C41C24930594000505A30FF5FE1024AD
:1038400097D0FA1FE78020B108243335A000D9B5FE
:10385000884445B793059400050597D0FA1FE78083
:1038600020B88547E31CF5F85545EFF00F92ADA061
:1038700088444DD197D0FA1FE780008823A4040024
:1038800051BF88C47DB794A01C30D2851385240015
:103890009CB0194697D0FA1FE780E0AB08249165E9
:1038A0009385F571050597C0FA1FE780A0790DC1D2
:1038B00018209147E319F7F2C8C41C24930594001B
:1038C0000505A30FF5FE102497D0FA1FE780A0A8E6
:1038D0001C2481F708207D151335150025BD39718D
:1038E00022DC26DA4ED652D406DE4AD856D25AD038
:1038F0005ECE2A84930925000831CE85B7240020A6
:10390000EFE06FFC08B09384C4E19C400D472A8A25
:103910009C336390E70437290020832709E2814A1A
:10392000130909E263810714B72B002003C78BE159
:1039300093970A01C18303250900138B8BE163E090
:10394000E70C83460B000327090081471306F00F9D
:10395000BDAAF1D3144C70389305E1000545EFE0A2
:10396000AFDA15C9984085461C2118336310D70279
:103970008D8BD5F30145F2506254D2544259B2595D
:10398000225A925A025BF24B216182808946858BD2
:10399000E313D7F8F9BF1C2011476385E7002D47D3
:1039A000E39AE7FCB724002083A704E2938404E2AF
:1039B000F1D3814A0149B72B002005A88840139B09
:1039C0004A001C205A9518216310F7021C31639D90
:1039D00047011946CE85090597D0FA1FE78040A018
:1039E00001C503A904005A99850A03C78BE193977F
:1039F0000A01C183E3E4E7FCE31F09F0A5BF939448
:103A00004A00269518211C206318F70A1C3163957B
:103A1000470B1946CE85090597D0FA1FE780409CD1
:103A200041CD832709001147BE941C206385E70020
:103A30002D47639CE70203AAC4007C3803460A00B2
:103A40006308F602528597C0FA1FE780E06A68387B
:103A500091659385E571050597C0FA1FE780805E43
:103A60001DE5E38004EE054539B703AA8400F1B7EC
:103A70000C4C13051A0097D0FA1FE7806096854713
:103A8000E312F5FC5545EFE05FF061DDE5B51C2084
:103A900011476385E7002D47639EE700C8C47C3863
:103AA0000505A30FF5FE70380C4C97D0FA1FE78080
:103AB000808A45BF88C4E5B7850A8DBDBA844107B1
:103AC000834507FF638AC5008507C207C183E3E713
