:020000024000BC
:100000006F70E27900000000001801180028012834
:100010000228032800290129022903290429052986
:10002000062907290829002A012A022A032A042A64
:10003000052AA62A8C7F060062270400DC03002024
:100040002004002098030020860300205203002093
:10005000C8280400F0280400BE290400AE2B0400C8
:10006000582C0400EE250400802504000202002024
:10007000AC250400CC300400160500209E280400A6
:10008000EC2D04001C270600FA280600642906004F
:100090009AE50500AEE50500C04A05000C3D0500E7
:1000A0005C2106001C2E04006EED050004D804003F
:1000B00094D80400EED804001C3904005A39040016
:1000C000DA370400A89A0400CE95040054070020F3
:1000D000F8A604005EAA0400F088040092880400D8
:1000E000568C04003C89040070880400E8880400F1
:1000F00026880400B68904000E8A0400BE89040024
:10010000C2890400588A0400168A0400468A040042
:100110000A8F04000E8F0400B2890400BA8904001B
:10012000568A04000C8F0400048B040068900400BD
:10013000AAB704001EB8040058B80400F49C0400D8
:100140000A9D0400429D0400CE820400AC8304009A
:100150001084040068550400AE5004007C7904004B
:100160002A510400C47404004C5B06007058060059
:1001700064620600347206000A7106001C750600EF
:10018000D874060014750600C67506004A470600B6
:10019000567506004269060068690600886906000F
:1001A00036760600086F0600A66E0600A6760600E4
:1001B00094490600284A0600484A0600FA49060003
:1001C000E0050600A4F20500ECF505006CF305005F
:1001D0000CFC0500F0210600EA2006007E47060020
:1001E00078320400BEE505004EED050046EE050040
:1001F000B8190600401A0600A21B0600CAA0040097
:100200009405060080FC05005A02060004FF050064
:1002100054F20500F406002062E60500427506006F
:10022000DC740600107506000C750600542B0400E3
:10023000349E04004A750600D80706002A09060005
:1002400096090600A2620600467506004E75060075
:10025000983C050052750600AA1A0020061F0020CF
:10026000000000000000000000000000000000008E
:10027000000000000000000000000000000000007E
:100280006373B60082801C419105110523AEF5FE13
:10029000C5BFB727002037370020938707391307DA
:1002A000478F6373F700828023A007009107D5BFB3
:1002B0005DC5AA870145D5C58D07C207C183F19BDE
:1002C000C207C18313074003636CF702372700207E
:1002D0000325075237270020832687516397A602FC
:1002E000372700200327075B014525CF4111C207AF
:1002F00006C60545DD8D0297B24001454101828069
:10030000372700200325C751F1B77A2139E75A2151
:100310006365F704B72600203306F740214893862B
:1003200086526375C8028328050003D866001386C9
:1003300087001D8F2A9661175AA2232016012313C6
:10034000060010C15EA1130788FFFAA26EA1EE227B
:100350002105B387F540FEA28280084141B70145DF
:100360008280828009CDB727002003A30752B727D8
:10037000002083A8875181469A8763E31701828012
:1003800003A80700636BF5086369A8081387870053
:10039000E367E5FEF223216705076319E6003726C8
:1003A00000200347464205072302E6423726002085
:1003B00013058652CE237A21239307001306865213
:1003C0002E97420741837AA1638367023725002075
:1003D0000325C551630DF500EA2211E9DE2223A0B1
:1003E00006012107BE95A105CEA27AA2B687984341
:1003F000E30717F9B726002083A6C651E301D7F813
:100400007623B5FED6234E231843A106AE96D6A377
:1004100098C37E22A1077EA28280BE86C287B1BF1A
:10042000B7270020B726002083A7075203A68651CE
:100430002A87B305B5406314F6003A8529A8938648
:1004400087009C43E369D7FEE377F7FE2E85E3E45C
:10045000D5FEE3F2F5FE828023AC05FE1C4181E768
:100460000CC18280BA8703A787FF6DFF23ACB7FE5C
:100470008280411126C2B724002083A7445222C49F
:100480004AC006C60144014981EBA165973004E0EA
:10049000E78020990DC819A803C7E7FF631CA702CE
:1004A0001DCCA165972004E0E780406903A7445272
:1004B000832784FF6317E40223A2F452FD57232C01
:1004C00004FE230FF4FE2285B240224492440249E6
:1004D0004101828011E03E8983A787FF75B73E8482
:1004E000E5BF232CF9FED9BFB727002083A7875784
:1004F00099E33E858280BA236315B7009823E30A07
:10050000A7FEDC47F5B70111680006CE22CC974064
:1005100005E0E780E06BFD576307F508324741C30C
:1005200037240020130484521848630DF700B727BE
:10053000002083A7475C829732471C486373F7000B
:10054000BA873E9537340020930784839C4F130469
:10055000848399CBB737002083A6078A3707CDFF5E
:100560007D179C46F98F9CC6B727002083A7475A62
:10057000829719E91C4C85C797F005E0E780A0C574
:1005800097E005E0E780002C1C4C91CBB7370020AA
:1005900003A7078AB70633001C47D58F1CC7F24054
:1005A00062440561828037240020130484521C4871
:1005B000E387A7FEB727002083A7475C82971C48E4
:1005C00049B709CD81CD19CA81473387F500142376
:1005D0003307F500850714A3E319F6FE828019C9D5
:1005E00091C909CA910583A7C5FF11057D16232E60
:1005F000F5FEC5BF828001C919C62A960505A30F5D
:10060000B5FEE31DA6FE828081473307F500030790
:10061000070019E33E8582808507C5BF01112E863C
:1006200026CAAA84131506019305F004418122CC41
:1006300006CE32C6B5392A8401C53246A685513761
:100640002285F2406244D24405618280854705C11B
:1006500099CD11CE8147B306F5003387F50094227A
:1006600018236398E6008507E317F6FE85473E8565
:1006700082808147EDBF9307F6FFBE952A966313EC
:10068000C5008280FD159C310505A30FF5FEC5BF91
:10069000AA87014581CF09CE3E96850703C7F7FF9C
:1006A0006317B700E39BC7FE054582808280014542
:1006B000828079714AD03729002022D403248957B7
:1006C00006D626D24ECE52CC56CA5AC85EC63DCCAD
:1006D00037CAC901B72A0020B72900208144372B27
:1006E0000020130AFA37938ACA57938989523E2009
:1006F00099EB5C44BDE4232CF956832BC40022857E
:1007000095315E840DA883274B5C82971C44330788
:10071000F540636AEA0423A809002E2008209720E8
:1007200004E0E780A04154405C44E9D61844A28428
:10073000369718C43E8445FCB7270020938787521C
:10074000984B894663FEE602791798CBB250225443
:1007500092540259F249624AD24A424BB24B456125
:100760008280DCC459BF03A78A0201CB03A7090119
:10077000898F63F4E70023A8F900A284404465BF91
:1007800023A80700E1B701114AC8372900208327B1
:10079000495506CE22CC26CA4EC652C456C25AC0AD
:1007A00081C78297232A095493074955DC4337248C
:1007B00000201304445591C38297832749556399B8
:1007C0000714B734002093878483DC3393848483B5
:1007D000858B99CFF830A3820400914763FAE70034
:1007E000EF106060FC30F9178A07A2979C4382974C
:1007F000373A002093078A87DC27130A8A87918B70
:1008000099C3EF10D0411C4491C382973724002034
:10081000B72900209307845203A749579033930ABE
:1008200084528347845293961700BA969622B5CA8B
:100830008347845263EFC706832749552304045234
:10084000E1EB9C3489CBFC3099E7A384040097E06A
:1008500005E0E780E047B727002083A7475CCDCBC2
:10086000FD5723A8FA00B135B727002083A7475AC0
:10087000C5C3F830914763EDE7088347CA00918B01
:10088000C1EB83C61A0003A6495763EDD70862443B
:10089000F240D2444249B249224A924A024B05618F
:1008A0009DB1850793F7F70F2304F452E3EBC7F6E6
:1008B00041B786073E970E23231007000345845255
:1008C000B727002083A7075513172500372B0020D3
:1008D000BA979C4323180B56829783570B570347AD
:1008E000845293C7F7FF7D8D9317170003A74957CD
:1008F0003E971E235D8D0AA38347845281C78507D7
:100900002304F4520347845283C71A00E376F7F2B4
:10091000F2406244D2444249B249224A924A024BCE
:10092000056182801397170032971A2375F38507A4
:10093000A9BFAD6737470240BD072326F720010056
:100940000100B727002093878752C84F8327872647
:10095000BD66BD0693C7F7FF99836A052326D72096
:100960005D8D82808280B727002003C6876FB727FE
:10097000002003A7473F81476315F600814636856F
:100980008280BA8613078702835587FDE389A5FE17
:10099000850793F7F70FCDB7B727002003C6976FEA
:1009A000B727002083A7074101476365C700814639
:1009B00036858280BE86990783D5A7FFE38AA5FE88
:1009C0000507E5B7B727002003A7874019E30146CD
:1009D00015A81C4703D8A700636B0501835847007F
:1009E000B38608016355D500814663941601184308
:1009F000F1BF3E86C10703D3A7FF6317A30099C1C8
:100A000023900501328582808506C206C182F1BF2E
:100A1000B727002003C6876FB727002003A7C76B3F
:100A200081476315F600814636858280BA861307B2
:100A3000C703835567FCE389A5FE850793F7F70F86
:100A4000CDB7032785117DC7411122C406C65C2599
:100A50008345C5042A8493F7C70F5CA51437522732
:100A600013958601618563F6C50663500506082760
:100A700093F6F60714B7054693E627006314C500FE
:100A800093E6170054A45C4389075CC34CB8032564
:100A900004112E864C4309052D36832784115038C6
:100AA000D443DA27B296118FD4C3DAA789473CBC66
:100AB000B72700200347440383C7E7586371F7044F
:100AC0005C2493E707015CA41DA893E717005CA4CE
:100AD00075BF9376F60F635905020827854513E61F
:100AE00027006314B50013E6170050A454B8A304FC
:100AF000070085473CBC832784119C43D5FBB2404B
:100B0000224401454101828093E717005CA454B858
:100B1000A3040700032504114C4309055D34832712
:100B200084115038D443DA27B296118FD4C3DAA790
:100B30008D47C9B705458280B737002083A7478214
:100B4000411122C406C6858B2A84D5E3416513056D
:100B500025F5975005E0E78000F151C93C253EA5F9
:100B600083270412ADE32320A4122322A412854775
:100B70002310F404232005007C2854415EA558343A
:100B800018A5054718B537370020032707851385B3
:100B9000170215811C437D151375F50F9CC25C432C
:100BA000DCC21C479CC65C47DCC61C4B9CCA5C4B29
:100BB000DCCA1C4F9CCE5C4FDCCE19CD938606025E
:100BC00013070702C1BF8327441288C38357040455
:100BD0002322A412850769BFB72700209387877057
:100BE0009A2705079AA7B2402244410182805C24DB
:100BF00023090400054593C747005CA4EDB71C2DED
:100C000093F7E70FD5E71C3DC5E73029542509CAFE
:100C100037270020834545030347F75863E7E5007E
:100C200013F7060159C7014709C6C18A0357851B37
:100C300081C68356C51B36972DCF411122C4372458
:100C400000201304C4576A2C1307C71237460F003D
:100C5000B335A70213060624814626C206C633050D
:100C6000A702977006E0E78080E47C387D54B38467
:100C7000A700B727002003A747798327070963F355
:100C800087003E84184375FBB727002083A7475C85
:100C9000829781476364A400B307A440B240224412
:100CA000B3B7970093C7170092443E8541018280F5
:100CB00081473E858280B72600209387867083A770
:100CC000C70863850744797126D293868670B72456
:100CD00000201387C45703A546090353E70137478C
:100CE0000F0006D622D44AD04ECE52CC56CA5AC88D
:100CF0005EC662C40148FD589384C457130EF7239F
:100D00001306072403D7470883A50709330767029B
:100D100072973357C7023387E540637517013E85E5
:100D2000BA8805489C43F9FF6304080023AAA60873
:100D300003A44609B7490F00938BF92337290020F4
:100D4000930A0032130B204E054A93890924832706
:100D5000495C032C04098297637B852DF62C03578D
:100D60004408FC38330CAC403307D7025E97335746
:100D700037033E97636B87237E3CA30F04002285D5
:100D800085077EBC83470414C5C72D212285974063
:100D900005E0E780A01049E1EA2C83574408374773
:100DA0000F009306F723B387A702130707248329AD
:100DB0000409230A0402B697B3D7E7020547B387AD
:100DC000F9402324F4088327C408BE993C3423281F
:100DD00034096391E7060357E407363C63ECE60405
:100DE00014286399F60483278411A9E78327440A0A
:100DF000B1E374349D47639FF6021E3CB387E7025C
:100E00001307204EB387E70203274409B3D7E7024D
:100E1000F828BA972312F408B25022549254025977
:100E2000F249624AD24A424BB24B224C456182801F
:100E3000F92CA9BF1E308DCF763C5A3037460F00B3
:100E400056B03387E640B387E7023A3013060624EC
:100E500081468145BA97C207C1833385A7023EB058
:100E6000977006E0E780A0C401C5AA992328340939
:100E70008327495C8297AA898327495C8297E30D7F
:100E800035FF8327495C8329840882973385A940ED
:100E900075C18327C408637FF50C37490F00130918
:100EA0000924B3352503F22C8146330525039770B9
:100EB00006E0E780C0BF3E303737002083264785F5
:100EC0003E95B567BD07DCC6010001008327478555
:100ED00009678359240298C7E62C37370020130787
:100EE0008783930600F854A30605E8D33385990257
:100EF0003D673D0737460F00D8C7130606248146D5
:100F00008145977006E0E78080BA0DC1B3372503AD
:100F100026868146B305B9023305A902BE959770AE
:100F200006E0E780C0B83385A9402AB097E005E025
:100F3000E780C0D797E005E0E78000E238348547D6
:100F40008145631EF70037E505001305E5919720FD
:100F500004E0E780A0FE930700FD7CA475BD377513
:100F600005001305253F972004E0E78020FD930747
:100F700010FCE5B73834854703A344036317F70033
:100F80009545E30B03E8154529A0E30703E89545DC
:100F900019452254B25092540259F249624AD24A37
:100FA000424BB24B224C4561028363580C047E3C99
:100FB00085077EBC8347041499E32285892A22850C
:100FC000974005E0E78080ED832704090327C408E4
:100FD000BA972328F4083C3463974701228597C0C9
:100FE00005E0E78080617C3C854585077CBCDC585A
:100FF000E38F07D41545829799BB5E3C13070032F7
:101000008E07B387D70293870719B3D7E702E3F5B3
:1010100087E1A1452285974005E0E78000E02305B0
:10102000A40203A344038945E31F03F4F5B35E3C24
:10103000FA2C330C85418E07B387E7029387071993
:10104000B3D757036374FC0A8327495C82977E3CBD
:101050002A8C85077EBC8347041499E322854528A2
:101060002285974005E0E78060E3E31705DA8327F0
:1010700004090327C408BA972328F4087C3C13F713
:10108000070F21CF2285974005E0E780A097A30FA7
:10109000040083270409E379FCFA8356E4071E3C25
:1010A00003274409B387D702B3876703B3D7E7029F
:1010B000F8280607BA972312F4083C3463924703D2
:1010C0003E3CE3F6D7C8228597C005E0E780E052B2
:1010D000DC58E38E07C68D4531BF85077CBC55BF04
:1010E000DC58E38607C68D45194531B7E3460CD277
:1010F000A1452285974005E0E78020D22305A40280
:1011000003A34403E30A03D09145B5BD82807971FE
:1011100026D206D622D44AD04ECE52CC56CA5AC86F
:101120005EC68347350303447513AA843E94137443
:10113000F40F9307400263F687001304B4FD1374A1
:10114000F40F03AA841383AAC413A38B84122286E8
:101150005285D685977006E0E780E08F058915E512
:1011600003CBD41201498149337B6403930B5002B2
:101170004A865285D685977006E0E780C08D05893E
:1011800015C5639169031374F90F238B8412B25050
:10119000225492540259F249624AD24A424BB24B0B
:1011A000456182808509E20993D989410509E311E6
:1011B00079FDE1BF83278509723D797193D60701D7
:1011C000BD8EC206C182358E135776409357564066
:1011D000898B058B5D8F93573640918B5D8F93572D
:1011E0001640A18B5D8F93171600C18B5D8F9317EF
:1011F000360093F707025D8F9317560093558600CC
:1012000093F707041E065D8F1376F60F518F93D761
:10121000554013D63540118A898BD18F13D675402E
:10122000D18F13D61540218AD18F13961500418A8C
:10123000D18F1396350013760602D18F1396550081
:10124000137606049E05D18F93F5F50FCD8FA20777
:1012500045465D8F3307C70222D42A8426D252CC5A
:1012600056CA032A8413832AC4135AC806D636974B
:101270004207418393577740135557400989858B1F
:10128000C98F135537401189C98F135517402189CC
:10129000C98F131517004189C98F131537001375AE
:1012A0000502C98F13155700935587001375050460
:1012B0001E07C98F1377F70FD98F13D5354013D772
:1012C00055401189098B498F13D57540498F13D526
:1012D00015402189498F139515004189498F139530
:1012E000350013750502498F1395550013750504D4
:1012F0009E05498F93F5F50F4D8F2207D98FB38740
:10130000C7024AD04ECE5EC662C4B697C207C1833A
:1013100013D7774013D557400989058B498F13D5CB
:1013200037401189498F13D517402189498F13956B
:1013300017004189498F1395370013750502498FAE
:101340001395570093D58700137505049E07498FA1
:1013500093F7F70FD98F13D5354013D7554011891F
:10136000098B498F13D57540498F13D515402189B5
:10137000498F139515004189498F139535001375D1
:101380000502498F13955500137505049E05498F75
:1013900093F5F50F4D8F2207D98FB387C702130638
:1013A00050025285D685B697BD8E93940601C180B2
:1013B00033F6C402137BF60F976006E0E780A0695E
:1013C00005890DED8347D41201498149B384970201
:1013D000130C5002C1804A865285D685976006E07C
:1013E000E78060670589937BF90F11C56386340335
:1013F000850993F9F90F0509E31F89FD230B641390
:10140000B250225492540259F249624AD24A424B93
:10141000B24B224C456182805E8BCDB78327C508D5
:1014200003568508797193D60701BD8EC206C18225
:10143000358E1357764093575640898B058B5D8FB9
:1014400093573640918B5D8F93571640A18B5D8FDC
:1014500093171600C18B5D8F9317360093F7070221
:101460005D8F931756009355860093F707041E0669
:101470005D8F1376F60F518F93D7554013D63540B5
:10148000118A898BD18F13D67540D18F13D6154011
:10149000218AD18F13961500418AD18F139635007A
:1014A00013760602D18F13965500137606049E0517
:1014B000D18F93F5F50FCD8FA20745465D8F33078A
:1014C000C70222D42A8426D252CC56CA032A8409BF
:1014D000832AC4095AC806D63697420741839357D0
:1014E0007740135557400989858BC98F135537406D
:1014F0001189C98F135517402189C98F13151700FA
:101500004189C98F1315370013750502C98F13154B
:10151000570093558700137505041E07C98F13776D
:10152000F70FD98F13D5354013D755401189098B43
:10153000498F13D57540498F13D515402189498F9F
:10154000139515004189498F1395350013750502D0
:10155000498F13955500137505049E05498F93F522
:10156000F50F4D8F2207D98FB387C7024AD04ECED1
:101570005EC662C4B697C207C18313D7774013D53E
:1015800057400989058B498F13D537401189498FF9
:1015900013D517402189498F139517004189498F29
:1015A0001395370013750502498F1395570093D58E
:1015B0008700137505049E07498F93F7F70FD98F9E
:1015C00013D5354013D755401189098B498F13D551
:1015D0007540498F13D515402189498F1395150002
:1015E0004189498F1395350013750502498F13956D
:1015F0005500137505049E05498F93F5F50F4D8F22
:101600002207D98FB387C702130650025285D685A9
:10161000B697BD8E93940601C18033F6C402137B46
:10162000F60F976006E0E780004305890DED8347DC
:10163000140801498149B3849702130C5002C180F8
:101640004A865285D685976006E0E780C0400589C6
:10165000937BF90F11C563863403850993F9F90F5C
:101660000509E31F89FD230F6407B25022549254E9
:101670000259F249624AD24A424BB24B224C45616E
:1016800082805E8BCDB78327450903568508797123
:1016900093D60701BD8EC206C182358E13577640A0
:1016A00093575640898B058B5D8F93573640918BAE
:1016B0005D8F93571640A18B5D8F93171600C18BDA
:1016C0005D8F9317360093F707025D8F93175600CF
:1016D0009355860093F707041E065D8F1376F60F69
:1016E000518F93D7554013D63540118A898BD18FAE
:1016F00013D67540D18F13D61540218AD18F1396FA
:101700001500418AD18F1396350013760602D18FCA
:1017100013965500137606049E05D18F93F5F50FA9
:10172000CD8FA20745465D8F3307C70222D42A8496
:1017300026D252CC56CA032A840A832AC40A5AC81B
:1017400006D6369742074183935777401355574043
:101750000989858BC98F135537401189C98F135556
:1017600017402189C98F131517004189C98F131597
:10177000370013750502C98F13155700935587005D
:10178000137505041E07C98F1377F70FD98F13D56B
:10179000354013D755401189098B498F13D57540B2
:1017A000498F13D515402189498F1395150041891B
:1017B000498F1395350013750502498F1395550010
:1017C000137505049E05498F93F5F50F4D8F22077C
:1017D000D98FB387C7024AD04ECE5EC662C4B697D1
:1017E000C207C18313D7774013D557400989058BAA
:1017F000498F13D537401189498F13D51740218957
:10180000498F139517004189498F13953700137538
:101810000502498F1395570093D58700137505046A
:101820009E07498F93F7F70FD98F13D5354013D7FC
:1018300055401189098B498F13D57540498F13D5B0
:1018400015402189498F139515004189498F1395BA
:10185000350013750502498F13955500137505045E
:101860009E05498F93F5F50F4D8F2207D98FB387CA
:10187000C702130650025285D685B697BD8E939443
:101880000601C18033F6C402137BF60F976006E0B1
:10189000E780601C05890DED8347F4080149814903
:1018A000B3849702130C5002C1804A865285D685B4
:1018B000976006E0E780201A0589937BF90F11C530
:1018C00063863403850993F9F90F0509E31F89FD40
:1018D000230F6407B250225492540259F249624ACB
:1018E000D24A424BB24B224C456182805E8BCDB7CF
:1018F0000111B727002022CC03A4077C26CA4AC8BE
:101900004EC606CEAA8413092500854905C09C3021
:101910003830858B6304F700405CCDBF19469305D2
:1019200044004A85EFE09FD2E31835FF2285F2405C
:101930006244D2444249B249056182804111B727CD
:10194000002022C403A4077C26C24AC006C6930412
:101950002500054901E82285B2402244924402490B
:1019600041018280A6851305A402979005E0E780D7
:10197000C0EAE30225FF405CF1BF4111B727002018
:1019800022C403A4077C26C24AC006C693042500CD
:10199000054901E82285B2402244924402494101AE
:1019A0008280A6851305A401979005E0E780E0E614
:1019B000E30225FF405CF1BF011122CC604126CA41
:1019C0004AC84EC652C406CEAA841D4A13096505EC
:1019D0008549BC446364F400054591A0D8345C207B
:1019E0006317470503C784026304F7000040D5B7B7
:1019F000583083C75405E31BF7FE1946CA85130503
:101A00006400EFE0BFC4E31335FF582483C794029A
:101A1000E31EF7FC7A24BE34E31AF7FC0145F240DA
:101A20006244D2444249B249224A05618280E31F9E
:101A3000F7FA583083C75405E31AF7FA1946CA85EE
:101A400013056400EFE09FC0E31235FBC1BF011135
:101A5000B727002022CC03A4877B26CA06CE2AC43F
:101A60002EC6854419E40145F2406244D244056122
:101A700082809C841830858B6304F7000044DDB7B6
:101A800019469305A10013052400EFE03FBCE317BE
:101A900095FE0545D1BFB737002003A74785011143
:101AA0002AC62EC432C206CE3C4B93E707083CCB75
:101AB00097D005E0E780801FB736002083A7C68255
:101AC0003245A24523A0070018310348250022070C
:101AD00042084297034805004297034835006208D0
:101AE000429798D758310348650022074208429729
:101AF0000348450042970348750062084297D8D7CB
:101B000018350348A500220742084297034885007C
:101B100042970348B5006208429798DB583503485E
:101B2000E5002207420842970348C50068354297FE
:101B300062052A97D8DB9831A821220742052A9707
:101B400088212A97A83162052A9798CFD831E821B1
:101B5000220742052A97C8212A97E83162052A9769
:101B6000D8CF9835A825220742052A9788252A9795
:101B7000A83562052A9798D3D835E825220742056B
:101B80002A97C825EC352A97E2052E97D8D3D84353
:101B9000759BD8C3D84313671700D8C398431367FE
:101BA000170098C3124603A7C6825C43858BADEB32
:101BB0001C4F01451CA283A7C6829C4FA1831CB267
:101BC00083A7C6829C4FC1833CA283A7C6829C4F39
:101BD000E1833CB283A7C682D84F58A2D84F218355
:101BE00058B2D84F418378A2D84F618378B29853C6
:101BF00018A69853218318B69853418338A6985352
:101C0000618338B6D85358A6D853218358B6D853D1
:101C1000418378A6DC53E1837CB6F2400561828083
:101C2000010051B7B737002003A747851605136594
:101C300005083C4B93E707083CCBB737002083A748
:101C4000C78203A7450E88C398CB03A7850E01451D
:101C5000D8CB03A7C50B98CF03A7050CD8CF03A7F4
:101C6000450C98D303A7850CD8D303A7C50C98D7E8
:101C700003A7050DD8D703A7450D98DB03A7850D4E
:101C8000D8DB03A7C50D98C703A7050ED8C798438F
:101C90001367070498C38280B737002003A74785DE
:101CA0001605136505083C4B93E707083CCBB7378F
:101CB000002083A7C78203A7C50E88C398CB03A7BC
:101CC000050F0145D8CB03A7C50B98CF03A7050C7B
:101CD000D8CF03A7450C98D303A7850CD8D303A767
:101CE000C50C98D703A7050DD8D703A7450D98DBDA
:101CF00003A7850DD8DB03A7C50D98C703A7050E5D
:101D0000D8C798431367070498C3B7370020938751
:101D10008783130700F8F8A38280373700208326D3
:101D20000783411126C29C5E06C622C499834AC01D
:101D3000858BBA84B1CB93070006373900209CDE2F
:101D4000834789831304898393F7070489CFB727CF
:101D5000002083A7475C829708C88347898393F74D
:101D6000F70B230CF9825C2093F7070491EF85476A
:101D70005CB0B737002083A74785096798C713076A
:101D800000FC58A05844F8D303A704831C5F918338
:101D9000858B89CBC1471CDFB737002093878783AA
:101DA0008546D4A31C5F9D83858B91CB9307000848
:101DB0001CDFB7370020938787830547D8A3B73741
:101DC000002083A7C782D8430583058B19C7D84352
:101DD000759BD8C3D843799BD8C3B2402244924460
:101DE000024941018280B7370020B736002003A6A0
:101DF00047859387868303C78683058B11C7238214
:101E00000700A382070082809833058B6DFB785210
:101E10007DF3D833FDB737380020032708831C5FD4
:101E20009583858BBDE701C61C5BBD831CA29DC647
:101E300083270883985B460793576701635607001B
:101E400093E707C0C207C18303970600C207C18793
:101E500009C7BA970947B3C7E7029EA285C11C31DB
:101E600091CF3E951C350547194593F6F7066393C8
:101E7000E602E207E187394563CE0700832708833E
:101E80003737002001459C5FED838D8BA301F784DC
:101E9000828005458280411122C406C63734002065
:101EA00026C2032744853DE5AE877453FDFEB73453
:101EB0000020938484833E85B2852381040097D0DB
:101EC00005E0E780E0BDB737002083A70783B706AA
:101ED00080009843558F98C3D857719BD8D78327D4
:101EE0004485A3820400A3800400094798C3832685
:101EF0004485B737002093878783B823058B11E784
:101F0000B833058B51C723820700B2402244924464
:101F1000410182808D47631FF500B737002083A7FA
:101F20000783B70680009843558F98C3D857719B95
:101F3000D8D775BF8547E31CF5FAB567BD075CC701
:101F400001000100832744850967930600F898C7BC
:101F5000373700201307878354A3373700208326A1
:101F600007830946984231830D8B6319C700130715
:101F7000E043F8D33D673D07D8C795BF984231830A
:101F80000D8B01E713076019EDB71307E01BD5B7F9
:101F9000F85225F79DBF5D7152DC373A00200327C8
:101FA0000A8386C6A2C4A6C2CAC04EDE1C43B73985
:101FB00000203739002093F7F7E793E707081CC3A1
:101FC00083A6098A3707CEFF7D179C461306800239
:101FD0002A84F98F9CC6832749852800AE8423A8CC
:101FE000070493051008EFE00FE197D005E0E780C4
:101FF000E0CB97D005E0E78020D683270A8393764D
:10200000F41F3706330023A40700984B370FFCFF5B
:102010004E881367F70398CBF84FCA88130510F85A
:10202000137707E0558FF8CF9843F576FD16758F37
:1020300098C3373700208326498513078783A30277
:102040000700A3000700054798C29843D285B7024E
:1020500004001377F7E798C398439303401F11498F
:102060001377F7E71367071098C303A7098A7D1F43
:1020700085491C47930F8002D18F1CC79307900599
:10208000BCCA01473400135337002693834703002B
:1020900013767700B3D7C740858BE1C383A7058349
:1020A000832E088A239C07042390070603AECE02E2
:1020B000137EDEFF23A6CE0383AE0700137EF70751
:1020C00093FE0EF833EECE0123A0C70103AE470204
:1020D000336E5E0023A2C70383AE4885014E23A260
:1020E0007E0603DA070663074E0303AE0703038A7F
:1020F0000600135EFE00620E135E8E416358CA0135
:1021000003AE0703135EFE002380C60103DE07064D
:10211000137EFE0F03AA4E0663060A0003DA870544
:10212000E37F49FB03AE4702337EEE0123A2C703E0
:1021300083870600635CF400034E03003396C900F6
:102140001346F6FF3376C6012300C3003E8663D3F1
:10215000A7002A8613158601618505071377F70FF7
:102160008506E312F7F3B640264496440649F25931
:10217000625A616182803736002083274685D847BE
:102180009316170163D2060298479316170163DD71
:1021900006007D57B8D73727002013078752544FC2
:1021A000850654CF116798C798470D83058B11CFCB
:1021B0003737002013078783342393E6160034A3B0
:1021C000930600F854A3214798C79847058B19CB6D
:1021D0003737002013078783143393E6160014B3B0
:1021E000054798C798470983058B09E798470583F2
:1021F000058B31CB94473737002037350020898253
:10220000858AE5CE832605839442B1828D8AFDE2DC
:10221000AC4B93068783944E93F505029432CDC55B
:10222000F9E69306D005D4CF8346878393E616005C
:10223000230CD782114798C7032705835C57F19B6E
:1022400093E717005CD7032746851C479396370111
:1022500063D40602B72700209386877003C606075B
:1022600093878770418A55C283C7060793E70702A1
:102270002388F60685671CC71C479396270163DFF2
:102280000600B737002093878783D423E206E186D0
:1022900063D406008546D4A389671CC71C47939660
:1022A000070163D20602B72700209387877083C691
:1022B0001707858ABDCA83C6170793E62600A38839
:1022C000D706A1671CC78280A9DE85456395B60045
:1022D0009306100689BF89456395B600930650069C
:1022E00099B78D456395B600930690062DBF93066A
:1022F000B00615BF9306C0063DB713078783343376
:1023000093E6160034B309473DB783C6070709466D
:10231000BD8A6388C60083C607070D46BD8AE39B56
:10232000C6F491462388D706B1B783C61707918AAA
:10233000C9DA83C6170793E6860051B7B73600207F
:10234000373700209387868713068785303EDC3732
:102350009386868713078785B29793F7F70F7D4695
:10236000636DF6021CB31C33484B05463316F6006A
:10237000DCB6698E1DEA903A13080002814633F6F6
:10238000C7028147B355F500858993F8F70F99C9BE
:102390006317D600A300170182808117E1B7850675
:1023A00093F6F60F8507E39F07FD8280B72700208D
:1023B00083A7475C011122CC26CA4EC606CE4AC866
:1023C0008297B734002093878487804781496300D0
:1023D000A4043737002093078785BC2F018D135441
:1023E0005500938484879379F50113098785636D7C
:1023F000F400A9370347A901944493175700BE96E8
:10240000198C94C4E377E4FE1604B3693401F240F6
:1024100062444E85D2444249B24905618280B72761
:10242000002083A7475C411122C44AC006C626C2C9
:102430008297373900209307898780476307A40470
:10244000B734002093878485BC2F018D1354550029
:1024500013098987938484856369F402C535BC2C8C
:10246000032789009396570036971D8C2324E90093
:10247000E376F4FE22448830B2409244024981451A
:10248000410117D305E06700C3D8B240224492440B
:10249000024941018280B737002003A7078AB75756
:1024A00002009387079F83260709139656006358F7
:1024B0000600832607091396660063440600FD178D
:0424C000FDF3828026
:1024C400B72700203727002083A707520327875107
:1024D40001456313F7008280F62399E2D6233695EB
:1024E4009C43C5BFB727002083A5C75737270020C3
:1024F4009387C757138605222320C752DA2393876D
:1025040085FFB72600204111BA97056523ACF65024
:1025140006C61D05935637006374E5009306002034
:102524003307D60037250020232EE55023A0E522CB
:10253400E11656A2231306001CC3998FE1175EA36C
:1025440023130700B53FB240B72700202397A752B3
:1025540041018280B72700203727002083A7075234
:102564008326875101456393F6008280FA2309E7A5
:10257400DA236373E5003A859C43F5B71DC18346AE
:10258400E5FF1307F00F9147639EE600411106C66D
:1025940097E0FB1FE78000B6B24081473E854101CA
:1025A400828095473E85828001E90145828001450C
:1025B400B24022444101828095654111938505D042
:1025C40022C4C98D2A842105C2054205C1814181E5
:1025D40006C697E0FB1FE780A0A671D9FD5723200C
:1025E400050042A17CA12105E1B7ADC1B7270020B8
:1025F40083C79752411122C406C62A842E85637567
:10260400F400894763E88700953F0D45B2402244B2
:102614004101828083A785FF99E703C7E5FF9307FC
:10262400F00F6305F700993F1545CDB73725002016
:10263400238F85FE1305455297E0FB1FE780C0BA40
:1026440022852244B240A1654101ADAC154582808A
:10265400B727002023A207528280BDCD797122D4EE
:1026640006D626D24AD04ECE01444147B3D7854040
:10267400858BB1CF1205314722953305E502B72783
:10268400002003A9C75B8544B3948400C204C180BD
:10269400BE892A990327090011C7032549002EC6BC
:1026A4000297B24531473304E40283A7C95B3E94E1
:1026B4001C4489E72320090023220900B250225434
:1026C400A58D02599254F2492E85456182800504F4
:1026D400E31EE4F88144DDB72E858280411113970F
:1026E400050122C406C626C24AC041872E8463510E
:1026F400070297E0FB1FE780C0B011C14135A16715
:102704003D8C2285B2402244924402494101828098
:10271400EDD9AA8701474146B356E440858A9DCA4C
:102724009207BA97B146B387D702B726002003A908
:10273400C65B8544B394E400C204C1803E998327F8
:102744000900032549008297232009002322090058
:10275400258C45BF0507E311C7FC8144D5BFB727C6
:10276400002083A7075A411122C406C6372400203B
:102774001304843591C782971C403E9508C031A04C
:10278400B727002083A7475CFDF70840B74703003D
:102794009387D73F3305F502B7A72600938737EC15
:1027A400B2403E9508C022444101828065C5374845
:1027B40036FE1308F8C78947636FC80C7971B727C9
:1027C400002022D45AC803A8C75B3E8B06D626D263
:1027D4004AD04ECE52CC56CA5EC662C40144B148F9
:1027E400C147B30B1403137CF40F330378010323A1
:1027F4000300631C0308AE8AC165AA84938505F0AF
:1028040041453A8AB689328997E0FB1FE7804083C5
:1028140005E9B727002083A7075B99EF8147B250EA
:10282400225492540259F249624AD24A424BB24B60
:10283400224C3E8545618280814511458297F9BFCE
:10284400B726002003A786570DEF23ACA656230016
:1028540005008327CB5B0547331487002326050037
:102864002324250122A123224501DE9784C323A228
:10287400570123A44701E38309FA2380890179BF1F
:1028840036875447F5FE48C7D9B70504E31BF4F46B
:10289400A14771B789473E858280B727002083A767
:1028A400075C411122C406C6372400201304845255
:1028B40089C782975C483E9548C84848B24022443C
:1028C40041018280B727002083C79752637EF500B9
:1028D4003727002093171500032547573E951E21DF
:1028E400DD8D0EA1014582800D458280B727002031
:1028F40083C797526370F50237270020931715009A
:102904000325475793C5F5FF3E951E21FD8D0EA166
:10291400014582800D45828001114AC806CE22CC31
:1029240026CA4EC652C49307F002094963EEA706AD
:10293400B146B306D502B727002003A7C75B0949F0
:1029440036971C43B5C3135A450005443D893315D6
:10295400A400131405014180AE845285A28597E03A
:10296400FB1FE7806091AA8901491DCDA28552858C
:10297400B53FB727002083A7475C8297B72700207D
:1029840083D7A7592A8413060064338797028146A4
:10299400B3B7970213050732B335E500BE95EF4090
:1029A4009269229523A4A900F24062444A85D24444
:1029B4004249B249224A05618280B727002083C771
:1029C40097526364F500014582800111B727002006
:1029D40052C403AA475C06CE22CC26CA4AC84EC6B5
:1029E400630D0A08372900201309C957AE89835596
:1029F400E9012A84B284B387C5028146B3B5C5020E
:102A040013850732B337F50013060064BE95EF4013
:102A14009262B74736FE9387F7C763E0A706029A28
:102A24008355E9012A8A13060064B3879502814617
:102A3400B3B5950213850732B337F500BE95EF4061
:102A4400925F2A9ACE85228597E0FB1FE780C08299
:102A540009C523244501054515A0936504F0C20565
:102A6400C181414597D0FB1FE780805D05E1832745
:102A7400490381C7A285114582970145F24062440A
:102A8400D2444249B249224A056182803727002054
:102A94008327875785E3232CA756854723260500DC
:102AA400232445012311350100A11CB12322050073
:102AB4005DB7BA87D84775FFC8C7C5B741C979712B
:102AC40022D426D24AD04ECE52CC56CA5AC85EC65A
:102AD40062C406D6B689B28A2E8A2A899304000C67
:102AE4004144372B0020054C930B00038327CB5B19
:102AF400A6979C43A1E79375F400B315BC00C205E7
:102B04005686C181135544004D3D0DC98327CB5BC7
:102B14000145BE9423A0240123A244016384090037
:102B240023808900B250225492540259F249624AD5
:102B3400D24A424BB24B224C456182800504137445
:102B4400F40FB104E31474FB2145E9BF0945828005
:102B5400411122C426C24AC006C62A842E89B284E0
:102B6400A93DCA85228597D0FB1FE780E07005CD7B
:102B7400B727002083D5A7592A8413060064B38796
:102B840095028146B3B5950213850732B337F50034
:102B9400BE95EF40524A48C00145B2402244924497
:102BA4000249410182802145CDBF411122C426C280
:102BB4004AC006C62A892E8497D0FB1FE780C06BC3
:102BC400AA8419C123110500A2854A850533B727B4
:102BD400002083C7875263992701B727002003D7B2
:102BE4000757598C23988756014591E01945B240FF
:102BF400224492440249410182809307F00263E82F
:102C0400A7044111B14722C43304F50226C2B724F4
:102C1400002083A7C45B06C6A2979843894715C3BF
:102C24009377F5008545B395F500C205C1811181FF
:102C3400AD3F83A7C45BA29723A0070023A207008C
:102C44008147B240224492443E85410182808947B3
:102C54003E858280411106C622C497D0FB1FE780BF
:102C6400A06111E50145B240224441018280B727A9
:102C7400002083A7475C00458297B74736FE33059B
:102C8400A4409387E7C7E3EFA7FC93070064B33539
:102C9400F502372700200356A75981463305F5026C
:102CA400EF407239C9B74111B727002006C623A0E7
:102CB400A75C0295B240B727002023A0A754014582
:102CC40041018280994763E9B700B72700208A054C
:102CD40093874755BE9588C18280B727002023ACCF
:102CE400075637250020B7270020411123A0075C91
:102CF4007146B727002081451305455506C623A212
:102D0400075C22C426C23724002097D0FB1FE7802B
:102D140080671305845213068002814597D0FB1FF8
:102D2400E7806066EFF00FFCB727002083C71759D0
:102D340013048452854513D527008D8B3E958D470A
:102D44003305F5029947B724002039051375F50FAB
:102D540028A03305F5021305052497D0FB1FE7804F
:102D6400202E23AEA45A25CD302099478145330621
:102D7400F6021306062497D0FB1FE780C06083A7E2
:102D8400C45B3820B7240020938707240A0723A8AC
:102D9400F454BA9737270020232AF75655385D266E
:102DA4001C3083A604553726040013972700369752
:102DB4001306E66510C3138717001377F70F0A0786
:102DC4003726040036971306066E10C313873700A0
:102DD400890793F7F70F8A0718B0B69790C3B240E4
:102DE40022449244410182803727002013078752EE
:102DF4001C33342363FFD700B726002083A606556F
:102E04001386170010B313972700369708C33E851F
:102E140082809307F00FE5BF1C41E9CF41777D8F96
:102E2400B706002089476318D70C5A2169C7411196
:102E340026C21946AA849305F00F610506C622C46A
:102E440097D0FB1FE780C05D05478D47630EE508FB
:102E54009C4491C7985C994741CBD85C51C73724AF
:102E640000201306000481451305C45797D0FB1FA7
:102E7400E780605113060004A6851305C45797D054
:102E8400FB1FE780004D9307C457DA2701E71307B8
:102E94000010DAA7F82719E30547F8A79A2B19E3D6
:102EA4006D479AABF83719E31547F8B7B82B19E310
:102EB4000547B8ABB83B19E3F837B8BBD82B19E3CF
:102EC4002547D8ABF83B19E35147F8BBF82801E78D
:102ED4001307C003F8ABDC5791C78297B7270020CC
:102EE4002398A752DD3B8147B240224492443E8559
:102EF4004101828089473E858280B727002083A7CD
:102F0400475C011106CE22CC26CA4EC64AC8829717
:102F1400B727002083D9A75993070064B335F50276
:102F24004E8681463305F502EF40F210B7270020A4
:102F340013878752004FAA840145630494021389BE
:102F4400875233858440636C94004E868146130512
:102F5400009C9305F063EF40120E018D2695232CFF
:102F64009900F2406244D2444249B24905618280E8
:102F7400011122CC2E84B78506000A85414693852B
:102F840005C806CEEF405244180806043A94B72701
:102F94000020035504FF83D7C759F2406244AA971F
:102FA40037450F00130505243355F502056182806A
:102FB400B727002083D7C75951471D45637CF702C3
:102FC400794719456378F70213072003154563739E
:102FD400F7021307B0041145637EF7001307400698
:102FE4000D456379F7001307600909456374F70019
:102FF40013B5B70F8280011122CC06CE2A842EC6C7
:10300400EFF0EFF5B245F240818D33A5A50222958C
:1030140062441375F50F05618280011122CC06CE3E
:103024002A842EC6EFF0AFF3B245F240818D33A56A
:10303400A502229562444205418105618280011105
:1030440022CC06CE2A842EC6EFF06FF1B245F240B0
:10305400818D33B5A5022295624405618280B7272C
:1030640000201387C757585739CF411122C426C2AD
:103074004AC006C61389C7570297B727002013878B
:1030840087521A272A849384875205CBBA8763739D
:10309400A700AA87C207C183BA866373E400A28625
:1030A400C206C182958F51476359F70083270903EC
:1030B40091C38297EFB0F15882A4B2402244924463
:1030C4000249410182808280011122CC37240020F0
:1030D4009307C4579C5B06CE1304C45781C72AC602
:1030E400829732450DC57A2C854709CF1A3019CB02
:1030F400B727002023A2A75C373504001305E5EFAA
:103104005D368147F24062443E8505618280B7277F
:1031140000209387875223AE0700E17793C727A146
:103124007EAC930720031EB07D57B747024023A40B
:10313400E726B7070020372700209387276C232230
:10314400F75C5DBF011122CC372400209307C457DC
:10315400884706CE26CA4AC801E90545F2406244BA
:10316400D2444249056182801304C4571C5CF5D7DC
:10317400585C65D77000854582971844B247E30EC2
:10318400F7FC4A249305E004B724002097D0FB1FE2
:10319400E78000EB1387845208D39384845255DD6F
:1031A40052249305F00F014997D0FB1FE780A01D1F
:1031B4007C249050634DF900328597D0FB1FE78043
:1031C40060F3014523A0040223A2040241BF4E245C
:1031D4000844585CB3872503898105093E9508C2D4
:1031E4000297F9B7411122C4372400209307C4572A
:1031F4009C4726C206C6B72400204AC09384845242
:1032040091EB885039EDB240224492440249014581
:10321400410182801304C4575C5CE5D79C5089EB60
:103224004A249305E00497D0FB1FE78060E188D02F
:10323400885061D952249305F00F014997D0FB1FA0
:10324400E78060147C249050E35DF9FA4E241C441A
:1032540033852503898105093E955C5C08C2829704
:10326400D5B797D0FB1FE780E0E823A0040223A290
:10327400040251BF01114EC6B72900209387C957D4
:103284009C4726CA4AC852C406CE22CC56C25AC04B
:103294002A8AAE8432896388071E9389C95703A793
:1032A4008903630207121307F01F6360A712372410
:1032B400002013078452832A07021304845263985C
:1032C4000A0803D5C9009565938515E097D0FB1FBF
:1032D400E78000D708D02A867DC583D5C90083A797
:1032E400890303A589008981829783A78900832A9A
:1032F40004025CD089476314FA08C1476395F40C4F
:1033040083D5C9009147938505FCB3C5F5028A05A9
:10331400D695B8219307A0056313F70A9E216390FD
:10332400470B4A852686910597D0FB1FE7806002EC
:103334001C505685639157130145F2406244D244B0
:103344004249B249224A924A024B0561828058504E
:10335400E382E7FA03D5C9009565938525E097D004
:10336400FB1FE780E0CDAA8A39CD83D5C9002A8620
:1033740083A7890303A5890089818297A5BF8D4707
:10338400631BFA00C1476390F40483D5C900938595
:1033940045FDF199B5BF91476318FA00639544035D
:1033A40083D5C900A115F5B793070010631DFA0072
:1033B400A14763EA970083D5C900C115D9BF1C5042
:1033C4005685639D570B29458DBF9D6A637A5509C0
:1033D400930A05E01947B3CAEA0203D7C900372B99
:1033E4000020B38AEA02BE9A93078B52DC53130B74
:1033F4008B526395570103240B021DE003D5C900CA
:103404009305E00497D0FB1FE78080C32A8445DD41
:1034140083D5C90083A789032A8689815685829723
:1034240091451307A005898193972500A297B4239A
:103434006391E6049623639C460385058A052686E4
:10344400A2954A8597D0FB1FE780A0F083270B0243
:10345400E38487EE228597D0FB1FE780A0C9E9BDEE
:1034640021677917E361A7F6B30A5541BDB7AC33B9
:103474005DBF83270B02E38887F4228597D0FB1F67
:10348400E78040C789B7B727002083A5875485DD27
:1034940091479306A0058983139727002E9730231D
:1034A400E313D6F21223631C460185078A07268696
:1034B400BE954A8597D0FB1FE780A0E9B5BD3C3394
:1034C400D9BFB72700209387C757984721C3D85F30
:1034D40015CF8546631CD502411122C43724002030
:1034E40013048452105006C611CECE274850898149
:1034F4000297085097D0FB1FE780C0BF2320040227
:1035040023220402B24022444101828082800111BC
:1035140022CC372400209307C45756C283AA8700BD
:1035240026CA4AC84EC606CE52C42A89AE84B28977
:103534001304C457638D0A1A5C5C99EB2945F24065
:103544006244D2444249B249224A924A0561828085
:103554001C5CEDD79307F01F63E1A70C372A00200A
:1035640093078A529C53130A8A52A9C70844832793
:103574004A02639CA70489476313F906C147E39F82
:10358400F4FA4A249147130505FC3345F5029317D1
:10359400250003250A022686CE853E959307A005BD
:1035A4003CA123102501110597D0FB1FE78060DAA9
:1035B400014571B74A249305E00497D0FB1FE780C7
:1035C40020A82320AA025DF195BF4E241C5C03268B
:1035D4000A02898182971C442322FA0269BF8D471B
:1035E400631BF900C147E39BF4F44A24130545FD2A
:1035F4009377C5FF79BF91476317F900E39024F5EA
:103604004A242115F5B793070010E319F9F2A147ED
:10361400E3E697F24A244115E1BF9D676375F50619
:10362400930705E01947B3C7E7025A24372A002055
:10363400B387E702BE9A93078A529C53130A8A52AD
:10364400B1CB83274A026392570703250A029146A6
:103654001308A0059305F00F93D7260013972700AE
:103664002A9730236312060783580700303363997F
:103674002805B306D64063C4960485078A072686C0
:10368400CE853E9515B721677917E369A7EAB30795
:10369400F54061BF4A249305E00497D0FB1FE780FF
:1036A400209A2320AA0251FD51BD4E241C5C0326FE
:1036B4000A0289815685829723225A0379B70EA379
:1036C40093160601C18249BF5224B3859600910521
:1036D400130606FCE3F4C5E613863400719A11065A
:1036E400B296230107012310270134B379B7372A8F
:1036F400002093078A529C53130A8A5295CF0325BC
:103704000A0291461308A0059305F00F93D72600EB
:10371400139727002A973023631006058358070060
:10372400303363972801B306D640E3D896F40EA34A
:1037340093160601C182D9BF68245E249305E00470
:103744003305F5024205418197D0FB1FE780408F86
:103754002320AA024DF5DDB352246C24B385C5029F
:10376400338696001106E3EBC5DCBDB701458280C4
:103774009C211CA1BE211CB1BE21A1833CA1DC2142
:103784003CB111458280B727002023AA0738B72708
:10379400002023A8073882800DCD411126C206C619
:1037A40022C4AA8401458DC12E84B78506002285D2
:1037B4004146938505C997D0FB1FE78080B99C20BB
:1037C40005455CA49C305CB4B2402244924441015F
:1037D400828001458280011122CC26CA06CE094787
:1037E400AA8432846381E50441468147639BC50012
:1037F400638FE6006397B6000DA841478147638E47
:10380400E600F2406244D2443E85056182808A85A6
:103814002285593741468A8519A88A85B53F41468C
:103824008A85228531A0E39AB6FC2E86A285268558
:1038340097D0FB1FE78080BAAA87E1B7B72700209B
:1038440023A8A7388280B727002023AAA73882801C
:10385400011122CC622106CE26CA4AC84EC62DCCFE
:1038640083298500AE842A8803C909008147131778
:103874008901618763550702B147054563F78704EA
:103884005114420403552800418033878900A286DD
:103894004E868545EFC0006EB337A00085077D14C2
:1038A40013556900420405891379F90341809CA0EA
:1038B40088B023812401C2A0014719C013871900CD
:1038C40098C409476383E7000145F2406244D24447
:1038D4004249B249056182800545C5BFC167F917F0
:1038E400630AF502D94763F7B702011122CC2EC649
:1038F40006CE2A84EF80100EB2456368B500228597
:103904006244F24005616F90D07BF2406244054509
:103914000561828005458280C167F9176314F5004B
:103924006F80500B411106C6EF90306811E15D4580
:10393400B240410182809147639DF5001C211CA285
:103944003C211831A207D98F3EA23C3101455CA22B
:103954008280114582804111814522C426C206C657
:10396400AA84BD232A8409E9B727002083A707393D
:1039740081C7F945268582972285B2402244924424
:103984004101828039714ED656D25AD006DE22DCED
:1039940026DA4AD852D4AA8A2E8BB28951EB36C67B
:1039A400A53F9145EF80B011AA844D493DC5B2466B
:1039B400054A238034010544630A0B00B685138548
:1039C4001400029B0505131405014180E20993D9F3
:1039D400894163D30902C1455685EF90706B6549EF
:1039E40015E533868400A2852685EFC0A01A2A89AE
:1039F40011ED31044204418091472C085685FC8422
:103A040026CEE085EF9010032A8901C963070A00D6
:103A1400268597C0FB1FE780E06DF25062544A850B
:103A2400D2544259B259225A925A025B216182807D
:103A3400BA84014ABDBF011122CC26CA4AC84EC667
:103A440006CE2A893284B689353FAA840DE1B72788
:103A5400002083A7473981CF05476317E40003C4D7
:103A6400090005041374F40FA2854A858297F24075
:103A7400624426854249D244B24905618280AE86B9
:103A8400B735040001470546938545776DB79E21F8
:103A94001CA19E21A1831CB1094582809E211CA1E9
:103AA4009E21A1831CB1BE213CA1BE21A1833CB1B6
:103AB400114582809E211CA19E21A1831CB1BE219F
:103AC4003CA1BE21A1833CB1DC315CA1FC215CB1F1
:103AD4008A2519054205418182809E211CA19E21CF
:103AE400A1831CB1094582809E211CA19E21A18332
:103AF4001CB1BE213CA1BE21A1833CB111458280F1
:103B0400CA2106054205418182809E211CA19E2175
:103B1400A1831CB1AA2109054205418182809E210D
:103B24001CA19E21A1831CB1BE213CA1BE21A18365
:103B34003CB1CA2111054205418182809C211CA10E
:103B4400054582809E21411122C406C61CA19E21E6
:103B54002E841105A183A30EF5FEBE219505230F26
:103B6400F5FE83D7D5FFA183A30FF5FE03C6F5FFAA
:103B740097C0FB1FE780E07D4820B2402244110536
:103B84004101828089476399F5001C311821014560
:103B9400A207D98F1EA28280114582809A21D9471B
:103BA40063FDE702011122CC06CE2EC62A84EF80E3
:103BB4006062B2469E22636DF50022856244F24043
:103BC400B745040001470946938525A905615DBBF6
:103BD400F24062440945056182800945828091472B
:103BE40085C51421FD15C2058547C1816390F60280
:103BF40013D725008D89914781E9914711C70505A0
:103C040034A21AA248C281473E858280094791475F
:103C1400E39CE6FEC94733D7F502B3F5F502E1BFED
:103C2400AE86B745040001471146938505AA99BBA2
:103C340093F7350089EB8981914781C50EA248C26B
:103C440081473E8582809147EDBFD8218947631C17
:103C5400F702011122CC2A84C84506CEAE8601475C
:103C640009C92EC69D4597C0FB1FE7806054B24624
:103C74002A8722856244F240B74504001946938599
:103C840085AB056101B30945828099E111458280C4
:103C94001C2105473EA2E37BF7FEFD1593F5F50FC6
:103CA40033D7F502B387E702E392F5FE050548C270
:103CB4001AA201458280DC210947AE866385E700AC
:103CC40041476399E700B7450400014721469385BE
:103CD40085B44DB9094582800EA291E1014548C2DF
:103CE40001458280AE86B745040001472946938585
:103CF400E5AD49B90EA291E1014548C20145828072
:103D0400AE86B7450400014731469385C5AE9DB9DB
:103D14000EA291E1014548C201458280DA2185471E
:103D240063FFE702011122CC2A84884106CE1DC11B
:103D34002EC6854597C0FB1FE78080472A872285CA
:103D44006244B246F240B74504003946938545B013
:103D540005610DB9F2406244094505618280094557
:103D64008280914785C518218D46914763F0E6020C
:103D7400FD15C205C181B3C6E5023308D7026397B6
:103D84000501050516A23AA248C281473E858280F4
:103D9400DC210947AE866385E70041476399E70064
:103DA400B745040001474146938585B4E1BE094502
:103DB4008280B335B000139525008280011122CC96
:103DC40026CA06CE98258547AA842E844946631FB1
:103DD400F70099363E2049151306200963C8A70049
:103DE400F2406244D2440945056182801834854713
:103DF4006314F70013660604484001C98D4532C6B2
:103E040097C0FB1FE780C03A3246A2866244F24064
:103E14002A872685D244B74504009385E5B0056119
:103E240095B68D4763F8B7021C311821F115A20726
:103E3400D98F1EA23C313821C205A207C181D98F76
:103E44003EA24EA289C5110508C6014582802324DD
:103E54000600E5BF11458280011122CC2A848845E1
:103E640006CEAE8601C92EC6954597C0FB1FE780D6
:103E74002034B2462A8722856244F240B7450400C2
:103E84005946938525B20561F5BCB335B000139549
:103E940025008280AE86B7450400014761469385BC
:103EA40005B4CDB48547114563F0D7021C320C220A
:103EB400A207CD8F1EA39387E6FF3EA3894763869F
:103EC400F600090650C30145828023220700E5BF9E
:103ED400014781467946814575B49E211CA19E21E6
:103EE400A1831CB109458280BC2105471CA18A21FC
:103EF4006397E7000A050505420541818280C947A9
:103F04003305F502CDBF8A210A054205418182802D
:103F1400BE211CA18A21BE213305F50205054205F7
:103F2400418182808A2182808A2182808A218280C2
:103F3400BE211CA18A21BE213305F50205054205D7
:103F4400418182809E211CA19E21A1831CB1BE219E
:103F54003CA1BE21A1833CB1CA2111054205418186
:103F640082809E211CA19E21A1831CB1AA21090546
:103F7400420541818280894711456398F6001C32CD
:103F840014220145A207D58F1EA382809A21D94706
:103F9400AE8663F9E700B745040001470D469385F3
:103FA400E5ED51BC094582801145639DA6001C3294
:103FB40014220145A207D58F1EA33C323422A20746
:103FC400D58F3EA38280BC210547FD1793F7F70FD9
:103FD4006361F7049E2195CF011122CC2A84C84144
:103FE40006CE1DC12EC6894597C0FB1FE780401C25
:103FF4002A8722856244B246F240B745040015463A
:104004009385C5EE056105BCF2406244094505612E
:104014008280094582809547114563F1D706411195
:1040240022C426C24AC006C61C32BA841822A20779
:104034003284D98F9EA03C32382293054400A207D3
:10404400D98FBEA08947DCA0094613855400368960
:1040540097C0FB1FE780E02F9307A9FF9EA4994711
:10406400631BF90023A60400B2402244924402498F
:104074000145410182801904C0C4FDB782809E219C
:1040840095CF011122CC2A84C84106CE1DC12EC66B
:10409400854597C0FB1FE780A0112A8722856244CB
:1040A400B246F240B74504001D469385A5F005616C
:1040B40059B2F24062440945056182800945828013
:1040C4009947639DF6028947411106C65CA31C32D9
:1040D4001422B285A207D58F1EA33C32342250236A
:1040E400A207D58F130557003EA3910597C0FB1F68
:1040F400E7802026B240014541018280D147114525
:104104006394F600C147C9B782809E219DCF0111F7
:1041140022CC2A84C84106CE05C52EC6894597C03F
:10412400FB1FE780E0082A8722856244B246F240FA
:10413400B74504002546938545F105616FF0BF8FAF
:10414400F2406244094505618280094582808947BD
:1041540011456398F6001C3214220145A207D58F3D
:104164001EA38280011122CC2A84C84106CEAE86C9
:10417400014709C92EC6854597C0FB1FE780400348
:10418400B2462A8722856244F240B74504002D4690
:10419400938585F205616FF01F8A1145639DA60022
:1041A4001C3214220145A207D58F1EA33C323422AF
:1041B400A207D58F3EA38280011122CC2A84C84154
:1041C40006CEAE8601C92EC6854597C0FB1FE78083
:1041D40020FEB2462A8722856244F240B745040095
:1041E40035469385C5F205616FF0FF8493F7160099
:1041F400114581EB89476386F600858256A310C377
:1042040001458280011122CC2A84C84106CE05C50D
:104214002EC6854597C0FB1FE78080F92A87228533
:104224006244B246F240B74504003D46938505F327
:1042340005616FF05F80F240624409450561828048
:104244009E219DCF011122CC2A84C84106CE05C5EA
:104254002EC6894597C0FB1FE78080F52A872285F3
:104264006244B246F240B74504004546938545F39F
:1042740005616FF04FFCF24062440945056182809C
:1042840009458280854763F6D70208A70CB71C321C
:104294000C22A207CD8F1EA39387E6FF3EA3894776
:1042A4006386F600090650C3014582802322070075
:1042B400E5BF11458280014781464D4681456FF037
:1042C4008FF78D47114563F4D7021C320C22A207E5
:1042D400CD8F1EA33C322C22A207CD8F3EA3938701
:1042E400C6FF5EA36386A600110610C7014582803F
:1042F40023240700E5BF011122CC2A84884506CE79
:10430400AE8601C92EC6954597C0FB1FE78040EADB
:10431400B2462A8722856244F240B74504005D46CE
:10432400938585F405616FF00FF185471145639519
:10433400F6001C2201451CA3828001478146654684
:1043440081456FF04FEF011122CC2A84C84106CE7B
:10435400AE86014709C92EC68D4597C0FB1FE7806D
:1043640020E5B2462A8722856244F240B74504001C
:104374006D46938565F605616FF0CFE0011122CC9F
:104384002A84C84106CEAE86014709C92EC68D458A
:1043940097C0FB1FE780C0E1B2462A8722856244AA
:1043A400F240B74504007546938565F605616FF0E4
:1043B4006FDD011106CE2EC6EF90403B19C5B24504
:1043C400F2402A2105616FC0F020F24049450561A1
:1043D4008280B7270020A380073CB72700202380D2
:1043E400073CB727002023A4073AB727002023A6B9
:1043F400073AB727002023A8073AB727002023AAA3
:10440400073AB727002023A2073AB727002023A0A2
:10441400073AB72700202394075E13064038938792
:10442400875EB2B371761307400B130606B8BAA3BE
:10443400D2B311671D46930600059305000A1305C0
:10444400007DDAA3F2B341470546130810F8BAA772
:10445400DAA7BAABDAABFAAB9AAF9AB723960703EB
:10446400EEA38EA7F6A796ABAAAF239E0700239FC1
:10447400070023900702B2B7239707021308F00737
:10448400239807022392E7042393E704239FE70476
:104494002390E7062391E7062392E706239907036F
:1044A4001307C01CD2BBF2BB239C0702239D070247
:1044B400239E0702239F0702239007042391C70426
:1044C40023940704239507042396C7042397D7044A
:1044D4002398D7042399A704239A0704239B07044A
:1044E400239C0704239DD704239ED7042393A70664
:1044F4002394070623950706239607062397B706F2
:104504002398B70623990706239AE7067D57239B2A
:104514000706239CE7068280011126CAAA84214546
:1045240022CC06CE2E8432C636C43AC2EFE0CF8700
:104534000DC5A24612473246930700FD1CA19947B8
:1045440004B13CA174A178B152A1AA852285624428
:10455400F240D24405616FE04F89F2406244D24494
:1045640005618280B727002023A4A73A8280B72759
:10457400002023A6A73A8280B727002023A8A73AC1
:104584008280B727002023AAA73A8280011122CC77
:104594004AC806CE26CA2A890144B304890063683E
:1045A400B400F2406244D2444249056182802EC67E
:1045B400EFE0EF9A93170501C183A183B2459CA054
:1045C4009307140093F7F70F850463F8B700CA97AD
:1045D400090488A31374F40FC9B73E84C9B7411101
:1045E40022C4372400201304845C6A20C16706C6F1
:1045F400FD17630EF500B727002003C6076FB72524
:1046040000209385853BEF809078FD577EA0B240D3
:1046140022444101828009C925151375F50F13350C
:10462400850E134515008280014582802390050084
:10463400C1C6797122D426D24ECE52CC5AC806D6DF
:104644004AD056CA5EC63684328AAE892A8B8144E1
:1046540063F24407B30794009C23138914004209AE
:10466400939A070193DA0A011359090163840A042E
:10467400CA976341FA04B307240183CB07005E851C
:10468400593F0DC99387FAFF2390F90063906B0398
:10469400130519002295B250225492540259F2493A
:1046A400624AD24A424BB24B45618280D694C204DC
:1046B400C18079BF0145C5B701458280011122CC73
:1046C4003724002026CA4AC84EC69307845C06CE07
:1046D4002E89D0CB8CCBC8C7AA8441469305F00F52
:1046E4004A8597C0FB1FE780A0D385491304845CE7
:1046F400631935030848C145513D41469305F00F00
:10470400268597C0FB1FE780A0D1054963152503C3
:1047140048446244F240D2444249B249C145056129
:10472400B5B5414681454A8597C0FB1FE78040CF18
:10473400E31535FDC1B741468145268597C0FB1F6A
:10474400E78000CEE30625FDF2406244D2444249AC
:10475400B24905618280411122C43724002026C257
:104764004AC0AE842A891306000281451305845C7D
:1047740006C697C0FB1FE78000C19307845CA38132
:104784002701B7270020238A976EEFC0E06685478C
:1047940019C1814749452304F45CB2402244924440
:1047A400024941018280814791C909C9854763193A
:1047B400F500DC3193E707FCDCB185473E85828058
:1047C40089476316F500DC3193F7F703F5B70D4716
:1047D4008547E315E5FED8311377F703136707041C
:1047E400D8B1E9BF814785C119CDD8319306000CF2
:1047F40085471377070C6308D700930600048D4799
:104804006303D70089473E858280411122C4005D3D
:1048140006C626C21DC8AA84085009C597C0FB1F36
:10482400E780408D485009C597C0FB1FE780808C06
:10483400085409C597C0FB1FE780C08B228597C029
:10484400FB1FE780208B23AC0402B2402244924435
:104854004101828019E9B727002083C7A75C91C76B
:10486400372500201305853982803725002013055C
:10487400055E8280B727002003C5A75C8280B72726
:10488400002003A5475D8280B727002003A5875D2C
:104894008280B727002083A7C75D88438280B7271B
:1048A40000209387875CD44B9842050798C2A833AD
:1048B4009307F00F6305F50091656FE0AF80828088
:1048C400011122CC06CE2E8432C6EF80D07A9147D5
:1048D400B2456310F502B727002083A7473B95C371
:1048E40003A30700630F030022856244F2400561BD
:1048F4000283B727002083A7C73A81C703A34700D1
:10490400D5B7F2406244054505618280011122CC8D
:104914002A844A2106CE26CA4AC84EC697C0FB1F1F
:10492400E78000E82DC52A8904218349C500F13DAB
:104934004A85EF9010464A20EF80306F37290020D7
:104944001309093C83470900B9C763969704B7273D
:10495400002083C5173C2685A93C19E123000900E2
:104964004A20EF8050719147631CF500B72700205F
:104974009387875C5620FA236394E6007D57FAA355
:10498400F2406244D2444249B2490561828081497D
:104994009304F00F65B79307F00FE383F4FC7420DE
:1049A400522028204E87A685853E5DBF79715EC65C
:1049B400AA8B2E8552CC56CA5AC806D622D426D2E1
:1049C4004AD04ECEAE8A328B368A97C0FB1FE78020
:1049D40020DD6DC1045D2A89F1CC9C50614599C3E9
:1049E400130540039C5481C7510542054181630569
:1049F4000A00710542054181DC5081C75905420511
:104A04004181EFD07FBA2A8455C56146814597C05C
:104A1400FB1FE7804097B727002083C98761639411
:104A2400090083490900930700FD1CA0A947A300BE
:104A340074013CA0230364018C5023125401130518
:104A4400840191C908C47146930A440397C0FB1FAB
:104A5400E780209056858C5491C948C45146930AE6
:104A6400450197C0FB1FE780C08E5685630C0A0082
:104A740008C87146D285930AC50197C0FB1FE78019
:104A8400408D5685CC5099C548C8594697C0FB1FE0
:104A9400E780208CA2854E85EFD03FB52254B250DA
:104AA4009254F249624AD24A424BB24B4A85025965
:104AB4004561A1BBB250225492540259F249624A50
:104AC400D24A424BB24B4561828001114EC6AA893B
:104AD4002E854AC806CE22CC26CA2E8997C0FB1F33
:104AE400E78000CC29C5B727002083C4876191E003
:104AF40004211945EFD05FAB2A8415C981451946B5
:104B040097C0FB1FE7802088930700FD1CA0B947CE
:104B1400A30034013CA023122401A2856244F24084
:104B24004249B2492685D24405616FD01FACF24098
:104B34006244D2444249B2490561828039715ECEF1
:104B4400AA8B2E8526DA4ED652D456D25AD006DEF9
:104B540022DC4AD8AE84328BB68A3A8ABE8942C6EF
:104B640097C0FB1FE780C0C329C92A894145EFD0FC
:104B7400BFA32A8439C14146814597C0FB1FE78002
:104B84008080B727002003C5876119E10345090028
:104B9400930700FD1CA0BD473CA0B247A3007401CD
:104BA40046A023046401A304540123054401A3057E
:104BB40034015CC4A285EFD05FA3F2506254D25496
:104BC4004259B259225A925A025BF24B21618280B5
:104BD400797126D2AA8439454AD04ECE06D622D43B
:104BE4002EC6B2893689EFD03F9C0DCDB2459307CE
:104BF400000D1EA1B1472A844EA13CA1CE85190502
:104C0400194697B0FB1FE780C07423062401A285D0
:104C14002254B2500259F24913F5F40F92544561EB
:104C24006FD0BF9CB250225492540259F24945614C
:104C34008280411126C2B72400209384845CB8305A
:104C440006C622C44AC09307F00F6306F7042A89F4
:104C54003945EFD07F952A841DCD930700FDB725F4
:104C640000201CA1A3002501230105009385055EF6
:104C74000D05194697B0FB1FE780A06D9E24A28501
:104C8400A8303EA49C305CA42244B2409244024921
:104C940041016FD09F95B2402244924402494101A0
:104CA400828001115AC02A8B314526CA4EC652C48D
:104CB40056C206CE22CC4AC8AE84B28A368ABA8993
:104CC400EFD09F8E2DCD2A84268597C0FB1FE780C9
:104CD40020AD09C55825A1476311F704B727002063
:104CE40003C9B75C930700FD1CA09D47A3006401A2
:104CF4003CA046A02313540123144401231534017A
:104D0400A2856244F240D244B249224A924A024BFA
:104D14004A85424905616FD05F8DB727002003C9DA
:104D2400576FE3110BFCB727002083A707489C4764
:104D3400D5DBCE865286D6852685829765B7F24026
:104D44006244D2444249B249224A924A024B056122
:104D54008280011122CC2A84214506CE2EC6EFD0B2
:104D6400BF8415C5B245930700FD1CA1C5473CA1EE
:104D7400BC313CB1DE215EA1FC217CA1FC31AA85C1
:104D84007CB122856244F24005616FD01F86F240F7
:104D9400624405618280397162CC2A8C594526DAD5
:104DA4004AD84ED652D456D25AD05ECE06DE22DC33
:104DB400AE8432C636C4BA8B3E8BC28A468A8359C5
:104DC400010403494104EFD02FFE2DC53246930759
:104DD40000FDA2461CA1954730B1A30085013CA16A
:104DE4002A8419461105A9C2B68597B0FB1FE7802E
:104DF400405623066401230A240123157401231752
:104E040054012318440123193401A2856254F25039
:104E14004259B259225A925A025BF24B624C26858D
:104E2400D25421616FD06FFC814597B0FB1FE7809E
:104E34008055C1B7F2506254D2544259B259225AE1
:104E4400925A025BF24B624C21618280411122C46E
:104E5400372400201304845C3C2006C626C285CB7C
:104E6400B7240020AA8519461385843997B0FB1FFF
:104E7400E780204E282093858439EFF0DF92224486
:104E8400B24013858439924441016FB0B077B24087
:104E940022449244014541018280411126C2B72433
:104EA40000209387845C06C622C44AC0B8339307A3
:104EB400F00F9384845C630FF7022A892945EFD0AD
:104EC400AFEE2A8405C9930700FD1CA1A147A300E6
:104ED40025013CA1BC20B7250020938585393CB130
:104EE4001946110597B0FB1FE780A046A830A2859C
:104EF400EFD0AFEFB8208D476311F702B72700203A
:104F040083A7073B99CB03A38700630803002244CC
:104F1400B2409244024941010283B2402244924485
:104F2400024941018280797122D406D626D24AD020
:104F34004ECE52CC56CA09444DCD2A890A21AE8997
:104F4400514497C0FB1FE780A085AA845DC1372721
:104F540000209307076FDC238546BA8AFD1793F771
:104F6400F70F494463F7F6085825A1476314F7007F
:104F7400639109089C5C4544ADEF91659385457147
:104F84001305C00297B0FB1FE780800B88DC2A8AD8
:104F94004D4425C11306C002814597B0FB1FE7802D
:104FA400803E8357090093064A0036852311FA0090
:104FB40071469305490036C697B0FB1FE7806039F8
:104FC40089472300FA00C824B2460356090083C562
:104FD4000A6F611513351500EFA0D06C2A8463861F
:104FE4000900CE852685EF90500401C42685EFF094
:104FF400DF812285B250225492540259F249624A06
:10500400D24A45618280B727002083C7476F05478E
:10501400FD1793F7F70F6377F708894749C601111E
:1050240022CC26CA4AC84EC652C406CEAA89368A9B
:10503400B2842E8997B0FB1FE78080762A84D147FB
:1050440031C5485509C597B0FB1FE780A00AF14553
:10505400268597B0FB1FE780603548D4CD471DC532
:10506400542421478147639DE600630B0A00382DD1
:10507400122993062501AA854E85EF80D078AA8748
:105084005820630E09001367670058A0F240624479
:10509400D2444249B249224A3E850561828013675F
:1050A4004700E5B7C9473E8582809307B00363EAAA
:1050B400A700B72700209387875E06053E950A213F
:1050C400828041657D158280011122CC2A842E853F
:1050D40026CA06CEAE8497B0FB1FE780606C0DCD68
:1050E400B7470F009387F723094563E28702814599
:1050F4000A85414697B0FB1FE780E028A6856080BB
:105104000A8541804081A3010100EFA0B03BF24039
:105114006244D244056182804945D5BFB727002047
:105124002389A76E82806FA05050797152CC2A8A4D
:10513400328522D426D24AD04ECE56CA5AC85EC62A
:1051440006D662C4AE8BB28A368BBA843E89C289D3
:10515400468497B0FB1FE780A0640DC92A8C6313B3
:105164000A0213774B005C2115CF93E72701230232
:10517400FC008DEC631C0902639A090205E8ED9BAF
:105184002302FC00832B8C0363910B08B25022543E
:1051940092540259F249624AD24A424BB24B224CCF
:1051A40045618280F59B93E70701D1B793E74700F8
:1051B4002302FC0001CC1C484146A2852324FC02A6
:1051C40013058C0197B0FB1FE780A01863930B02B3
:1051D400D5D80325CC0209C597B0FB1FE78080F121
:1051E400F145268597B0FB1FE780401C2326AC02BF
:1051F40051BFE30909F80325CC0209C597B0FB1F89
:10520400E78040EFF1454A85F1BF9DC483A70B02B7
:1052140099EB916593853571714597B0FB1FE780D4
:1052240020E223A0AB0203A50B0219C57146A68593
:1052340097B0FB1FE780E0116388090283A74B0244
:1052440099EB916593852571594597B0FB1FE780CC
:1052540020DF23A2AB0203A54B0219C55946CE8514
:1052640097B0FB1FE780E00E1DC483A78B0299EB68
:10527400916593851571514597B0FB1FE78040DC1C
:1052840023A4AB0203A58B0219C55146A28597B08E
:10529400FB1FE780000C2254B2509254F249B24BE7
:1052A400224CCA865A860259424BD6855285D24A26
:1052B400624A45616FF08FEF011126CA52C406CECF
:1052C40022CC4AC84EC62A8AAE8497B0FB1FE78018
:1052D400204D25C1AA893945EFD00FAD2A8431C9A3
:1052E400B727002003C987616314090003C90900B3
:1052F4009307000D1EA0AD473CA0938569001305DC
:105304003400194697B0FB1FE780A00493F71400FC
:10531400858085885CA444B423154401A285624435
:10532400F240D244B249224A4A85424905616FD0CB
:10533400CFABF2406244D2444249B249224A0561A9
:105344008280411122C4372400201304043A084007
:1053540006C619C597B0FB1FE780C0D923200400F7
:10536400B240224441018280011106CE22CC26CAD9
:105374004AC82EC697B0FB1FE780804221CDB245B4
:10538400B727002003C987610CD5AA8463140900D8
:10539400034905004145EFD02FA12A8405CD930789
:1053A400000D1EA1A5473CA1DC30938564001105C6
:1053B400A30FF5FE194697B0FB1FE78080F99C54B4
:1053C400A285F2405CC46244D2444A8542490561E4
:1053D4006FD0AFA1F2406244D24442490561828059
:1053E400797122D406D62A842EC697B0FB1FE78093
:1053F400203B1DC954251147AA8749456392E602FB
:105404009C5FB24591C3EC2B0808EF90004BB7F6B4
:1054140004009386C616100889452285EF80F04360
:10542400B2502254456182805145DDBFB727002028
:1054340083C7476F0547FD1793F7F70F637AF704A0
:10544400894721CA411122C426C24AC006C6B28471
:105454002E8997B0FB1FE780A0342A84D14715C159
:10546400630609005C2193E727005CA14146A685F9
:105474001305840197B0FB1FE780A0ED9C481CD462
:105484008147B2402244924402493E8541018280D0
:10549400C9473E858280797122D406D62A842EC6D5
:1054A40097B0FB1FE780C02F01CDB2452285230EA4
:1054B400B1006C08EF900034B250225445618280F0
:1054C4005145DDBF6F800030C1671387E7FF6395E7
:1054D400E502B727002083A7C73A91EB49458280AC
:1054E4004945B2402244924402494101828003A3C7
:1054F4000700E30503FE0283411122C426C24AC009
:1055040006C6FD172A892E84B284639AF502B7274A
:10551400002083A7C73A91CF9C4381CF829711E99A
:10552400B72700202380273DB7270020A380973C7E
:105534004DBFA6854A85EFE0DFE745F5D5B72E8553
:1055440097B0FB1FE780C02541DD1C210D45E39A80
:1055540027F922852244B2400249A685924441019A
:105564006FB050071307B003636FA7044111C167FD
:1055740022C406C626C2FD172A8409456381F502A2
:10558400C547AE846312F4022E85EFB0300C372584
:1055940000201305855E06042A9406A00145B24046
:1055A40022449244410182809307A0036316F400CD
:1055B4002E85EFB0F002E1BFE31BE4FC13F5F50F19
:1055C400EFB05002E9B709458280011106CE2AC620
:1055D400EFE03FE0EF20804FEF107001EF10522A10
:1055E400B72700209387875C130700F0BAA32382B0
:1055F4000700B727002032451387076FFD5634A3F1
:10560400F2402388A76E954505616F60F045597196
:1056140093970501CAD086D6A2D4A6D2CECED2CC38
:10562400D6CADAC8DEC6E2C4E6C2EAC06EDEC18704
:105634002E8963D10750B724002003C5046FB7290E
:105644000020372B002097B0FB1FE78080BB2A8403
:1056540026CEB72A0020372C00209384895CB72CEF
:1056640000201DE021653345A900B6502654965408
:105674000659F649664AD64A464BB64B264C964CD2
:10568400064DF25D656182801C201307200A639B2E
:10569400E70003CA34002A20C1652286FD15EFF015
:1056A4002FA2A1AA72471307076F034A2700130703
:1056B4001009639FE7141C3015476391E7022285A4
:1056C400EFF0CFA42285EFC07FEBF24703C5076F4D
:1056D40097B0FB1FE780E0B22A8461B73947639132
:1056E400E7164A208567A5076315F5040C4483CBA8
:1056F4000500639D0B00850591C9372500201946D7
:105704001305055E97B0FB1FE780A0C403C7895C3F
:105714008547631FF70E63880B002384095C5E854D
:10572400EFF02FD145B789472384F95CEFB0406D82
:1057340051BF8967138727006318E504832B84000E
:1057440063880B0C83C70B0099EB83C72B0003C73B
:105754001B00A207D98F9EA483C73B009CB003C73C
:10576400895C89476316F70A83C70B0091C72384B2
:10577400095C03C50B006DB78C308A248D472384E4
:10578400F95CEF603031F5B795076317F5001C44F9
:105794008823EFF08FF03DB7F9771387A7FF2A9797
:1057A40042074183914663F1E6049387A7FCAA97D5
:1057B400C207C18371476371F70289671387B70012
:1057C4006310E50483A78A3AE38E07EE9C43A2851F
:1057D400E38A07EE829715A0370700181307F770BE
:1057E400B357F700858BB9C783270B3BE38C07ECD2
:1057F4009C43E38907EC22858297E31505EC09A80D
:105804001387C700631FE5001C449C23E38C07EA4D
:105814009307F00FE308FAEAA2855285EFC0FFDC94
:105824006DB5B9076318F50083A7CC3AE38C07E894
:10583400DC4371BF896793871704E305F5F8C9BF93
:105844003D476397E7044A2089671387D700E30D30
:10585400E5FC13879701E309E5FCCD07E31AF5FAA4
:10586400FA20C167FD17631DF70083A7CC3AE38BC9
:1058740007E4DC43E38807E40965A2854D0599BF85
:10588400B727002083A7473BE38E07E29C43DDB79D
:105894001307E003E39EE7F63C200547639AE70C11
:1058A4007C2037270020930D073ADDE783A70D00FE
:1058B400CDC383CB0700214A6830130D8400EA85E9
:1058C400EFE05FF25C2868B0835804010358E400F9
:1058D4005A202A8628303EC23E28EA86DE853EC00B
:1058E400D287EFF04FCB3C3095E3DD47835804017A
:1058F4000358E40074304E203EC23E283EC06A87FE
:10590400D28705465E85EF80E00D28B083A70D00A1
:1059140081C71145EFF0FFA2930B0C3C03C50B00AC
:10592400E30205DAB727002083C5173CEFE07FA820
:10593400E30A05D83430930710036389F600522034
:1059440083C50B0052873685EFE01FBD23000C3C56
:1059540095BB83CB340085B783270B3B83CB3400C3
:10596400114AB9DBDC43A9DB814501458297A9B71C
:1059740029476396E7087C2037270020930D073AD0
:10598400BDE383A70D00A9CF83CB0700214A68306C
:10599400130D8400937725001376150089E7EA85B3
:1059A400EFE05FE42A868347040270B08358C401A1
:1059B4000358A4015A2028303EC27E2CEA86DE8594
:1059C4003EC0D287EFF02FBD3C30A9F3DD478358AA
:1059D400C4010358A40174304E203EC27E2C39BF4A
:1059E40083CB340065B783270B3B83CB3400114A48
:1059F400D9DFDC43C9DF81450145829749BF0947A7
:105A0400639CE70083A78A3AE38E07CADC43E38BEF
:105A140007CA228582977DB12D476398E70083A743
:105A24008A3AE38107CA9C47DDB70D476396E700CE
:105A340022868D454A20A5B11947639CE704930546
:105A4400610213051031EF10026C2C101305203184
:105A5400EF10626B7220835781024A2063E7C7000C
:105A640016240357610263F7E60093050002EFB0C2
:105A7400E03C89B96373E6007AA063F3D7001EA4FF
:105A84005A24362412246E2001488147EFB0C03ACC
:105A940015B91D47E38EE7D631476395E7002286A3
:105AA400B14549BF35476398E70083A78A3AE38B3A
:105AB40007C0DC47A9BF39476396E7002285EF009A
:105AC400E07909B13D476398E70083A78A3AE38BFD
