:020000024000BC
:100000006F00722500000000001801180028012868
:100010000228032800290129022903290429052986
:10002000062907290829002A012A022A032A042A64
:10003000052AA62A0C0E06006022040004040020F3
:100040004E040020C0030020AE03002076030020F1
:10005000D822040004230400C82304006E250400F1
:1000600018260400EC2004007A200400220200205C
:10007000A6200400942A04004A050020AE220400B1
:100080008827040040C9050038CB0500B0CB050027
:1000900092870500A6870500CC420500783605004A
:1000A00048C30500BE270400768F050076DD0400F6
:1000B0000CDE04006CDE04005A330400A633040096
:1000C00010320400889A040044950400AA07002016
:1000D0006EA7040022AB0400B08704004E87040022
:1000E000468B0400FC87040024870400A8870400D2
:1000F000D686040084880400DC8804008C88040010
:10010000908804002A890400E48804001689040009
:100110003E8E0400428E040080880400888804001B
:1001200028890400408E0400E0890400768F0400D2
:1001300092B9040010BA04004EBA0400B49C040042
:10014000CC9C0400089D04004C8104003082040013
:1001500098820400165204003C4D0400C477040049
:10016000BE4D04000873040044EF050052EC050086
:1001700046F605000E060600DE040600E20806004C
:10018000CA080600DA0806002209060036DD050066
:100190001E09060014FD05003AFD050062FD05007C
:1001A00092090600D80206006A020600020A06004A
:1001B000F2DD05008EDE0500B6DE050058DE050026
:1001C00084A80500B29405002098050096950500C6
:1001D0006C9E0500E8C30500CEC205006ADD05007F
:1001E000582C0400AE880500568F05004E9005007F
:1001F00074BC050014BD050024BE0500BAA00400AF
:1002000032A80500EC9E0500E4A4050084A10500C9
:1002100062940500420700205C8905000A09060077
:10022000CE080600D6080600D208060022250400E3
:10023000069E0400120906007EAA0500D0AB050048
:1002400030AC050084F605000E090600160906000C
:10025000043605001A09060044150020E2190020A2
:10026000000000000000000000000000000000008E
:10027000000000000000000000000000000000007E
:100280006373B60082801C419105110523AEF5FE13
:10029000C5BFB727002037270020938787E91307BA
:1002A000C73E6373F700828023A007009107D5BF84
:1002B0005DCDAA870145D5CD8D07C207C183F19BCE
:1002C000C207C18313074003636CF702372700207E
:1002D00003254703372700208326C7026397A6021A
:1002E000372700200327470C014541C74111C207AA
:1002F00006C60545DD8D0297B24001454101828069
:100300003727002003250703F1B70357650031EFB6
:1003100003574500636BF704B72600203306F74008
:1003200021489386C6036378C8028328050003D852
:100330006600138687001D8F2A9661172312E60038
:10034000232016012313060010C12312F500130702
:1003500088FF2393E6002313B50083D566002105AB
:10036000B387F5402393F6008280084185BF01459D
:100370008280828009CDB727002003A34703B727D7
:10038000002083A8C70281469A8763E31701828011
:1003900003A807006369F50A6367A80A1387870043
:1003A000E367E5FE03D66700216705076319E600EA
:1003B00037260020034746F205072302E6F23726D8
:1003C00000201305C60383D5470003576500239318
:1003D00007001306C6032E97420741832313E50047
:1003E0006387670237250020032505036301F502B3
:1003F00003D5660009ED83D7460023A00601210737
:10040000BE95A1052392B6002313E600B687984354
:10041000E30F17F7B726002083A60603E309D7F6F4
:1004200083566700ADF683D64700835547001843CF
:10043000A106AE962392D70098C383576600A10702
:100440002313F6008280BE86C28781B7B7270020BB
:10045000B726002083A7470303A6C6022A87B30551
:10046000B5406314F6003A8529A8938687009C431B
:10047000E369D7FEE377F7FE2E85E3E4D5FEE3F2EA
:10048000F5FE828023AC05FE1C4191E701000100CE
:100490000CC18280BA8703A787FF6DFF23ACB7FE2C
:1004A0008280411126C2B724002083A7840322C47E
:1004B0004AC006C60144014981EBA165972004E0CA
:1004C000E78020330DC819A803C7E7FF631CA70204
:1004D0001DCCA165972004E0E780400803A78403B2
:1004E000832784FF6317E40223ACF402FD57232C17
:1004F00004FE230FF4FE2285B240224492440249B6
:100500004101828011E03E8983A787FF75B73E8451
:10051000E5BF232CF9FED9BFB727002083A7C70862
:1005200099E33E85828003D727006316B70003C78F
:100530000700E308A7FEDC47E5B70111680006CE17
:1005400022CC974005E0E78020EFFD576307F508D0
:10055000324741C3372400201304C4031848630DF5
:10056000F700B727002083A7870D829732471C48E2
:100570006373F700BA873E953724002093078433CE
:100580009C4F1304843399CBB727002083A6873967
:100590003707CDFF7D179C46F98F9CC6B7270020F3
:1005A00083A7870B829719E91C4C85C7979005E0B4
:1005B000E78060E3978005E0E780C0581C4C91CB52
:1005C000B727002003A78739B70633001C47D58F0C
:1005D0001CC7F24062440561828037240020130466
:1005E000C4031C48E387A7FEB727002083A7870D15
:1005F00082971C4849B719CD91CD09CE81473387E1
:10060000F500834607003307F50085072300D70070
:10061000E397C7FE828019C991C909CA910583A7CA
:10062000C5FF11057D16232EF5FEC5BF828001C9C9
:1006300019C62A960505A30FB5FEE31DA6FE828006
:1006400081473307F5000307070019E33E858280E1
:100650008507C5BF01112E8626CAAA841315060177
:100660009305F004418122CC06CE32C691312A8412
:1006700001C53246A68541372285F2406244D24404
:1006800005618280854715C18DC105C28147B306CA
:10069000F5003387F50083C606000347070063981B
:1006A000E6008507E315F6FE85473E858280814793
:1006B000EDBF9307F6FFBE952A966313C5008280AF
:1006C000FD1583C715000505A30FF5FEFDB7AA8725
:1006D000014581CF09CE3E96850703C7F7FF631713
:1006E000B700E31BF6FE05458280828001458280CB
:1006F00079714AD03729002022D40324C90806D6AC
:1007000026D24ECE52CC56CA5AC85EC651C037CA3F
:10071000C901B72A0020B72900208144372B0020C7
:10072000130AFA37938A0A099389C9038357240065
:1007300099EB5C44ADE82326F908832BC40022859D
:1007400015395E841DA883278B0D82971C443307BF
:10075000F540636CEA0423A809008355240003458F
:100760000400972004E0E78060DF54405C44F9D245
:100770001844A284369718C43E844DF8B727002049
:100780009387C703984B894663FEE602791798CB97
:10079000B250225492540259F249624AD24A424B10
:1007A000B24B45618280DCC449BF03A78A0201CBFA
:1007B00003A70901898F63F4E70023A8F900A28445
:1007C000404465BF23A80700E1B701114AC8372993
:1007D00000208327890606CE22CC26CA4EC652C4E4
:1007E00056C25AC081C782972324090693078906F7
:1007F000DC43372400201304840691C382978327A7
:10080000890663950716B72400209387843383C72E
:10081000570093848433858B8DC303C77400A382F0
:100820000400914763FBE700EF10200783C77400C3
:10083000F9178A07A2979C438297372A00209307CB
:100840008A3783C7C700130A8A37918B99C3EF1081
:10085000006E1C4491C3829737240020B7290020E2
:100860009307C40303A7890803C61700930AC403A8
:100870008347C40393961700BA9683D60600ADCE7D
:100880008347C40363E2C70883278906230E040253
:10089000F1EF83C7940091CB83C7740099E7A384D9
:1008A0000400978005E0E7804066B727002083A713
:1008B000870DCDCFFD5723A8FA001D3DB727002097
:1008C00083A7870BC5C703C77400914763E0E70A96
:1008D0008347CA00918BD9EB83C61A0003A6890807
:1008E00063C0D70A6244F240D2444249B249224A24
:1008F000924A024B056191B1850793F7F70F230EDA
:10090000F402E3E7C7F6ADBF86073E9783550700BD
:10091000231007000345C403B727002083A7470619
:1009200013172500372B0020BA979C4323120B087E
:10093000829783574B080347C40393C7F7FF7D8D06
:100940009317170003A789083E97835707005D8D0B
:100950002310A7008347C40381C78507230EF40231
:100960000347C40383C71A00E370F7F2F2406244FE
:10097000D2444249B249224A924A024B05618280DE
:10098000139717003297035707006DF3850789BF48
:10099000AD6737470240BD072326F7200F10000040
:1009A000B72700209387C703C84F83278726BD66D4
:1009B000BD0693C7F7FF99836A052326D7205D8D6F
:1009C00082808280B727002003C6C720B727002077
:1009D00003A787EF81476315F6008146368582803D
:1009E000BA8613078702835587FDE389A5FE85072D
:1009F00093F7F70FCDB7B727002083A707F103D7E9
:100A000007006300A70283D6670013876700638827
:100A1000A6001387C70083D7C7006396A7003A854F
:100A200082803E87EDBF0147DDBFB727002003A7C7
:100A300087F019E3014615A81C4703D8A700636B8C
:100A4000050183584700B38608016355D5008146E8
:100A5000639416011843F1BF3E86C10703D3A7FF75
:100A60006317A30099C12390050132858280850612
:100A7000C206C182F1BFB727002003C6C720B7272F
:100A8000002003A7071D81476315F60081463685C0
:100A90008280BA861307C703835567FCE389A5FEE6
:100AA000850793F7F70FCDB703278511630007126A
:100AB000411122C406C68347C5008345C5042A8464
:100AC00093F7C70F2306F500834697000356C70028
:100AD00013958601618563F1C508635A05060345D0
:100AE000870093F6F607A304D700054693E6270090
:100AF0006314C50093E617002306D4005C438907FE
:100B00005CC3A30AB400032504112E864C430905D7
:100B1000DD348327841103465401D44303D7C7002F
:100B2000B296118FD4C32396E7008947A30DF40032
:100B3000B72700200347440383C7270A6378F704D5
:100B40008347C40093E707012306F40081A093E7DD
:100B500017002306F40075B79376F60F635D050260
:100B600003458700854513E627006314B50013E6A7
:100B700017002306C400A30AD400A3040700854776
:100B8000A30DF400832784119C43DDF3B24022447B
:100B900001454101828093E717002306F400A30A70
:100BA000D400A3040700032504114C430905A13414
:100BB0008327841103465401D44303D7C700B29658
:100BC000118FD4C32396E7008D475DBF0545828012
:100BD000B727002083A78732411122C406C6858B20
:100BE0002A84DDEB4165130525F5974005E0E78094
:100BF000C0455DC18347A5002315F5008327041276
:100C0000B5E72320A4122322A41285472310F4045D
:100C1000232005008347640154412316F500034750
:100C2000D4002304E5000547A304E500372700208E
:100C3000032707351385170215811C437D1513758E
:100C4000F50F9CC25C43DCC21C479CC65C47DCC6FB
:100C50001C4B9CCA5C4BDCCA1C4F9CCE5C4FDCCE50
:100C600019CD9386060213070702C1BF83274412DA
:100C700088C3835704042322A412850741BFB727E2
:100C800000209387872103D7870005072394E70077
:100C9000B2402244410182808347C40023090400FA
:100CA000054593C747002306F400DDB78347850158
:100CB00093F7E70FD5E783479501DDE30346250169
:100CC0008346C50009CA37270020834545030347EB
:100CD000370A63E7E50013F7060141C7014709C674
:100CE000C18A0357851881C68356C518369735CBF8
:100CF000B72600209386060903D6E601B7470F0002
:100D000093870724B3C7C7021307C712411122C430
:100D100026C206C67D543357F70283C77601B384D3
:100D2000E700B727002083A6072A83A7060963F3F5
:100D300087003E849442F5FAB727002083A7870DE9
:100D4000829781476364A400B307A440B240224461
:100D5000B3B7970093C7170092443E854101828044
:100D600081473E858280B72600209387862183A70E
:100D7000870863880744797126D293868621B72431
:100D800000201387040903A506090353E701374729
:100D90000F0006D622D44AD04ECE52CC56CA5AC8DC
:100DA0005EC662C40148FD5893840409130EF723FC
:100DB0001306072403D7470883A5070933076702EB
:100DC00072973357C7023387E540637517013E8535
:100DD000BA8805489C43F9FF6304080023A8A608C5
:100DE00003A40609B7490F00938BF9233729002084
:100DF000930A0032130B204E054A93890924832756
:100E0000890D032C040982976374852D83D6E40130
:100E10000357440883C77401330CAC403307D7022F
:100E20005E97335737033E97636C87218357E403FC
:100E3000A30F040022858507231FF40283470414AF
:100E4000DDCB25212285974005E0E780208741E919
:100E500083D5E4010357440837460F009307F62370
:100E60003307B7021306062483260409230A040263
:100E70003E973357C7028327C4083387E640BE96A0
:100E80008347B4002324E4082328D4080547639645
:100E9000E7060357E4070356A4036360E606034628
:100EA0000401631CF60483278411A1EB8327440A01
:100EB000A9E70346F4009D476311F60483578403B2
:100EC000B387E7021307204EB387E70203274409DD
:100ED000B3D7E70203C76401BA972312F408B250EC
:100EE000225492540259F249624AD24A424BB24BBE
:100EF000224C45618280F924B1B7835704029DCF0B
:100F00000357E403035644022312E4023306C740A6
:100F100037470F00130707243347B702B387C702C9
:100F200003562402B297C207C1832311F40263E778
:100F3000E700B3D7E702B6972328F4088327890D83
:100F40008297AA898327890D8297E30D35FF83272E
:100F5000890D8329840882973385A94055C5832745
:100F6000C4086373F50A83D7E40137470F001307FA
:100F70000724B347F7023726002083254635B56698
:100F8000BD06B387A70203552402D4C5AA970F1044
:100F90000000832646350966930500F890C637267B
:100FA0000020130686332302B6008607FCD2BD67F5
:100FB000BD07DCC683D7E40183562402B347F7029A
:100FC00063E9F60033D7F602B307F7029D8E2311CB
:100FD000D402978005E0E78080F0978005E0E78005
:100FE000A0F80347B4008547E31BF7EE37850500FB
:100FF00081451305A5B4972004E0E780C0909307CE
:1010000000FD2307F400E1BD0347B400854703A3B7
:1010100044036317F7009545E30303EC154529A046
:10102000E30F03EA954519452254B25092540259F0
:10103000F249624AD24A424BB24B224C456102838A
:10104000635D0C048357E4038507231FF402834781
:10105000041499E32285BD222285973005E0E780BC
:10106000E065832704090327C408BA972328F408F6
:101070008347B400639747012285977005E0E780B6
:10108000A0878347F40185458507A30FF400DC584A
:10109000E38707D6154582979DB38357C40313078B
:1010A00000328E07B387D70293870719B3D7E702B9
:1010B000E3F787E3A1452285973005E0E780805775
:1010C0002305A40203A344038945E31903F401BDE6
:1010D0008357C40303D7E401330C85418E07B387DC
:1010E000E70293870719B3D75703637CFC0A83276A
:1010F000890D82978357E4032A8C8507231FF40206
:101100008347041499E3228575282285973005E0EA
:10111000E780C05AE31505DC832704090327C408C8
:10112000BA972328F4088347F40113F7070F25C360
:101130002285973005E0E7808015A30F0400832700
:101140000409E376FCFA8356E407835784030327F4
:101150004409B387D702B3876703B3D7E70203C74E
:1011600064010607BA972312F4088347B400639416
:1011700047038357A403E3F4D7C82285976005E0AB
:10118000E7808077DC58E38C07C68D4521B785075B
:10119000A30FF4006DB7DC58E38307C68D451945EE
:1011A000DDBDE34E0CD2A1452285973005E0E780F6
:1011B00060482305A40203A34403E30203D291453C
:1011C000B1BD8280797126D206D622D44AD04ECEC5
:1011D00052CC56CA5AC85EC68347350303447513BA
:1011E000AA843E941374F40F9307400263F68700B9
:1011F0001304B4FD1374F40F03AA841383AAC41355
:10120000A38B841222865285D685970006E0E7805C
:1012100000B1058915E503CBD41201498149337B1F
:101220006403930B50024A865285D685970006E0E8
:10123000E780E0AE058915C5639169031374F90F62
:10124000238B8412B250225492540259F249624ABA
:10125000D24A424BB24B456182808509E20993D95B
:1012600089410509E31179FDE1BF8327850903560B
:10127000E503797193D60701BD8EC206C182358E12
:101280001357764093575640898B058B5D8F935744
:101290003640918B5D8F93571640A18B5D8F9317CE
:1012A0001600C18B5D8F9317360093F707025D8F91
:1012B000931756009355860093F707041E065D8F1B
:1012C0001376F60F518F93D7554013D63540118AB8
:1012D000898BD18F13D67540D18F13D61540218AB3
:1012E000D18F13961500418AD18F1396350013764E
:1012F0000602D18F13965500137606049E05D18FF2
:1013000093F5F50FCD8FA20745465D8F3307C702D2
:1013100022D42A8426D252CC56CA032A8413832A82
:10132000C4135AC806D6369742074183935777406D
:10133000135557400989858BC98F1355374011893B
:10134000C98F135517402189C98F1315170041897B
:10135000C98F1315370013750502C98F1315570070
:1013600093558700137505041E07C98F1377F70F70
:10137000D98F13D5354013D755401189098B498F23
:1013800013D57540498F13D515402189498F139581
:1013900015004189498F1395350013750502498F52
:1013A00013955500137505049E05498F93F5F50FA8
:1013B0004D8F2207D98FB387C7024AD04ECE5EC663
:1013C00062C4B697C207C18313D7774013D557407D
:1013D0000989058B498F13D537401189498F13D55A
:1013E00017402189498F139517004189498F13951B
:1013F000370013750502498F1395570093D5870061
:10140000137505049E07498F93F7F70FD98F13D5EE
:10141000354013D755401189098B498F13D5754035
:10142000498F13D515402189498F1395150041899E
:10143000498F1395350013750502498F1395550093
:10144000137505049E05498F93F5F50F4D8F2207FF
:10145000D98FB387C702130650025285D685B69737
:10146000BD8E93940601C18033F6C402137BF60F40
:10147000970006E0E780A08A05890DED8347D41226
:1014800001498149B3849702130C5002C1804A86F6
:101490005285D685970006E0E78060880589937BB2
:1014A000F90F11C563863403850993F9F90F05090E
:1014B000E31F89FD230B6413B25022549254025946
:1014C000F249624AD24A424BB24B224C4561828079
:1014D0005E8BCDB70111B727002022CC03A4C72C07
:1014E00026CA4AC84EC606CEAA84130925008549D5
:1014F00015C083C7140003473400858B6304F700CD
:10150000405CFDB71946930544004A85EFF08F977C
:10151000E31835FF2285F2406244D2444249B24981
:10152000056182804111B727002022C403A4C72C83
:1015300026C24AC006C693042500054901E8228553
:10154000B24022449244024941018280A68513059B
:10155000A402976005E0E78060E8E30225FF405CB5
:10156000F1BF4111B727002022C403A4C72C26C213
:101570004AC006C693042500054901E82285B24009
:1015800022449244024941018280A6851305A401A8
:10159000976005E0E78080E4E30225FF405CF1BF4F
:1015A0000111B727002022CC03A4472C26CA06CE5F
:1015B0002AC42EC6854419E40145F2406244D2444F
:1015C000056182808347910003471400858B630483
:1015D000F7000044CDB719469305A1001305240078
:1015E000EFF04F8AE31795FE0545C1BFB7270020EE
:1015F00003A7473501112AC62EC432C206CE3C4B82
:1016000093E707083CCB978005E0E780408DB7263D
:10161000002083A7C6323245A24523A00700034716
:101620001500034825002207420842970348050099
:101630004297034835006208429798D70347550000
:101640000348650022074208429703484500429735
:101650000348750062084297D8D7034795000348AE
:10166000A500220742084297034885004297034895
:10167000B5006208429798DB0347D5000348E500B0
:101680002207420842970348C5000345F5004297E8
:1016900062052A97D8DB03C7150003C5250022077A
:1016A00042052A9703C505002A9703C53500620540
:1016B0002A9798CF03C7550003C565002207420546
:1016C0002A9703C545002A9703C5750062052A9726
:1016D000D8CF03C7950003C5A500220742052A9766
:1016E00003C585002A9703C5B50062052A9798D3DC
:1016F00003C7D50003C5E500220742052A9703C5A5
:10170000C50083C5F5002A97E2052E97D8D3D843A4
:10171000759BD8C3D84313671700D8C39843136782
:10172000170098C3124603A7C6325C43858BC9EBEA
:101730001C4F01452300F60083A7C6329C4FA183AE
:10174000A300F60083A7C6329C4FC1832301F60095
:1017500083A7C6329C4FE183A301F60083A7C6325C
:10176000D84F2302E600D84F2183A302E600D84FCA
:1017700041832303E600D84F6183A303E600985317
:101780002304E60098532183A304E6009853418381
:101790002305E60098536183A305E600D85323068A
:1017A000E600D8532183A306E600D85341832307DC
:1017B000E600DC53E183A307F600F2400561828076
:1017C000010095B73727002083260733411126C231
:1017D0009C5E06C622C499834AC0858BBA84A9CF71
:1017E00093070006372900209CDE834789331304C2
:1017F000893393F7070489CFB727002083A7870D84
:10180000829708C88347893393F7F70B230CF93283
:101810008347440093F7070485E38547A302F40058
:10182000B727002083A74735096798C7130700FC2F
:101830002302E4005844F8D303A704331C5F9183C8
:10184000858B91CBC1471CDFB72700209387873357
:1018500085462382D7001C5F9D83858B99CB930798
:1018600000081CDFB72700209387873305472382B2
:10187000E700B727002083A7C732D8430583058B2D
:1018800019C7D843759BD8C3D843799BD8C3B240F6
:1018900022449244024941018280B7270020B726A2
:1018A000002003A647359387863303C78633058B0D
:1018B00011C723820700A3820700828003C7170095
:1018C000058B65FB785275F303C75700EDB73728D2
:1018D0000020032708331C5F9583858BD1EF0DC64D
:1018E000B72700208398E725030306001C5BBD8310
:1018F0006301030893F7F71FB38717419A970947C6
:10190000B3C7E7022300F60085CA83270833985B34
:101910004607935767016356070093E707C0C2075E
:10192000C18303970600C207C18709C7BA97094751
:10193000B3C7E7022390F60095C18347150099CFFE
:101940003E95834795000547114593F6F706639644
:10195000E602E207E187314563C1070283270833C6
:101960003727002001459C5FED838D8BA301F73461
:101970008280B387174179B709458280411122C41B
:1019800006C63724002026C2032744352DE9AE873A
:101990007453FDFEB7240020938484333E85B285C2
:1019A00023810400977005E0E7800032B72700200C
:1019B00083A70733B70680009843558F98C3D8573D
:1019C000719BD8D783274435A3820400A3800400E9
:1019D000094798C383264435B72700209387873368
:1019E00003C72700058B19E703C73700058B59C7C5
:1019F00023820700B24022449244410182808D47F5
:101A0000631FF500B727002083A70733B7068000C0
:101A10009843558F98C3D857719BD8D765BF8547D2
:101A2000E31AF5FAB567BD075CC70F1000008327FE
:101A300044350967930600F898C737270020130735
:101A400087332302D7003727002083260733094630
:101A5000984231830D8B6319C7001307E043F8D315
:101A60003D673D07D8C7BDB7984231830D8B01E76D
:101A700013076019EDB71307E01BD5B7F8522DF324
:101A800095BF5D7152DC372A002003270A3386C6D2
:101A9000A2C4A6C2CAC04EDE1C43B7290020372903
:101AA000002093F7F7E793E707081CC383A689395B
:101AB0003707CEFF7D179C46130680022A84F98FD4
:101AC0009CC6832749352800AE8423A807049305C4
:101AD0001008EFE0DFB5977005E0E78040409770B1
:101AE00005E0E780604883270A339376F41F3706C2
:101AF000330023A40700984B370FFCFF4E88136771
:101B0000F70398CBF84FCA88130510F8137707E04E
:101B1000558FF8CF9843F576FD16758F98C3372704
:101B200000208326493513078733A3020700A3004B
:101B30000700054798C29843D285B702040013777F
:101B4000F7E798C398439303401F11491377F7E7CA
:101B50001367071098C303A789397D1F85491C4760
:101B6000930F8002D18F1CC793079005BCCA014711
:101B7000340013533700269383470300137677000E
:101B8000B3D7C740858BE1C383A70533832E88393C
:101B9000239C07042390070603AECE02137EDEFFCC
:101BA00023A6CE0383AE0700137EF70793FE0EF83D
:101BB00033EECE0123A0C70103AE4702336E5E00B1
:101BC00023A2C70383AE4835014E23A27E0603DA63
:101BD000070663074E0303AE0703038A0600135E7E
:101BE000FE00620E135E8E416358CA0103AE070306
:101BF000135EFE002380C60103DE0706137EFE0F80
:101C000003AA4E0663060A0003DA8705E37F49FB51
:101C100003AE4702337EEE0123A2C703838706008B
:101C2000635CF400034E03003396C9001346F6FFCD
:101C30003376C6012300C3003E8663D3A7002A86FD
:101C400013158601618505071377F70F8506E312E3
:101C5000F7F3B640264496440649F259625A616148
:101C600082803726002083274635D84793161701F0
:101C700063D2060298479316170163DD06007D576D
:101C8000B8D7372700201307C703544F850654CF12
:101C9000116798C798470D83058B0DC33727002020
:101CA000130787338346270093E616002301D700E6
:101CB000930600F82302D700214798C79847058B61
:101CC00009CF37270020130787338346170093E691
:101CD0001600A300D700054798C798470983058BCE
:101CE00009E798470583058B21CF944737270020C4
:101CF000372500208982858A638006108326053374
:101D00009442B1828D8AF5E6AC4B93068733944EAC
:101D100093F5050283C61600DDC5E9EA9306700651
:101D2000D4CF8346873393E61600230CD73211476E
:101D300098C7032705335C57F19B93E717005CD7DF
:101D4000032746351C479396370163D40602B7270D
:101D500000209386872103C6C60693878721418A80
:101D600055C683C7C60693E707022386F60685672E
:101D70001CC71C479396270163D10602B727002092
:101D80009387873383C64700E206E18663D5060062
:101D900085462382D70089671CC71C479396070195
:101DA00063D20602B72700209387872183C6D70610
:101DB000858AADCE83C6D70693E62600A386D706CE
:101DC000A1671CC78280B9DA85456395B600930682
:101DD000B006B9B789456395B6009306F00689B792
:101DE0008D456395B600930630071DBF93065007D7
:101DF00005BF930660072DB7130787338346370067
:101E000093E61600A301D70009471DB783C6C7068E
:101E10000946BD8A6388C60083C6C7060D46BD8ACB
:101E2000E397C6F491462386D70691B783C6D706B3
:101E3000918AD9D683C6D70693E6860041B7B726DE
:101E400000203727002093878637130687350346FF
:101E5000B60183C7D7009386863713078735B297B5
:101E600093F7F70F7D466361F604A300F7008347FD
:101E70001700484B05463316F600A386F600698E18
:101E800005EE03C6160113080002814633F6C702A9
:101E90008147B355F500858993F8F70F99C9631702
:101EA000D600A300170182808117C1B7850693F67B
:101EB000F60F8507E39F07FD8280B727002083A7E1
:101EC000870D011122CC26CA4EC606CE4AC882977B
:101ED000B724002093878437804781496301A40495
:101EE000372700209307873583C7A701018D135437
:101EF0005500938484379379F50113098735636D11
:101F0000F400353F0347A901944493175700BE9648
:101F1000198C94C4E377E4FE1604B3693401F240EB
:101F200062444E85D2444249B24905618280B72756
:101F3000002083A7870D411122C44AC006C626C2CD
:101F4000829737290020930789378047630AA404C2
:101F5000B72400209387843583C7A701018D1354CC
:101F600055001309893793848435636BF402C13DAE
:101F700083C7A401032789009396570036971D8CC9
:101F80002324E900E375F4FE224403C51400B240A3
:101F90009244024981454101177305E06700634897
:101FA000B24022449244024941018280B727002076
:101FB00003A78739B75702009387079F832607092E
:101FC0001396560063580600832607091396660089
:0A1FD00063440600FD17FDF3828054
:101FDC00B72700203727002083A747030327C70212
:101FEC0001456313F700828083D6670081E683D6B0
:101FFC00470036959C43F5B7B727002083A5070902
:10200C00372700209387070913860522232AC70246
:10201C0003D74700938785FFB72600204111BA9755
:10202C00056523A6F60206C61D0593563700637494
:10203C00E500930600203307D6003725002023281F
:10204C00E50223A0E522E1162312D6002313060095
:10205C001CC3998FE1172312F700231307008D3F40
:10206C00B240B72700202391A704410182801DC1F3
:10207C008346E5FF1307F00F9147639EE60041117D
:10208C0006C697E0FB1FE7806006B24081473E859D
:10209C004101828095473E85828001E9014582801D
:1020AC000145B240224441018280956541119385DE
:1020BC0005D022C4C98D2A842105C2054205C181DF
:1020CC00418106C697E0FB1FE78000F671D9FD57EA
:1020DC0023200500231285002303F5002105D1B729
:1020EC00ADC1B727002083C7D703411122C406C650
:1020FC002A842E856375F400894763E88700853F41
:10210C000D45B24022444101828083A785FF99E7A7
:10211C0003C7E5FF9307F00F6305F700893F1545EB
:10212C00CDB737250020238F85FE1305850397E057
:10213C00FB1FE780A00C22852244B240A16541011F
:10214C0071A215458280B727002023AC070282803C
:10215C00BDCD797122D406D626D24AD04ECE0144BA
:10216C004147B3D78540858BB1CF120531472295B6
:10217C003305E502B727002003A9070D8544B39466
:10218C008400C204C180BE892A990327090011C7A3
:10219C00032549002EC60297B24531473304E402A9
:1021AC0083A7090D3E941C4489E7232009002322B0
:1021BC000900B2502254A58D02599254F2492E8531
:1021CC00456182800504E31EE4F88144DDB72E8569
:1021DC00828041111397050122C406C626C24AC04B
:1021EC0041872E846351070297E0FB1FE780E002D2
:1021FC0011C1B53DA1673D8C2285B2402244924469
:10220C00024941018280EDD9AA8701474146B35664
:10221C00E440858A9DCA9207BA97B146B387D70224
:10222C00B726002003A9060D8544B394E400C2042C
:10223C00C1803E99832709000325490082972320FA
:10224C00090023220900258C45BF0507E311C7FCB3
:10225C008144D5BFB727002083A7470B411122C467
:10226C0006C637240020130404E691C782971C404D
:10227C003E9508C031A0B727002083A7870DFDF736
:10228C000840B74703009387D73F3305F502B7A73C
:10229C002600938737ECB2403E9508C0224441019A
:1022AC008280B727002083A7470D411122C406C6A0
:1022BC00372400201304C40389C782975C483E95D9
:1022CC0048C84848B240224441018280B7270020C8
:1022DC0083C7D7036370F5023727002093171500C7
:1022EC00032587083E9583570500DD8D2310B50027
:1022FC00014582800D458280B727002083C7D70314
:10230C006372F50237270020931715000325870801
:10231C0093C5F5FF3E9583570500FD8D2310B50041
:10232C00014582800D458280011126CA06CE22CC41
:10233C004AC84EC652C49307F002894463E7A70605
:10234C00B146B306D502B727002003A7070D894471
:10235C0036971C43B9CB135A450005443D893315B8
:10236C00A4001314050141802E895285A28597E0A3
:10237C00FB1FE780E0F1AA89814405C9A28552853B
:10238C00A53FB727002083A7870D8297B72700208A
:10239C0083D7E70A13070064B387270393870732B1
:1023AC00B3D7E7023E9523A4A900F24062442685E8
:1023BC004249D244B249224A05618280B7270020A3
:1023CC0083C7D7036364F50001458280B7270020DB
:1023DC0083A7870DF5DB01114EC6B729002022CC4F
:1023EC0026CA4AC852C406CE93890909328A2E8954
:1023FC00AA84829703D4E90193070064CA85330445
:10240C004403130404323354F4022A94268597E0CF
:10241C00FB1FE780E0E701C500C5054515A093E566
:10242C0004F0C205C181414597E0FB1FE780C0BFA6
:10243C0005E183A7490381C7A6851145829701450C
:10244C00F2406244D2444249B249224A0561828038
:10245C00372700208327C7088DE32326A708854745
:10246C002326050000C52311250123009500A30098
:10247C00F5002322050055B7BA87D84775FFC8C7A2
:10248C00F9BF41C9797122D426D24AD04ECE52CC52
:10249C0056CA5AC85EC662C406D6B689B28A2E8A95
:1024AC002A899304000C4144372B0020054C930BD4
:1024BC00000383270B0DA6979C43A1E79375F400AB
:1024CC00B315BC00C2055686C18113554400FD35B9
:1024DC000DC983270B0D0145BE9423A0240123A213
:1024EC0044016384090023808900B2502254925421
:1024FC000259F249624AD24A424BB24B224C4561D4
:10250C00828005041374F40FB104E31474FB2145A9
:10251C00E9BF09458280411122C426C24AC006C6C1
:10252C00AA842E893284593DCA85268597E0FB1FE3
:10253C00E78000D60DC5B727002003D6E70A93071E
:10254C00006433068602130606323356F60250C177
:10255C000145B24022449244024941018280214506
:10256C00CDBF411122C426C24AC006C62A892E8478
:10257C0097E0FB1FE780C0D1AA8419C12311050085
:10258C00A2854A85953BB727002083C7C70363996B
:10259C002701B727002003D74708598C23928708B7
:1025AC00014591E01945B24022449244024941014F
:1025BC0082809307F00263E8A7044111B14722C45B
:1025CC003304F50226C2B724002083A7040D06C6E7
:1025DC00A2979843894715C39377F5008545B39522
:1025EC00F500C205C1811181AD3F83A7040DA297EF
:1025FC0023A0070023A207008147B2402244924443
:10260C003E854101828089473E858280411106C604
:10261C0022C497E0FB1FE780A0C711E50145B2403B
:10262C00224441018280B727002083A7870D0045F3
:10263C008297B74736FE3305A4409387E7C7E3EF8D
:10264C00A7FC930700643305F502B727002083D756
:10265C00E70A3355F502E1B74111B727002006C64A
:10266C0023AAA70C0295B240B727002023AAA704DF
:10267C00014541018280994763E9B700B7270020E3
:10268C008A0593878706BE9588C1828037250020EE
:10269C004111714681451305850606C622C426C222
:1026AC003724002097E0FB1FE780E0CF1306800261
:1026BC001305C403814597E0FB1FE780C0CE2D3A7C
:1026CC00B727002023A60708B727002023AA070C4A
:1026DC00B727002083C7570A1304C403854513D5B5
:1026EC0027008D8B3E958D473305F5029947B7240E
:1026FC00002039051375F50F2301A4003305F502ED
:10270C001305052497E0FB1FE7800092B7270020F4
:10271C0023A8A70C834724001305052423A2A40691
:10272C008A073E95B727002023A4A708293CF92E39
:10273C008347140083A6440637260400139727000A
:10274C0036971306C61510C3138717001377F70FA8
:10275C000A073726040036971306E61D10C31387A5
:10276C003700890793F7F70FA300E400B240224427
:10277C008A07B69790C39244410182803727002084
:10278C001307C703834717008346270063F0D7025C
:10279C00B726002083A6460613861700A300C700A1
:1027AC0013972700369708C33E8582809307F00F56
:1027BC00E5BF1C416382071241777D8FB70600206D
:1027CC008947631CD7100357450063080710411154
:1027DC0026C21946AA849305F00F610506C622C4C9
:1027EC004AC097E0FB1FE78000C605478D47630E84
:1027FC00E50C37290020930709099C4713040909A4
:10280C0091C7185C994771E3585C61E313060004A7
:10281C0081451305090997E0FB1FE780C0B8130633
:10282C000004A6851305090997E0FB1FE78020B477
:10283C008357C40089E7930700102316F4008347DD
:10284C00E40081E785472307F4008357040181E7FF
:10285C00ED472318F4008347F40081E79547A3075D
:10286C00F4008347240181E785472309F40083475B
:10287C00340189E78347F400A309F400834744013A
:10288C0081E7A547230AF4008347740199EF0357A6
:10289C00E401B7470F0093870724B3C7E702130778
:1028AC008057B357F702A30BF40083C7640189E781
:1028BC009307C003230BF4005C5491C78297B7278E
:1028CC0000202392A704D9338147B240224492447A
:1028DC0002493E854101828089473E858280B72727
:1028EC00002083A7870D411106C68297B7270020C9
:1028FC0003D6E70A93070064B307F50237270020D5
:10290C009306C703944E0145B3D7C702638FF600F5
:10291C001307C7033385D74063E8F6001305009C03
:10292C003355C502158D3E951CCFB24041018280B6
:10293C00011122CC2E84B71506000A8541469385D9
:10294C00C5B706CEEFE06117180806043A94B7270E
:10295C000020035504FF83D7070BF2406244AA976B
:10296C0037450F00130505243355F50205618280A8
:10297C00B727002083D7070B51471D45637CF7020F
:10298C00794719456378F7021307200315456373DC
:10299C00F7021307B0041145637EF70013074006D6
:1029AC000D456379F7001307600909456374F70057
:1029BC0013B5B70F8280011122CC06CE2A842EC605
:1029CC005138B245F240818D33A5A502229562445F
:1029DC001375F50F05618280011122CC06CE2A8475
:1029EC002EC68D38B245F240818D33A5A5022295B5
:1029FC0062444205418105618280011122CC06CEE0
:102A0C002A842EC6EFF01F85B245F240818D33B576
:102A1C00A5022295624405618280B72700201387A6
:102A2C00070958572DC3411122C426C24AC006C6F5
:102A3C00138907090297B72700201387C703035789
:102A4C0087002A849384C7030DCBBA876373A700CE
:102A5C00AA87C207C183BA866373E400A286C20642
:102A6C00C182958F5147635AF7008327090391C39D
:102A7C008297EF60015D23948400B240224492441B
:102A8C000249410182808280011122CC372400202E
:102A9C00930704099C5B06CE1304040981C72AC65C
:102AAC00829732451DC50357E401854711CF035763
:102ABC00040219CBB727002023ACA70C3735040030
:102ACC001305A58E513E8147F24062443E85056157
:102ADC008280B72700209387C70323AE0700E177D6
:102AEC0093C727A1231FF400930720032310F4029C
:102AFC007D57B747024023A4E726B70700203727A6
:102B0C00002093870771232CF70C4DBF011122CCA9
:102B1C003724002093070409884706CE26CA4AC8E2
:102B2C0001E90545F2406244D24442490561828084
:102B3C00130404091C5CF5D7585C65D770008545F7
:102B4C0082971844B247E30EF7FC0355C400930573
:102B5C00E004B724002097D0FB1FE780E04C1387DC
:102B6C00C40308D39384C4034DDD0356C4009305FA
:102B7C00F00F014997E0FB1FE780E0828347E400F8
:102B8C009050634DF900328597D0FB1FE7800056BB
:102B9C00014523A0040223A2040269B78355C40093
:102BAC000844585CB3872503898105093E9508C202
:102BBC000297E9B7411122C4372400209307040976
:102BCC009C4726C206C6B72400204AC09384C4037F
:102BDC0091EB88503DE1B2402244924402490145B8
:102BEC0041018280130404095C5CE5D79C5091EB95
:102BFC000355C4009305E00497D0FB1FE780C04247
:102C0C0088D0885079D50356C4009305F00F01493C
:102C1C0097D0FB1FE78020798347E4009050E35A5C
:102C2C00F9FA8355C4001C443385250389810509B1
:102C3C003E955C5C08C28297C5B797D0FB1FE780B6
:102C4C00E04A23A0040223A2040271B701114EC66C
:102C5C00B7290020938709099C4726CA4AC852C441
:102C6C0006CE22CC56C25AC02A8AAE843289638DD3
:102C7C00071E9389090903A7890363040712130725
:102C8C00F01F6362A712372400201307C403832AA2
:102C9C0007021304C403639A0A0803D5C900956597
:102CAC00938515E097D0FB1FE780003808D02A8663
:102CBC006DC983D5C90083A7890303A589008981C0
:102CCC00829783A78900832A04025CD08947631604
:102CDC00FA08C1476397F40C83D5C90091479385D3
:102CEC0005FCB3C5F5028A05D69503C725009307E5
:102CFC00A0056314F70A83D705006390470B4A8538
:102D0C002686910597D0FB1FE78060661C50568580
:102D1C00639357130145F2406244D2444249B2498D
:102D2C00224A924A024B056182805850E380E7FAAE
:102D3C0003D5C9009565938525E097D0FB1FE780E7
:102D4C00A02EAA8A39CD83D5C9002A8683A78903E8
:102D5C0003A589008981829795BF8D47631BFA0073
:102D6C00C1476390F40483D5C900938545FDF1995F
:102D7C00A5BF91476318FA006395440383D5C90036
:102D8C00A115F5B793070010631DFA00A14763EA7C
:102D9C00970083D5C900C115D9BF1C5056856390C7
:102DAC00570D29458DBF9D6A637C5509930A05E033
:102DBC001947B3CAEA0203D7C900372B0020B38ADC
:102DCC00EA02BE9A9307CB03DC53130BCB03639538
:102DDC00570103240B021DE003D5C9009305E00441
:102DEC0097D0FB1FE78040242A8445DD83D5C9009A
:102DFC0083A789032A868981568582979145130773
:102E0C00A005898193972500A29783C62700639319
:102E1C00E60483D60700639C460385058A0526864F
:102E2C00A2954A8597D0FB1FE780605483270B023D
:102E3C00E38287EE228597D0FB1FE780202BD9BD3C
:102E4C0021677917E36FA7F4B30A5541ADB783C572
:102E5C00370045BF83270B02E38587F4228597D083
:102E6C00FB1FE780A02835BFB727002083A5C70527
:102E7C008DD991479306A0058983139727002E9728
:102E8C0003462700E31FD6F003560700631C4601D8
:102E9C0085078A072686BE954A8597D0FB1FE78053
:102EAC00004D8DBD83473700C1BFB72700209387E6
:102EBC000709984729C3D85F1DCF8546631DD502E6
:102ECC00411122C4372400201304C403105006C639
:102EDC0019CE83D5C700485089810297085097D0E6
:102EEC00FB1FE780A0202320040223220402B2400F
:102EFC002244410182808280011122CC372400209F
:102F0C009307040956C283AA870026CA4AC84EC62C
:102F1C0006CE52C42A89AE84B28913040409638C88
:102F2C000A1C5C5C99EB2945F2406244D24442494C
:102F3C00B249224A924A056182801C5CEDD7930704
:102F4C00F01F63E8A70C372A00209307CA039C5391
:102F5C00130ACA03B9C7084483274A02639FA7040C
:102F6C0089476317F906C147E39FF4FA0355C40078
:102F7C009147130505FC3345F502931725000325EE
:102F8C000A022686CE853E959307A0052301F500FF
:102F9C0023102501110597D0FB1FE780403D01450B
:102FAC0061B70355C4009305E00497D0FB1FE7807D
:102FBC00A0072320AA0245F1BDB78355C4001C5CB1
:102FCC0003260A02898182971C442322FA0249BFF4
:102FDC008D47631CF900C147E397F4F40355C40013
:102FEC00130545FD9377C5FF59BF91476318F90049
:102FFC00E39B24F30355C4002115EDB79307001090
:10300C00E313F9F2A147E3E097F20355C40041152D
:10301C00D1BF9D676378F506930705E01947B3C7E1
:10302C00E7020357C400372A0020B387E702BE9A91
:10303C009307CA039C53130ACA03A1CF83274A02DE
:10304C006395570703250A0291461308A0059305BB
:10305C00F00F93D72600139727002A9703462700D3
:10306C00631606078358070003463700639C280540
:10307C00B306D64063C6960485078A072686CE8596
:10308C003E9511BF21677917E36FA7E8B307F540A9
:10309C0049BF0355C4009305E00497D0FB1FE7809C
:1030AC00A0F82320AA0259F9BDBD8355C4001C5CAD
:1030BC0003260A0289815685829723225A0359B71F
:1030CC002310B70093160601C18261B70356C400E2
:1030DC00B38596009105130606FCE3F6C5E413864A
:1030EC003400719A1106B2962301070123102701AF
:1030FC00A301D70051B7372A00209307CA039C536A
:10310C00130ACA03A9C303250A0291461308A00592
:10311C009305F00F93D72600139727002A970346A1
:10312C00270063140605835807000346370063988D
:10313C002801B306D640E3D196F42310B7009316BA
:10314C000601C182C1BF0345E4008357C400930547
:10315C00E0043305F5024205418197D0FB1FE7805F
:10316C00A0EC2320AA0245F17DBB0356C400834585
:10317C00E400B385C502338696001106E3E5C5DA93
:10318C00B9BF0145828083C705002300F50083D7B2
:10319C002500A300F50083D72500A1832301F500AA
:1031AC0083C74500A301F50011458280B727002095
:1031BC0023AE07E8B727002023AC07E8828029C19B
:1031CC00411126C206C622C4AA8401458DC52E848F
:1031DC00B7150600228541469385C5B897D0FB1FCD
:1031EC00E780E01883C7040005452306F40083C775
:1031FC001400A306F400B2402244924441018280A0
:10320C0001458280011122CC26CA06CE0947AA8428
:10321C0032846381E50441468147639BC500638F1B
:10322C00E6006397B6000DA841478147638EE60020
:10323C00F2406244D2443E85056182808A852285B3
:10324C00BD3F41468A8519A88A85953F41468A85A6
:10325C00228531A0E39AB6FC2E86A285268597D0CE
:10326C00FB1FE780A019AA87E1B7B727002023AC82
:10327C00A7E88280B727002023AEA7E8828001113F
:10328C0022CC0354650006CE26CA4AC84EC641C09D
:10329C0083298500AE842A8803C909008147131746
:1032AC008901618763550702B147054563FA8704B5
:1032BC005114420403552800418033878900A286AB
:1032CC004E868545EFD0C04EB337A00085077D14E0
:1032DC0013556900420405891379F9034180238051
:1032EC00F400A380A40023812401239284000147CD
:1032FC0019C01387190098C409476383E700014577
:10330C00F2406244D2444249B2490561828005458B
:10331C00C5BFC167F917630AF502D94763F7B7024E
:10332C00011122CC2EC606CE2A84EF90C011B245D4
:10333C006368B50022856244F24005616FA0902F4E
:10334C00F240624405450561828005458280C16773
:10335C00F9176314F5006F90000F411106C6EFA02A
:10336C00301B11E15D45B24041018280914763946D
:10337C00F502834705002300F60083472500034729
:10338C001500A207D98F2311F6008347350001459C
:10339C002302F6008280114582804111814522C4AE
:1033AC0026C206C6AA84052D2A8409E9B72700205F
:1033BC0083A787E981C7F945268582972285B24084
:1033CC00224492444101828039714ED656D25AD051
:1033DC0006DE22DC26DA4AD852D4AA8A2E8BB2898F
:1033EC0041EF36C6AD379145EF90A017AA844D49F1
:1033FC002DC9B246054A238034010544630A0B00EB
:10340C00B68513851400029B050513140501418034
:10341C00E20993D9894163D30902C1455685EFA0CE
:10342C00301E654905E933868400A2852685EFC0E8
:10343C00B0782A8905E131044204418091472C0877
:10344C005685231CF10026CE231D8100EFA0E02918
:10345C002A8901C963070A00268597D0FB1FE780DC
:10346C00E0C8F25062544A85D2544259B259225A99
:10347C00925A025B21618280BA84014AADBF01116C
:10348C0022CC26CA4AC84EC606CE2A893284B689B0
:10349C00253FAA840DE1B727002083A7C7E981CF78
:1034AC0005476317E40003C4090005041374F40F03
:1034BC00A2854A858297F240624426854249D244CD
:1034CC00B24905618280AE86B735040001470546D6
:1034DC00938525196DB783D705002300F50083D795
:1034EC000500A183A300F5000945828083D7050060
:1034FC002300F50083D70500A183A300F50083D733
:10350C0025002301F50083D72500A183A301F50035
:10351C001145828083D705002300F50083D7050071
:10352C00A183A300F50083D725002301F50083D7E1
:10353C002500A183A301F50083C755002302F500E4
:10354C0083C76500A302F50003D585001905420564
:10355C004181828083D705002300F50083D70500C5
:10356C00A183A300F5000945828083D705002300C1
:10357C00F50083D70500A183A300F50083D72500B0
:10358C002301F50083D72500A183A301F500114584
:10359C00828003D54500060542054181828083D790
:1035AC0005002300F50083D70500A183A300F500D7
:1035BC0003D52500090542054181828083D705008A
:1035CC002300F50083D70500A183A300F50083D762
:1035DC0025002301F50083D72500A183A301F50065
:1035EC0003D54500110542054181828083C7050042
:1035FC002300F5000545828083D70500411122C4C4
:10360C0006C62300F50083D705002E841105A1837F
:10361C00A30EF5FE83D725009505230FF5FE83D762
:10362C00D5FFA183A30FF5FE03C6F5FF97D0FB1FB3
:10363C00E780E0D303454400B24022441105410128
:10364C0082808947639CF50083471500034705007A
:10365C000145A207D98F2310F60082801145828084
:10366C0003D70500D94763FEE702011122CC06CE31
:10367C002EC62A84EF80305DB24683D70600636D78
:10368C00F50022856244F240B73504000147094633
:10369C009385254E05610DBBF240624409450561D9
:1036AC0082800945828091479DC583460500FD15A2
:1036BC00C2058547C1816392F60213D725008D8917
:1036CC00914791E9914701CB05052301D6002310C1
:1036DC00E60048C281473E85828009479147E39CBA
:1036EC00E6FEC94733D7F502B3F5F502D1BFAE8676
:1036FC00B7350400014711469385854FF1B193F717
:10370C00350091EB8981914789C52310B60048C2D9
:10371C0081473E8582809147EDBF03C745008947AD
:10372C00631CF702011122CC2A84C84506CEAE8652
:10373C00014709C92EC69D4597D0FB1FE78080A87D
:10374C00B2462A8722856244F240B73504001946F6
:10375C009385055205618DB90945828099E1114522
:10376C0082808347050005472311F600E379F7FEB5
:10377C00FD1593F5F50F33D7F502B387E702E39008
:10378C00F5FE050548C22310E6000145828083C77B
:10379C0045000947AE866385E70041476399E7001A
:1037AC00B7350400014721469385456031B9094579
:1037BC0082802310B60091E1014548C20145828008
:1037CC00AE86B73504000147294693850556EDBEF4
:1037DC002310B60091E1014548C201458280AE86B6
:1037EC00B73504000147314693856557F1BE231068
:1037FC00B60091E1014548C20145828003D74500DE
:10380C00854763FFE702011122CC2A84884106CE4A
:10381C001DC12EC6854597D0FB1FE780A09A2A872D
:10382C0022856244B246F240B7350400394693858E
:10383C00E559056151BEF24062440945056182803B
:10384C000945828091479DC5034705008D469147E8
:10385C0063F2E602FD15C205C181B3C6E502330869
:10386C00D7026399050105052310D6002311E60044
:10387C0048C281473E85828083C745000947AE8692
:10388C006385E70041476399E700B73504000147BA
:10389C004146938545600DBE09458280B335B00025
:1038AC00139525008280011122CC26CA06CE03C7AF
:1038BC0085008547AA842E8449466310F702413C53
:1038CC008357240049151306200963C8A700F2404A
:1038DC006244D244094505618280034794008547C0
:1038EC006314F70013660604484001C98D4532C6BF
:1038FC0097D0FB1FE780008D3246A2866244F240CF
:10390C002A872685D244B73504009385A55A0561CC
:10391C0065BC8D4763FFB70283471500034705005D
:10392C00F115A207D98F2310F60083473500034702
:10393C002500C205A207C181D98F2311F6002312DD
:10394C00B60089C5110508C60145828023240600EE
:10395C00E5BF11458280011122CC2A84884506CE10
:10396C00AE8601C92EC6954597D0FB1FE780808592
:10397C00B2462A8722856244F240B7350400594684
:10398C009385855C056189B4B335B000139525002A
:10399C008280AE86B7350400014761469385855F0A
:1039AC0025B48547114563F4D70283471600834538
:1039BC000600A207CD8F2310F7009387E6FF231193
:1039CC00F70089476386F600090650C301458280DB
:1039DC0023220700E5BF0147814679468145EDB2B8
:1039EC0083D705002300F50083D70500A183A3002E
:1039FC00F5000945828083C7250005472300F500A3
:103A0C0003D505006397E7000A05050542054181CA
:103A1C008280C9473305F502CDBF03D505000A05E1
:103A2C0042054181828083D725002300F50003D510
:103A3C00050083D725003305F502050542054181B4
:103A4C00828003D50500828003D50500828003D5D2
:103A5C000500828083D725002300F50003D50500DF
:103A6C0083D725003305F502050542054181828087
:103A7C0083D705002300F50083D70500A183A3009D
:103A8C00F50083D725002301F50083D72500A183FA
:103A9C00A301F50003D54500110542054181828043
:103AAC0083D705002300F50083D70500A183A3006D
:103ABC00F50003D52500090542054181828089471F
:103ACC001145639BF60083471600834606000145AB
:103ADC00A207D58F2310F700828003D70500D947A2
:103AEC00AE8663F9E700B745040001470D469385A0
:103AFC00C59E71B20945828011456393A602834726
:103B0C001600834606000145A207D58F2310F70047
:103B1C008347360083462600A207D58F2311F70072
:103B2C00828083C725000547FD1793F7F70F636263
:103B3C00F70483D7050095CF011122CC2A84C84104
:103B4C0006CE1DC12EC6894597C0FB1FE780806736
:103B5C002A8722856244B246F240B74504001546D6
:103B6C00938525A0056121BAF2406244094505619F
:103B7C008280094582809547114563F9D70641112A
:103B8C0022C426C24AC006C683471600BA8403471D
:103B9C000600A2073284D98F2390F40083473600A5
:103BAC000347260093054400A207D98F2391F40004
:103BBC0089472382F400094613855400368997C03F
:103BCC00FB1FE780C07A9307A9FF2394F400994761
:103BDC00631BF90023A60400B2402244924402491C
:103BEC000145410182801904C0C4FDB7828083D78E
:103BFC0005009DCF011122CC2A84C84106CE05C5F3
:103C0C002EC6854597C0FB1FE780C05B2A8722859F
:103C1C006244B246F240B74504001D46938565A246
:103C2C0005616FF0DF85F2406244094505618280D1
:103C3C000945828099476395F6048947411106C668
:103C4C002302F7008347160083460600B285A207BD
:103C5C00D58F2310F7008347360083462600034692
:103C6C004700A207D58F130557002311F7009105C4
:103C7C0097C0FB1FE780A06FB240014541018280D5
:103C8C00D14711456394F600C1474DBF828083D75D
:103C9C0005009DCF011122CC2A84C84106CE05C552
:103CAC002EC6894597C0FB1FE780C0512A87228505
:103CBC006244B246F240B74504002546938525A3DD
:103CCC0005616FF0CFFBF2406244094505618280CB
:103CDC000945828089471145639BF600834716008E
:103CEC00834606000145A207D58F2310F70082807A
:103CFC00011122CC2A84C84106CEAE86014709C9DF
:103D0C002EC6854597C0FB1FE780C04BB2462A875D
:103D1C0022856244F240B74504002D469385E5A404
:103D2C0005616FF0CFF511456393A602834716002A
:103D3C00834606000145A207D58F2310F700834761
:103D4C00360083462600A207D58F2311F700828008
:103D5C00011122CC2A84C84106CEAE8601C92EC6DA
:103D6C00854597C0FB1FE780E045B2462A87228530
:103D7C006244F240B74504003546938545A505617C
:103D8C006FF0EFEF93F71600114589EB89476387C6
:103D9C00F60085822312D70010C3014582800111E1
:103DAC0022CC2A84C84106CE05C52EC6854597C0AF
:103DBC00FB1FE78020412A8722856244B246F240ED
:103DCC00B74504003D469385A5A505616FF02FEB23
:103DDC00F240624409450561828083D705009DCF7E
:103DEC00011122CC2A84C84106CE05C52EC68945B0
:103DFC0097C0FB1FE780003D2A8722856244B246AC
:103E0C00F240B74504004546938505A605616FF061
:103E1C000FE7F240624409450561828009458280C2
:103E2C00854763FCD7022304A700A304B70083478C
:103E3C00160083450600A207CD8F2310F700938749
:103E4C00E6FF2311F70089476386F600090650C385
:103E5C000145828023220700E5BF1145828001477E
:103E6C0081464D4681456FF08FE18D47114563FBCF
:103E7C00D7028347160083450600A207CD8F231077
:103E8C00F7008347360083452600A207CD8F231108
:103E9C00F7009387C6FF2312F7006386A60011066E
:103EAC0010C70145828023240700E5BF011122CCF5
:103EBC002A84884506CEAE8601C92EC6954597C084
:103ECC00FB1FE7802030B2462A8722856244F240ED
:103EDC00B74504005D469385C5A705616FF02FDAE1
:103EEC00854711456397F60083470600014523007B
:103EFC00F700828001478146654681456FF02FD8D7
:103F0C00011122CC2A84C84106CEAE86014709C9CC
:103F1C002EC68D4597C0FB1FE780C02AB2462A8764
:103F2C0022856244F240B74504006D469385C5AACC
:103F3C0005616FF06FC9011122CC2A84C84106CEED
:103F4C00AE86014709C92EC68D4597C0FB1FE78079
:103F5C006027B2462A8722856244F240B7450400A6
:103F6C0075469385C5AA05616FF00FC6011106CE83
:103F7C002EC6EF90105601C9B245F24003552500EC
:103F8C0005616FD0203AF240494505618280B72720
:103F9C000020A38407ECB7270020238407ECB72765
:103FAC00002023A807EAB727002023AA07EAB7278F
:103FBC00002023AC07EAB727002023AE07EAB72777
:103FCC00002023A607EAB727002023A407EAB72777
:103FDC000020239E070E130640389387C70F2391AA
:103FEC00C70271761307400B130606B82391E7003E
:103FFC002392C70211671D46930600059305000A1C
:10400C001305007D2392E7002393C7024147054621
:10401C00130810F82395E7002396E7002399E7008F
:10402C00239AE700239BE700239CE7002394E702F5
:10403C00239607032393B7002394B7002397D70045
:10404C002398D700239DA700239E0700239F0700DA
:10405C00239007022395C702239707021308F00742
:10406C00239807022392E7042393E704239FE70492
:10407C002390E7062391E7062392E706239907038B
:10408C001307C01C239AC702239BC702239C070259
:10409C00239D0702239E0702239F070223900704F8
:1040AC002391C70423940704239507042396C7047C
:1040BC002397D7042398D7042399A704239A07049A
:1040CC00239B0704239C0704239DD704239ED7041A
:1040DC002393A70623940706239507062396070622
:1040EC002397B7062398B70623990706239AE70662
:1040FC007D57239B0706239CE7068280011126CA65
:10410C00AA84214522CC06CE2E8432C636C43AC2AD
:10411C00EFD0BFF81DC9A24612473246930700FDE7
:10412C002300F5009947A30095002301F500230314
:10413C00D500A303E5002312C500AA85228562449D
:10414C00F240D24405616FD0BFF9F2406244D244D0
:10415C0005618280B727002023A8A7EA8280B727B1
:10416C00002023AAA7EA8280B727002023ACA7EA65
:10417C008280B727002023AEA7EA8280011122CCCF
:10418C004AC806CE26CA2A890144B304890063684A
:10419C00B400F2406244D2444249056182802EC68A
:1041AC00EFE04F8B93170501C183A183B2452380A8
:1041BC00F4009307140093F7F70F850463F9B70025
:1041CC00CA9709042380A7001374F40F7DBF3E84A3
:1041DC007DBF411122C4372400201304C40D0355A4
:1041EC006400C16706C6FD17630FF500B7270020F2
:1041FC0003C64720B7250020938505ECEF90F010FF
:10420C00FD572313F400B24022444101828009C9B6
:10421C0025151375F50F1335850E13451500828082
:10422C000145828023900500C9C6797122D426D21B
:10423C004ECE52CC5AC806D64AD056CA5EC6368422
:10424C00328AAE892A8B814463F34407B307940006
:10425C0083C70700138914004209939A070193DA64
:10426C000A011359090163840A04CA976341FA04C9
:10427C00B307240183CB07005E85513F0DC993879B
:10428C00FAFF2390F90063906B0313051900229534
:10429C00B250225492540259F249624AD24A424BC9
:1042AC00B24B45618280D694C204C18071BF014576
:1042BC00C5B701458280011122CC3724002026CAC3
:1042CC004AC84EC69307C40D06CE2E89D0CB8CCBD4
:1042DC00C8C7AA8441469305F00F4A8597C0FB1FB7
:1042EC00E780601685491304C40D6319350308482B
:1042FC00C145693541469305F00F268597C0FB1FD4
:10430C00E780601405496315250348446244F24074
:10431C00D2444249B249C14505618DB541468145FA
:10432C004A8597C0FB1FE7800012E31535FDC1B726
:10433C0041468145268597C0FB1FE780C010E306E8
:10434C0025FDF2406244D2444249B2490561828063
:10435C00411122C43724002026C24AC0AE842A89C7
:10436C001306000281451305C40D06C697C0FB1F3A
:10437C00E78060039307C40DA3812701B7270020B2
:10438C0023849720EFC0507C854719C1814749454C
:10439C00230EF40CB2402244924402494101828023
:1043AC00814781CD19C98547631BF50083C755002B
:1043BC0093E707FCA382F50085473E8582808947F9
:1043CC006317F50083C7550093F7F703E5B70D475F
:1043DC008547E314E5FE03C755001377F70313670E
:1043EC000704A382E500D1BF81478DC105C103C776
:1043FC0055009306000C85471377070C6308D7000C
:10440C00930600048D476303D70089473E8582805D
:10441C00411122C4005D06C626C21DC8AA840850DC
:10442C0009C597C0FB1FE78060CC485009C597C0F1
:10443C00FB1FE780A0CB085409C597C0FB1FE78082
:10444C00E0CA228597C0FB1FE78040CA23AC040258
:10445C00B240224492444101828019E9B7270020DE
:10446C0083C7E70D91C737250020130505EA828025
:10447C00372500201305450F8280B727002003C580
:10448C00E70D8280B727002003A5870E8280B7270F
:10449C00002003A5C70E8280B727002083A7070F33
:1044AC0088438280B72700209387C70DD44B98424E
:1044BC00050798C203C537009307F00F6305F50095
:1044CC0091656FD0BFE08280011122CC06CE2E8484
:1044DC0032C6EF9030119147B2456310F502B72701
:1044EC00002083A7C7EB95C303A30700630F03004A
:1044FC0022856244F24005610283B727002083A71E
:10450C0047EB81C703A34700D5B7F240624405458A
:10451C0005618280011122CC2A840355450006CE08
:10452C0026CA4AC84EC697C0FB1FE780402C3DC91F
:10453C002A89834405008349C500D93D4A85EFA0EB
:10454C00E06C03554400EF90F00437290020130968
:10455C0089EC83470900B9CB639A9704B7270020ED
:10456C0083C597EC2685193419E1230009000355FE
:10457C004400EF9030079147631FF500B7270020E8
:10458C009387C70D8356440003D767006395E600F5
:10459C007D572393E700F2406244D2444249B2492A
:1045AC000561828081499304F00F45B79307F00FA2
:1045BC00E38FF4FA83466400035644000345240059
:1045CC004E87A685253E65B779715EC6AA8B2E856A
:1045DC0052CC56CA5AC806D622D426D24AD04ECE6F
:1045EC00AE8A328B368A97C0FB1FE78040207DC194
:1045FC00045D2A89E5C09C50614599C313054003AD
:10460C009C5481C751054205418163050A0071051F
:10461C0042054181DC5081C7590542054181EFD0EB
:10462C00DFA72A8445C96146814597C0FB1FE780F7
:10463C0080D7B727002083C9C71263940900834928
:10464C000900930700FD2300F400A947A30074019F
:10465C002301F400230364018C502312540113052D
:10466C00840191C908C47146930A440397C0FB1F87
:10467C00E780E0CF56858C5491C948C45146930AC3
:10468C00450197C0FB1FE78080CE5685630C0A005E
:10469C0008C87146D285930AC50197C0FB1FE780F5
:1046AC0000CD5685CC5099C548C8594697C0FB1FBC
:1046BC00E780E0CBA2854E85EFD09FA22254B2506A
:1046CC009254F249624AD24A424BB24B4A85025941
:1046DC0045613DBBB250225492540259F249624A90
:1046EC00D24A424BB24B4561828001114EC6AA8917
:1046FC002E854AC806CE22CC26CA2E8997C0FB1F0F
:10470C00E780E00E21C9B727002083C4C71299E0C7
:10471C00834405001945EFD05F982A8405CD814567
:10472C00194697C0FB1FE78000C8930700FD2300C4
:10473C00F400B947A30034012301F400231224012F
:10474C00A2856244F2404249B2492685D2440561B1
:10475C006FD01F99F2406244D2444249B24905617C
:10476C00828039715ECEAA8B2E8526DA4ED652D433
:10477C0056D25AD006DE22DC4AD8AE84328BB68AA8
:10478C003A8ABE8942C697C0FB1FE780400621CDFE
:10479C002A894145EFD07F902A8431C54146814515
:1047AC0097C0FB1FE78020C0B727002003C5C712A6
:1047BC0019E103450900930700FD2300F400BD47F0
:1047CC002301F400B247A3007401231294002304C4
:1047DC006401A304540123054401A30534015CC402
:1047EC00A285EFD0FF8FF2506254D2544259B25985
:1047FC00225A925A025BF24B21618280797126D245
:10480C00AA8439454AD04ECE06D622D42EC6B289B9
:10481C003689EFD09F8821C1B2459307000D231034
:10482C00F500B1472A842312B5002301F500CE858B
:10483C001905194697C0FB1FE78060B323062401B6
:10484C00A2852254B2500259F24913F5F40F925436
:10485C0045616FD0FF88B250225492540259F249EC
:10486C0045618280411126C2B72400209384C40D77
:10487C0003C7340006C622C44AC09307F00F630C6A
:10488C00F7042A893945EFD05F812A8429C593071B
:10489C0000FDB72500202300F500A300250123010E
:1048AC0005009385450F0D05194697C0FB1FE78042
:1048BC0000AC83D78400A28503C534002315F40013
:1048CC0083C714002306F4002244B24092440249E8
:1048DC0041016FD0FF80B240224492440249410111
:1048EC00828001115AC02A8B314526CA4EC652C449
:1048FC0056C206CE22CC4AC8AE84B28A368ABA894F
:10490C00EFD0AFF949C12A84268597C0FB1FE780F9
:10491C0000EE11C50347C500A1476314F704B72780
:10492C00002003C9F70D930700FD2300F4009D47F9
:10493C00A30064012301F4002312940023135401F7
:10494C002314440123153401A2856244F240D2445D
:10495C00B249224A924A024B4A85424905616FD0BC
:10496C002FF8B727002003C99720E31E0BFAB727AF
:10497C00002083A7C7F89C47DDD7CE865286D68504
:10498C00268582974DB7F2406244D2444249B249DF
:10499C00224A924A024B05618280011122CC2A8460
:1049AC00214506CE2EC6EFD04FEF21C1B24593075D
:1049BC0000FD2300F500C5472301F50083C7350032
:1049CC00A301F50083D745002312F50083C76500CA
:1049DC002303F50083C77500AA85A303F500228580
:1049EC006244F24005616FD0AFEFF2406244056162
:1049FC008280397162CC2A8C594526DA4AD84ED637
:104A0C0052D456D25AD05ECE06DE22DCAE8432C6EA
:104A1C0036C4BA8B3E8BC28A468A83590104034939
:104A2C004104EFD08FE725C93246930700FDA2461B
:104A3C002300F5009547A301C500A30085012301C0
:104A4C00F5002A8419461105A9C2B68597C0FB1F2B
:104A5C00E780E09123066401230A240123157401E5
:104A6C00231754012318440123193401A2856254DD
:104A7C00F2504259B259225A925A025BF24B624C92
:104A8C002685D25421616FD0AFE5814597C0FB1FBD
:104A9C00E7806091C1B7F2506254D2544259B25976
:104AAC00225A925A025BF24B624C21618280411174
:104ABC0022C4372400201304C40D8347240006C6E7
:104ACC0026C28DCBB7240020AA851946138504EA8B
:104ADC0097C0FB1FE780A08903452400938504EA57
:104AEC00EFF01F8C2244B240138504EA924441013A
:104AFC006FC05006B240224492440145410182806D
:104B0C00411126C2B72400209387C40D06C622C4C7
:104B1C004AC003C737009307F00F9384C40D630496
:104B2C00F7042A892945EFD04FD72A840DCD930756
:104B3C0000FD2300F500A147A30025012301F5008A
:104B4C0083C72400B7250020938505EAA301F5004F
:104B5C001946110597C0FB1FE780608103C534001F
:104B6C00A285EFD0EFD703C724008D476311F7025E
:104B7C00B727002083A787EB99CB03A38700630893
:104B8C0003002244B2409244024941010283B240E4
:104B9C0022449244024941018280797122D406D682
:104BAC0026D24AD04ECE52CC56CA094469C12A8963
:104BBC0003550500AE89514497C0FB1FE78020C305
:104BCC00AA8455C5372700209307472083C7470081
:104BDC008546BA8AFD1793F7F70F494463F9F6082F
:104BEC000347C500A1476314F700639209089C5C56
:104BFC004544B5EF9165938545711305C00297B097
:104C0C00FB1FE780604288DC2A8A4D442DC11306C5
:104C1C00C002814597B0FB1FE780E07883570900FD
:104C2C0093064A0036852311FA0071469305490014
:104C3C0036C697B0FB1FE780807389472300FA00C4
:104C4C0003C5C400B2460356090083C54A2061154A
:104C5C0013351500EFB090282A8463860900CE85A1
:104C6C002685EFA0802701C42685EFF06FFA2285F8
:104C7C00B250225492540259F249624AD24A4561C6
:104C8C008280B727002083C787200547FD1793F73D
:104C9C00F70F637CF708894751CA011122CC26CA49
:104CAC004AC84EC652C406CEAA89368AB2842E8908
:104CBC0097C0FB1FE780A0B32A84D14739C9485558
:104CCC0009C597B0FB1FE7806042F145268597B078
:104CDC00FB1FE780A06F48D4CD4705CD8346C400A9
:104CEC0021478147639FE600630D0A000347A50136
:104CFC000356050193062501AA854E85EF90D01029
:104D0C00AA8703474400630F090013676700230257
:104D1C00E400F2406244D2444249B249224A3E8500
:104D2C000561828013674700DDB7C9473E858280E5
:104D3C009307B00363EBA700B72700209387C70F37
:104D4C0006053E9503550500828041657D158280E0
:104D5C00011122CC2A842E8526CA06CEAE8497C099
:104D6C00FB1FE780C0A81DCDB7470F009387F72323
:104D7C00094563E4870281450A85414697B0FB1FCC
:104D8C00E7806062A685231081000A85418023019B
:104D9C008100A3010100EFB02075F2406244D244BF
:104DAC00056182804945D5BFB72700202383A72002
:104DBC0082806FB0D00A797152CC2A8A328522D483
:104DCC0026D24AD04ECE56CA5AC85EC606D662C441
:104DDC00AE8BB28A368BBA843E89C289468497C020
:104DEC00FB1FE780C0A015C92A8C63140A02137735
:104DFC004B008347450015CF93E727012302FC00A6
:104E0C008DEC631C0902639A090205E8ED9B2302F1
:104E1C00FC00832B8C0363910B08B25022549254E8
:104E2C000259F249624AD24A424BB24B224C45617A
:104E3C008280F59B93E70701D1B793E747002302E4
:104E4C00FC0001CC1C484146A2852324FC0213051E
:104E5C008C0197B0FB1FE780805163930B02D5D870
:104E6C000325CC0209C597B0FB1FE7802028F1452C
:104E7C00268597B0FB1FE78060552326AC0251BFF7
:104E8C00E30909F80325CC0209C597B0FB1FE7809D
:104E9C00E025F1454A85F1BF9DC483A70B0299EB30
:104EAC00916593853571714597B0FB1FE780C017ED
:104EBC0023A0AB0203A50B0219C57146A68597B0BA
:104ECC00FB1FE780C04A6388090283A74B0299EB5A
:104EDC00916593852571594597B0FB1FE780C014E8
:104EEC0023A2AB0203A54B0219C55946CE8597B038
:104EFC00FB1FE780C0471DC483A78B0299EB91650C
:104F0C0093851571514597B0FB1FE780E01123A4E1
:104F1C00AB0203A58B0219C55146A28597B0FB1FA6
:104F2C00E780E0442254B2509254F249B24B224CE6
:104F3C00CA865A860259424BD6855285D24A624A53
:104F4C0045616FF06FE8011126CA52C406CE22CC1F
:104F5C004AC84EC62A8AAE8497C0FB1FE7802089B8
:104F6C0025C5AA893945EFD04F932A8431CDB7276F
:104F7C00002003C9C7126314090003C90900930771
:104F8C00000D2310F400AD472301F4009385690054
:104F9C0013053400194697B0FB1FE780403D93F78B
:104FAC001400858085882306F400A306940023153D
:104FBC004401A2856244F240D244B249224A4A8555
:104FCC00424905616FD0CF91F2406244D2444249CC
:104FDC00B249224A05618280411122C43724002043
:104FEC00130484EA084006C619C597B0FB1FE78076
:104FFC00E00F23200400B2402244410182800111C1
:10500C0006CE22CC26CA4AC82EC697B0FB1FE78014
:10501C00007E39CDB245B727002003C9C7120CD585
:10502C00AA8463140900034905004145EFD0EF86BB
:10503C002A841DCD9307000D2310F500A5472301ED
:10504C00F50083C75400938564001105A30FF5FE8A
:10505C00194697B0FB1FE78080319C54A285F24023
:10506C005CC46244D2444A85424905616FD04F8783
:10507C00F2406244D244424905618280797122D463
:10508C0006D62A842EC697B0FB1FE78040760DCD3E
:10509C008346C5001147AA8749456393E6029C5F86
:1050AC00B24599C383C567010808EF90706CB706C9
:1050BC0005009386A688100889452285EF90205A12
:1050CC00B2502254456182805145DDBFB727002084
:1050DC0083C787200547FD1793F7F70F637CF70409
:1050EC00894731CA411122C426C24AC006C6B284BD
:1050FC002E8997B0FB1FE780806F2A84D14705C5A6
:10510C00630809008347450093E727002302F50055
:10511C004146A6851305840197B0FB1FE780202527
:10512C009C481CD48147B2402244924402493E859B
:10513C0041018280C9473E858280797122D406D68E
:10514C002A842EC697B0FB1FE780606A01CDB2455A
:10515C002285230EB1006C08EF90B054B25022544B
:10516C00456182805145DDBF6F80503CC16713871C
:10517C00E7FF6395E502B727002083A747EB91EB88
:10518C00494582804945B24022449244024941013A
:10519C00828003A30700E30503FE0283411122C4AE
:1051AC0026C24AC006C6FD172A892E84B284639A89
:1051BC00F502B727002083A747EB91CF9C4381CF03
:1051CC00829711E9B7270020238427EDB727002009
:1051DC00A38497EC4DBFA6854A85EFE03FD945F5F2
:1051EC00D5B72E8597B0FB1FE780606041DD834704
:1051FC0005000D45E39927F922852244B240024966
:10520C00A685924441016FC0E0111307B00363609F
:10521C00A7064111C16722C406C626C2FD172A84FF
:10522C0009456382F502C547AE846313F4022E85EB
:10523C00EFC00017372500201305C50F06042A946C
:10524C00231094000145B2402244924441018280D3
:10525C009307A0036316F4002E85EFC0600DD9BF31
:10526C00E31AE4FC13F5F50FEFC0C00CE1B70945E8
:10527C008280011106CE2AC6EFE07FD1EF20206993
:10528C00EF10701DEFB0411CB72700209387C70D9E
:10529C00130700F02391E70023820700B7270020B3
:1052AC00324513874720FD562301D700F240238255
:1052BC00A720954505616F702025597193970501BD
:1052CC00CAD086D6A2D4A6D2CECED2CCD6CADAC872
:1052DC00DEC6E2C4E6C2EAC06EDEC1872E8963DA9E
:1052EC000754B724002003C54420B7290020372BCE
:1052FC00002097B0FB1FE78040F22A8426CEB72A05
:10530C000020372C00209384C90DB72C00201DE001
:10531C0021653345A900B650265496540659F649D2
:10532C00664AD64A464BB64B264C964C064DF25D19
:10533C0065618280834704001307200A639CE700A1
:10534C0003CA340003552400C1652286FD15EFF015
:10535C00AF979DA2724713074720034A27001307F4
:10536C0010096397E7168347140015476391E7020A
:10537C002285EFF02F9A2285EFC07FCFF24703C52D
:10538C00472097B0FB1FE78040E92A8449B739478B
:10539C006398E716035544008567A5076315F50464
:1053AC000C4483CB0500639D0B00850591C9372503
:1053BC00002019461305450F97B0FB1FE78020FB13
:1053CC0003C7C90D85476315F71063880B00238E3F
:1053DC00090C5E85EFF00FC979BF8947238EF90C54
:1053EC00EFB0107749BF896713872700631CE5046A
:1053FC00832B8400638E0B0C83C70B0089EF83C750
:10540C002B0003C71B00A207D98F2394F40083C77A
:10541C003B00A380F40003C7C90D8947631AF70A40
:10542C0083C70B0091C7238E090C03C50B005DB716
:10543C0083C5140003D584008D47238EF90CEF70BF
:10544C00A00FE5B795076318F5001C4403C50700CA
:10545C00EFF00FEB0DB7F9771387A7FF2A974207E9
:10546C004183914663F1E6049387A7FCAA97C20790
:10547C00C18371476371F70289671387B7006310A3
:10548C00E50483A70AEBE38807EE9C43A285E3843B
:10549C0007EE829715A0370700181307F770B3575C
:1054AC00F700858BA1CB83278BEBE38607EC9C4322
:1054BC00E38307EC22858297E31F05EA11A8138783
:1054CC00C7006310E5021C4483C70700E38507EAA5
:1054DC009307F00FE301FAEAA2855285EFC05FC093
:1054EC0071BDB9076318F50083A74CEBE38507E89A
:1054FC00DC4369BF896793871704E304F5F8C9BFD8
:10550C003D476399E7040355440089671387D70027
:10551C00E30CE5FC13879701E308E5FCCD07E319E1
:10552C00F5FA03D76400C167FD17631DF70083A765
:10553C004CEBE38207E4DC43E38F07E20965A285C9
:10554C004D0581BFB727002083A7C7EBE38507E292
:10555C009C43DDB71307E003E39CE7F68347240085
:10556C0005476398E70E8347640037270020930DA7
:10557C0087EAE1E783A70D00D5CF83CB0700214A4B
:10558C0003457400130D8400EA85EFE0FFE58347C3
:10559C004401A303A400835804010358E4000357F7
:1055AC0044002A86034534003EC283572401EA8610
:1055BC00DE853EC0D287EFF0CFC38347340095E73A
:1055CC00DD47835804010358E40083467400835577
:1055DC0044003EC2835724013EC06A87D2870546E9
:1055EC005E85EF80F017A301A40083A70D0081C78F
:1055FC001145EFF07F9E930B8CEC03C50B00E30C75
:10560C0005D6B727002083C597ECEFE03F96E3045F
:10561C0005D68346340093071003638AF6000356BD
:10562C00440083C50B0052873685EFE03FAD230461
:10563C000CEC91B383CB340099B783278BEB83CBE2
:10564C003400114A95DFDC4385DF814501458297A3
:10565C0005BF29476390E70A83476400372700207A
:10566C00930D87EAA5EF83A70D00B5C783CB070081
:10567C00214A03457400130D84009377250013769B
:10568C00150089E7EA85EFE03FD62A8683470402B6
:10569C00A303C4008358C4010358A4010357440056
:1056AC00034534003EC28357E401EA86DE853EC0E2
:1056BC00D287EFF00FB48347340085FBDD47835866
:1056CC00C4010358A40183467400835544003EC2B0
:1056DC008357E40111B783CB340059BF83278BEB7D
:1056EC0083CB3400114AD1D7DC43C1D78145014566
:1056FC00829741B70947639CE70083A70AEBE38CC9
:10570C0007C6DC43E38907C622858297ADB12D47D6
:10571C006398E70083A70AEBE38F07C49C47DDB7C8
:10572C000D476397E70022868D450355440005B16C
:10573C0019476395E7069305610213051031EFA035
:10574C0051592C1013052031EFA0B15803566400A9
:10575C00835781020355440063E8C70083568400D5
:10576C000357610263F7E60093050002EFB0504265
:10577C0019B16374E6002313E40063F4D700231417
:10578C00F4000357C4008356A400035684008355C9
:10579C00640001488147EFB0703FF1BE1D47E389BB
:1057AC00E7D231476395E7002286B145BDBF354747
:1057BC006398E70083A70AEBE38F07BADC4799B736
:1057CC0039476396E7002285EF0090066DB63D479A
:1057DC006398E70083A70AEBE38F07B89C4B1DB7D0
:1057EC0041476396E7002285EF00B00E69B6454746
:1057FC006396E7000145EF00301EB5BE4947639D37
:10580C00E70083278BEBE38507CCDC43E38207CCF3
:10581C008145054582976DB94D47E39BE7CA8327C0
:10582C008BEBE38707CADC43E38407CAA2850945EF
:10583C00D5B793F7150089CFB727002083A707EBBF
:10584C0089C7DC4399C30145829713451900E1B41C
:10585C0093F7250091CFB727002083A787EB91C73B
:10586C00DC4381C78145054582971345290065B402
:10587C0093F745000145E38007AAB727002083A7CB
:10588C00C7EA372400201304C40D91CF85472302A7
:10589C00F400B727002083A787EB91C7DC4381C7AF
:1058AC0081450545829748442C10EFA0B02B281059
:1058BC00EFF0EF9FB727002083D7E71181CF1306B6
:1058CC0000643386C702B727002003C547209145E3
:1058DC00EFC0DFAE134549003DBC011122CC2A8438
:1058EC00554506CE26CAEFF0AFC4AA841305400274
:1058FC00EFF00FC42AC613055002EFF06FC3AA864F
:10590C00228562443246F240B3359000D2440561A0
:10591C006FB0302E797122D406D68D472E84631F3A
:10592C00F50003D7A50083D6850003D66500034593
:10593C00340083D54500EFE0DFFA09A889671387A7
:10594C00D7006311E50403C5250019E58547B2505E
:10595C0022543E8545618280B727002083A687EAC2
:10596C00F5D603C6360083C50600814802C202C0C4
:10597C000148814701479106EFF0AF870545EFF0ED
:10598C00AFE5E9B71387E700E302E5FC13873701BE
:10599C00631AE50003C5250055D901478146014628
:1059AC00814551BFE507E303F5FAB1476319F500EB
:1059BC00B727002003C5F70DEFE03FFE41BF41675D
:1059CC007D178147E315E5F803C75500C947E31F69
:1059DC00F7F683D6E50003D6C5000355840083D5BE
:1059EC00A500EFB0502351C15D45EFF06FB43335D6
:1059FC00A000231CA100834544000355240030085B
:105A0C00EF80001283578101B1F36C08130510313C
:105A1C00EFA0312C9305E10113052031EFA0712B80
:105A2C008357C101035784006374F7002314F400F7
:105A3C008357E1010357A40063F4E7002315F40036
:105A4C00835584008357A40063F4B7002315B40076
:105A5C000357E4008356C4000356A40003552400E6
:105A6C0001488147EFB05010D5B58547231CF10094
:105A7C0059B7B727002013874720834677001307B1
:105A8C00F00F638CE60851C9411122C426C24AC0EA
:105A9C0006C6AA840345A500138947204105EFC01B
:105AAC00CFDF2A842DC59307000D2310F500D947AD
:105ABC002301F50083D744002312F50083C764004B
:105ACC002303F50083C77400A303F50083C7840088
